:020000040800F2
:100000000000012069690008E98B0008318C0008B4
:10001000518C0008598C0008618C00080000000019
:10002000000000000000000000000000698C0008D3
:10003000758C000800000000818C0008A98C000865
:10004000B9690008B9690008B96900088D8C000811
:10005000B9690008B9690008D58C0008B9690008B9
:10006000B9690008E58C0008B9690008B969000899
:10007000B9690008B9690008B9690008B9690008D8
:10008000B9690008B9690008B9690008B9690008C8
:10009000B9690008B9690008B9690008F58C000859
:1000A000B9690008B9690008B9690008B9690008A8
:1000B000B9690008B9690008B9690008B969000898
:1000C000B9690008B9690008B9690008B969000888
:1000D000B9690008B9690008B9690008B969000878
:1000E000C58C0008B9690008058D000800000000F3
:1000F0000000000000000000000000000000000000
:100100000000000000000000B9690008B96900089B
:10011000B9690008B9690008B9690008B969000837
:10012000B9690008B9690008B9690008B969000827
:10013000B9690008B9690008B9690008B969000817
:10014000B9690008B9690008B9690008398D000863
:10015000000000000000000000000000000000009F
:10016000000000000000000000000000000000008F
:10017000000000000000000000000000000000007F
:10018000000000000000000000000000000000006F
:10019000000000000000000000000000000000005F
:1001A000000000000000000000000000000000004F
:1001B000000000000000000000000000000000003F
:1001C000000000000000000000000000000000002F
:1001D000000000000000000000000000000000001F
:0401E0005FF8E0F1F3
:1001E80010B5054C237833B9044B13B10448AFF369
:1001F80000800123237010BDF009002000000000DA
:100208008C05010808B5064B1BB106480649AFF333
:1002180000800648036813B1054B03B1984708BD31
:10022800000000008C050108F4090020EC090020FA
:100238000000000081F0004102E000BF83F00043AD
:1002480030B54FEA41044FEA430594EA050F08BF69
:1002580090EA020F1FBF54EA000C55EA020C7FEA2D
:10026800645C7FEA655C00F0E2804FEA5454D4EBAA
:100278005555B8BF6D420CDD2C4480EA020281EA74
:10028800030382EA000083EA010180EA020281EAAC
:100298000303362D88BF30BD11F0004F4FEA0131FE
:1002A8004FF4801C4CEA113102D0404261EB41010D
:1002B80013F0004F4FEA03334CEA133302D0524293
:1002C80063EB430394EA050F00F0A780A4F101044F
:1002D800D5F1200E0DDB02FA0EFC22FA05F2801889
:1002E80041F1000103FA0EF2801843FA05F359416F
:1002F8000EE0A5F120050EF1200E012A03FA0EFCEE
:1003080028BF4CF0020C43FA05F3C01851EBE37117
:1003180001F0004507D54FF0000EDCF1000C7EEB34
:1003280000006EEB0101B1F5801F1BD3B1F5001F72
:100338000CD349085FEA30004FEA3C0C04F1010491
:100348004FEA445212F5800F80F09A80BCF1004FBA
:1003580008BF5FEA500C50F1000041EB045141EA3C
:10036800050130BD5FEA4C0C404141EB010111F43D
:10037800801FA4F10104E9D191F0000F04BF0146E8
:100388000020B1FA81F308BF2033A3F10B03B3F1C6
:1003980020020CDA0C3208DD02F1140CC2F10C0256
:1003A80001FA0CF021FA02F10CE002F11402D8BFB4
:1003B800C2F1200C01FA02F120FA0CFCDCBF41EA80
:1003C8000C019040E41AA2BF01EB0451294330BD4F
:1003D8006FEA04041F3C1CDA0C340EDC04F114042C
:1003E800C4F1200220FA04F001FA02F340EA030003
:1003F80021FA04F345EA030130BDC4F10C04C4F149
:10040800200220FA02F001FA04F340EA0300294628
:1004180030BD21FA04F0294630BD94F0000F83F472
:10042800801306BF81F480110134013D4EE77FEA55
:10043800645C18BF7FEA655C29D094EA050F08BFA1
:1004480090EA020F05D054EA000C04BF1946104682
:1004580030BD91EA030F1EBF0021002030BD5FEAC6
:10046800545C05D14000494128BF41F0004130BDEE
:1004780014F580043CBF01F5801130BD01F0004542
:1004880045F0FE4141F470014FF0000030BD7FEAB5
:10049800645C1ABF194610467FEA655C1CBF0B46B0
:1004A800024650EA013406BF52EA033591EA030FC7
:1004B80041F4002130BD00BF90F0000F04BF0021BF
:1004C800704730B54FF4806404F132044FF00005F2
:1004D8004FF0000150E700BF90F0000F04BF00216B
:1004E800704730B54FF4806404F1320410F00045D1
:1004F80048BF40424FF000013EE700BF42004FEACC
:10050800E2014FEA31014FEA02701FBF12F07F4348
:1005180093F07F4F81F06051704792F0000F14BF45
:1005280093F07F4F704730B54FF4607401F0004589
:1005380021F0004120E700BF50EA010208BF7047E0
:1005480030B54FF000050AE050EA010208BF7047D5
:1005580030B511F0004502D5404261EB41014FF43E
:10056800806404F132045FEA915C3FF4DCAE4FF042
:1005780003025FEADC0C18BF03325FEADC0C18BF29
:10058800033202EBDC02C2F1200300FA03FC20FA7A
:1005980002F001FA03FE40EA0E0021FA02F11444C7
:1005A800C1E600BF70B54FF0FF0C4CF4E06C1CEADC
:1005B80011541DBF1CEA135594EA0C0F95EA0C0F51
:1005C80000F0DEF82C4481EA030621EA4C5123EAC4
:1005D8004C5350EA013518BF52EA033541F48011F3
:1005E80043F4801338D0A0FB02CE4FF00005E1FBA6
:1005F80002E506F00042E0FB03E54FF00006E1FBF0
:1006080003569CF0000F18BF4EF0010EA4F1FF0432
:10061800B6F5007F64F5407404D25FEA4E0E6D4172
:1006280046EB060642EAC62141EA55514FEAC52083
:1006380040EA5E504FEACE2EB4F1FD0C88BFBCF5FF
:10064800E06F1ED8BEF1004F08BF5FEA500E50F1B0
:10065800000041EB045170BD06F0004646EA010176
:1006680040EA020081EA0301B4EB5C04C2BFD4EBA8
:100678000C0541EA045170BD41F480114FF0000EA1
:10068800013C00F3AB8014F1360FDEBF002001F00F
:10069800004170BDC4F10004203C35DA0C341BDC89
:1006A80004F11404C4F1200500FA05F320FA04F05B
:1006B80001FA05F240EA020001F0004221F000418F
:1006C80010EBD37021FA04F642EB06015EEA430E02
:1006D80008BF20EAD37070BDC4F10C04C4F1200532
:1006E80000FA04F320FA05F001FA04F240EA0200E5
:1006F80001F0004110EBD37041F100015EEA430EB6
:1007080008BF20EAD37070BDC4F1200500FA05F2D5
:100718004EEA020E20FA04F301FA05F243EA020354
:1007280021FA04F001F0004121FA04F220EA020063
:1007380000EBD3705EEA430E08BF20EAD37070BDA9
:1007480094F0000F0FD101F00046400041EB010189
:1007580011F4801F08BF013CF7D041EA060195F06B
:10076800000F18BF704703F00046520043EB030325
:1007780013F4801F08BF013DF7D043EA0603704712
:1007880094EA0C0F0CEA135518BF95EA0C0F0CD01D
:1007980050EA410618BF52EA4306D1D181EA030163
:1007A80001F000414FF0000070BD50EA410606BF5D
:1007B8001046194652EA430619D094EA0C0F02D1A2
:1007C80050EA013613D195EA0C0F05D152EA0336E7
:1007D8001CBF104619460AD181EA030101F0004105
:1007E80041F0FE4141F470014FF0000070BD41F04E
:1007F800FE4141F4780170BD70B54FF0FF0C4CF428
:10080800E06C1CEA11541DBF1CEA135594EA0C0F46
:1008180095EA0C0F00F0A7F8A4EB050481EA030E93
:1008280052EA03354FEA013100F088804FEA03337A
:100838004FF0805545EA131343EA12634FEA022248
:1008480045EA111545EA10654FEA00260EF0004109
:100858009D4208BF964244F1FD0404F5407402D25B
:100868005B084FEA3202B61A65EB03055B084FEAEC
:1008780032024FF480104FF4002CB6EB020E75EBE9
:10088800030E22BFB61A754640EA0C005B084FEA11
:100898003202B6EB020E75EB030E22BFB61A75468E
:1008A80040EA5C005B084FEA3202B6EB020E75EBD9
:1008B800030E22BFB61A754640EA9C005B084FEA51
:1008C8003202B6EB020E75EB030E22BFB61A75465E
:1008D80040EADC0055EA060E18D04FEA051545EA4D
:1008E80016754FEA06164FEAC30343EA52734FEAF6
:1008F800C2025FEA1C1CC0D111F4801F0BD141EA6F
:1009080000014FF000004FF0004CB6E711F4801FD3
:1009180004BF01430020B4F1FD0C88BFBCF5E06FB3
:100928003FF6AFAEB5EB030C04BFB6EB020C5FEAC3
:10093800500C50F1000041EB045170BD0EF0004E18
:100948004EEA113114EB5C04C2BFD4EB0C0541EA4A
:10095800045170BD41F480114FF0000E013C90E647
:1009680045EA060E8DE60CEA135594EA0C0F08BF0B
:1009780095EA0C0F3FF43BAF94EA0C0F0AD150EA0A
:1009880001347FF434AF95EA0C0F7FF425AF10469D
:1009980019462CE795EA0C0F06D152EA03353FF4C5
:1009A800FDAE1046194622E750EA410618BF52EA42
:1009B80043067FF4C5AE50EA41047FF40DAF52EA16
:1009C80043057FF4EBAE12E74FF0FF3C06E000BFB3
:1009D8004FF0010C02E000BF4FF0010C4DF804CDC0
:1009E8004FEA410C7FEA6C5C4FEA430C18BF7FEA80
:1009F8006C5C1BD001B050EA410C0CBF52EA430CAE
:100A080091EA030F02BF90EA020F0020704710F12D
:100A1800000F91EA030F58BF994208BF90422CBFBC
:100A2800D8176FEAE37040F0010070474FEA410CB5
:100A38007FEA6C5C02D150EA013C07D14FEA430CD3
:100A48007FEA6C5CD6D152EA033CD3D05DF8040B44
:100A5800704700BF8446104662468C461946634676
:100A680000E000BF01B5FFF7B7FF002848BF10F14D
:100A7800000F01BD4DF808EDFFF7F4FF0CBF012092
:100A880000205DF808FB00BF4DF808EDFFF7EAFF0E
:100A980034BF012000205DF808FB00BF4DF808EDC9
:100AA800FFF7E0FF94BF012000205DF808FB00BFBE
:100AB8004DF808EDFFF7CEFF94BF012000205DF848
:100AC80008FB00BF4DF808EDFFF7C4FF34BF012055
:100AD80000205DF808FB00BF4FEA410212F5001242
:100AE80015D211D56FF47873B3EB625212D94FEA6D
:100AF800C12343F0004343EA505311F0004F23FA57
:100B080002F018BF404270474FF00000704750EAAB
:100B1800013005D111F0004008BF6FF00040704768
:100B28004FF00000704700BF4A0011D212F50012C2
:100B380011D20DD56FF47873B3EB62520ED44FEA2D
:100B4800C12343F0004343EA505323FA02F07047AD
:100B58004FF00000704750EA013002D14FF0FF30EB
:100B680070474FF0000070474FEA4102B2F1E0438E
:100B780024BFB3F5001CDCF1FE5C0DD901F0004C7C
:100B88004FEAC0024CEA5070B2F1004F40EB8300CC
:100B980008BF20F00100704711F0804F21D113F1F8
:100BA8003872BCBF01F00040704741F480114FEA31
:100BB8005252C2F11802C2F1200C10FA0CF320FABA
:100BC80002F018BF40F001004FEAC1234FEAD323D7
:100BD80003FA0CFC40EA0C0023FA02F34FEA430341
:100BE800CCE77FEA625307D150EA01331EBF4FF0CA
:100BF800FE4040F44000704701F0004040F0FE40E5
:100C080040F40000704700BF80F0004002E000BFE1
:100C180081F0004142001FBF5FEA410392EA030FDF
:100C28007FEA226C7FEA236C6AD04FEA1262D2EB29
:100C38001363C1BFD218414048404140B8BF5B422E
:100C4800192B88BF704710F0004F40F4000020F0C7
:100C58007F4018BF404211F0004F41F4000121F0DD
:100C68007F4118BF494292EA030F3FD0A2F1010227
:100C780041FA03FC10EB0C00C3F1200301FA03F165
:100C880000F0004302D5494260EB4000B0F5000F88
:100C980013D3B0F1807F06D340084FEA310102F147
:100CA8000102FE2A51D2B1F1004F40EBC25008BFF9
:100CB80020F0010040EA03007047490040EB0000C3
:100CC80010F4000FA2F10102EDD1B0FA80FCACF1F2
:100CD800080CB2EB0C0200FA0CF0AABF00EBC250F1
:100CE80052421843BCBFD0401843704792F0000FDF
:100CF80081F4000106BF80F400000132013BB5E732
:100D08004FEA41037FEA226C18BF7FEA236C21D0A7
:100D180092EA030F04D092F0000F08BF084670470C
:100D280090EA010F1CBF0020704712F07F4F04D1DA
:100D3800400028BF40F00040704712F100723CBFED
:100D480000F50000704700F0004343F0FE4040F417
:100D5800000070477FEA226216BF08467FEA2363D5
:100D68000146420206BF5FEA412390EA010F40F4C0
:100D7800800070474FF0000304E000BF10F000430C
:100D880048BF40425FEA000C08BF704743F09643F3
:100D980001464FF000001CE050EA010208BF70470E
:100DA8004FF000030AE000BF50EA010208BF704795
:100DB80011F0004302D5404261EB41015FEA010CAA
:100DC80002BF84460146002043F0B64308BFA3F1A2
:100DD8008053A3F50003BCFA8CF2083AA3EBC25384
:100DE80010DB01FA02FC634400FA02FCC2F12002A3
:100DF800BCF1004F20FA02F243EB020008BF20F0DA
:100E08000100704702F1200201FA02FCC2F120023F
:100E180050EA4C0021FA02F243EB020008BF20EA34
:100E2800DC7070474BB942B9002908BF002802D0CE
:100E38004FF0FF31084600F075B882B0EC462DE956
:100E4800005000F057F8DDF804E002B00CBC704721
:100E580038B50022002304460D46FFF715FE28B9D1
:100E680020462946BDE8384000F00AB8204605F17A
:100E7800004100F005F8404261EB410138BD00BF78
:100E880070B500220D4B04460D46FFF78BFBFFF7AC
:100E98004BFE0646FFF710FB0022094BFFF782FBCB
:100EA80002460B4620462946FFF7C8F9FFF73CFEE5
:100EB800002242EA00042046314670BD0000F03DA1
:100EC8000000F0412DE9704F089E14461D468046EB
:100ED800894600F029F804FB01F3A4FB00AB00FBF2
:100EE80005329344B8EB0A0869EB0B09C6E9008997
:100EF800BDE8708F2DE9704F089E14461D46804648
:100F0800894600F061F900FB05F5A0FB04AB04FB82
:100F18000154A344B8EB0A0869EB0B09C6E9008938
:100F2800BDE8708F704700BF00292DE9F00FC0F2AF
:100F3800A1800024002BC0F29880154606460F4673
:100F4800002B3FD18A4258D9B2FA82F34BB1C3F190
:100F5800200201FA03F720FA02F29D4000FA03F694
:100F68001743290CB7FBF1F201FB1277A8B200FB7B
:100F780002F34FEA164C4CEA0747BB4209D97F19DE
:100F880002F1FF3C80F00581BB4240F20281023A47
:100F98002F44FF1AB7FBF1F301FB137100FB03F0B9
:100FA800B6B246EA0141884208D9491903F1FF3728
:100FB80080F0F180884240F2EE80023B43EA024230
:100FC800002303E08B420AD900231A46104619462B
:100FD80014B1404261EB4101BDE8F00F7047B3FA2C
:100FE80083F8B8F1000F40F088808B4202D3824228
:100FF80000F2E28000230122E8E712B90123B3FBE3
:10100800F2F5B5FA85F2002A3AD17F1B280C1FFAAF
:1010180085FC0123B7FBF0F100FB11770CFB01F213
:101028004FEA164848EA0747BA4207D97F1901F13B
:10103800FF3802D2BA4200F2C4804146BF1AB7FB59
:10104800F0F200FB12700CFB02FCB6B246EA00405C
:10105800844507D9401902F1FF3702D2844500F2CE
:10106800AE803A4642EA0142B0E7E443524263EBBB
:10107800430362E7404261EB41014FF0FF3459E717
:101088009540C2F1200927FA09F126FA09F9974093
:10109800280CB1FBF0F800FB18111FFA85FC0CFBBB
:1010A80008F349EA07094FEA194747EA01418B4221
:1010B80006FA02F608D9491908F1FF327AD28B42AA
:1010C80078D9A8F102082944C91AB1FBF0F300FB4A
:1010D80013170CFB03F21FFA89F949EA0747BA42CA
:1010E80007D97F1903F1FF3160D2BA425ED9023BBA
:1010F8002F44BF1A43EA08438CE7C8F1200225FAB7
:1011080002F103FA08FC27FA02F320FA02F207FABE
:1011180008F741EA0C0C4FEA1C49B3FBF9F109FB4B
:1011280011331FFA8CFA0AFB01FB17433A0C42EA07
:1011380003439B4505FA08F008D913EB0C0301F1AA
:10114800FF3235D29B4533D902396344CBEB0303D5
:10115800B3FBF9F209FB12330AFB02FABFB247EA02
:101168000347BA4508D917EB0C0702F1FF331BD226
:10117800BA4519D9023A674442EA0145A5FB00017C
:10118800CAEB07078F424FF000030AD305D02A465F
:101198001CE76246FDE63B4610E706FA08F686427B
:1011A800F5D26A1E002311E71A46E5E70B46A0E7C9
:1011B8001146CBE7904687E74346424606E7023AA0
:1011C80050E702392F4439E72DE9F00F1446054658
:1011D8000E46002B43D18A4253D9B2FA82F757B14F
:1011E800C7F1200620FA06F601FA07F302FA07F417
:1011F80000FA07F51E43210CB6FBF1F201FB12665B
:10120800A0B200FB02F32F0C47EA0646B34209D905
:10121800361902F1FF3780F0FD80B34240F2FA80C0
:10122800023A2644F61AB6FBF1F301FB136100FB00
:1012380003F0ADB245EA0141884208D9091903F122
:10124800FF3680F0E980884240F2E680023B43EABC
:101258000242002310461946BDE8F00F70478B4242
:101268004CD8B3FA83F6002E4FD18B4202D3824278
:1012780000F2DD80BDE8F00F002301221046194678
:10128800704712B90124B4FBF2F4B4FA84F2002ACC
:1012980040F08280091B260CA7B20123B1FBF6F0AF
:1012A80006FB101107FB00F24FEA154C4CEA01410E
:1012B8008A4207D9091900F1FF3C02D28A4200F29A
:1012C800C8806046891AB1FBF6F206FB121107FBCB
:1012D80002F7ADB245EA0145AF4208D92C1902F12F
:1012E800FF3180F09B80A74240F29880023A42EAA0
:1012F800004210461946BDE8F00F704700231A4611
:1013080010461946BDE8F00F7047C6F1200522FACD
:1013180005F703FA06F421FA05F301FA06FB20FAA9
:1013280005F53C434FEA1448B3FBF8FC08FB1C33B3
:101338001FFA84F909FB0CFA45EA0B0B4FEA1B4527
:1013480045EA03439A4502FA06F204D91B190CF13F
:10135800FF356FD3AC46CAEB0303B3FBF8F508FBC4
:10136800153309FB05F91FFA8BFB4BEA0347B9450F
:1013780004D93F1905F1FF3362D31D4645EA0C4CE9
:10138800ACFB0223C9EB07079F424FF000054AD385
:1013980046D062462B465DE79440C2F1200921FA07
:1013A80009FC914020FA09F9260CBCFBF6F806FB6B
:1013B80018CCA7B207FB08F349EA01094FEA19411B
:1013C80041EA0C4C634500FA02F509D91CEB040C00
:1013D80008F1FF323BD2634539D9A8F10208A44489
:1013E800C3EB0C0CBCFBF6F306FB13C107FB03F2C3
:1013F8001FFA89F949EA01418A4207D9091903F113
:10140800FF3022D28A4220D9023B2144891A43EA7A
:10141800084343E73A4605E7334618E70A4666E7CE
:10142800B0409042B5D20CF1FF32002312E73346A8
:1014380032460FE79A458DD9ACF1020C23448AE76E
:10144800B9459AD9023D274498E70346DEE7904616
:10145800C6E70238214435E7844641EA000313F021
:10146800030349D1403A23D30B6803604B684360B8
:101478008B688360CB68C3600B6903614B69436108
:101488008B698361CB69C3610B6A03624B6A4362F0
:101498008B6A8362CB6AC3620B6B03634B6B4363D8
:1014A8008B6B8363CB6BC36340304031403ADBD2F4
:1014B80030320BD30B6803604B6843608B688360E2
:1014C800CB68C36010301031103AF3D20C3205D318
:1014D80051F8043B40F8043B043AF9D2043208D0EE
:1014E800D2071CBF11F8013B00F8013B01D30B8860
:1014F80003806046704700BF082A13D38B07B1D01A
:1015080010F00303AED0C3F10403D21ADB071CBFEB
:1015180011F8013B00F8013BA4D331F8023B20F855
:10152800023B9FE7043AD9D3013A11F8013B00F88E
:10153800013BF9D20B7803704B7843708B7883703A
:101548006046704770B50F4E0F4D761BB61007D02A
:10155800043D0024013455F8043F9847A642F9D1C8
:101568000A4E0B4D0FF00EF8761BB61008D0043D4E
:101578000024013455F8043F9847A642F9D170BDBC
:1015880070BD00BFAC050108AC050108B405010831
:10159800AC050108F0B4840743D0541E002A3ED09D
:1015A800CDB2034603E0621E002C38D0144603F87F
:1015B800015B9A07F7D1032C2AD9CDB245EA052554
:1015C8000F2C45EA054515D9A4F110073F0903F189
:1015D800100606EB07161A46156055609560D5602B
:1015E8001032B242F8D104F00F040137032C03EB98
:1015F80007130DD91E462246043A032A46F8045B0F
:10160800FAD8221F22F003020432134404F0030420
:101618002CB1C9B21C4403F8011BA342FBD1F0BC96
:10162800704714460346C6E7024B13B1024800F060
:1016380005B8704700000000511600080146002058
:101648000246034600F018B838B5094D094C641B2A
:10165800A41018BF05EB840505D0013C55F8043DDE
:101668009847002CF9D1BDE838400EF091BF00BF73
:10167800B4050108B8050108F0B5274C85B02668FF
:101688000746D6F84841002C40D065681F2D1EDD5E
:10169800224818B94FF0FF3005B0F0BD4FF4C870BC
:1016A800039102920193AFF3008003990446029AD2
:1016B800019B0028EED0D6F84851002025606060D4
:1016C8000546C6F84841C4F88801C4F88C013FB9FA
:1016D8006B1C00200235636044F8251005B0F0BD8E
:1016E8000126AE4004EB8500C0F88820D4F8882194
:1016F800022F42EA0602C4F88821C0F80831E7D16F
:10170800D4F88C311E43C4F88C61E1E706F5A67461
:10171800C6F84841B9E700BFBC0001080000000056
:1017280080B400AF00BF054B9B889BB203F0200339
:10173800002BF8D0BD465DF8047B704700280040B8
:1017480080B485B000AF0346FB800023FB730F4BCA
:101758009B889BB2DAB2FB88DBB21340FB730B4B5E
:101768001B889AB2FB8813409BB2002B05D0FB7BE9
:10177800002B02D00123FB7301E00023FB73FB7BEA
:1017880018461437BD465DF8047B704700280040B2
:1017980080B483B000AF0346FB80074B064A9288AB
:1017A80091B2FA88D24392B20A4092B29A800C3728
:1017B800BD465DF8047B70470028004080B485B0C2
:1017C80000AF78600023FB607B68DB684FF0FF3276
:1017D8005A607B68DB686FF080425A61FB7B43F09C
:1017E8008003FB737B7B43F008037B737B68DB68B8
:1017F800FA689A611437BD465DF8047B704700BFEC
:1018080080B586B000AF78600023FB7400237B614D
:101818000023FB60032002F0B5FD7B68DB681B69D1
:10182800FB607B6901337B617A69174B9A4201D966
:10183800002324E0FB68DB0FDBB2002BEAD0002397
:101848007B61FB6843F00103FB607B68DB68FA6837
:101858001A617B68DB681B69FB607B6901337B610C
:101868007A69094B9A4200D905E0FB6803F0010345
:10187800DBB2012BEDD0032002F084FDFB7C18467F
:101888001837BD4680BD00BF400D030080B489B045
:1018980000AFF860B960FA71BB800023FB76FB6883
:1018A800DB78002B22D100237B610023FB61BB88FE
:1018B8000333002B00DA03339B107B61FB79FA6852
:1018C80032339B0013449B683B610023FB6109E0B2
:1018D800BB681A683B691A60FB690133FB61BB6826
:1018E8000433BB60FA697B699A42F1D3FB7E1846E0
:1018F8002437BD465DF8047B704700BF80B489B0CB
:1019080000AFF860B9601346FB800023FB61FB88D9
:101918000333002B00DA03339B10BB61FB68D3F859
:10192800D0307B610023FB6109E07B691A68BB68E2
:101938001A60FB690133FB61BB680433BB60FA6959
:10194800BB699A42F1D3BB6818462437BD465DF897
:10195800047B704780B487B000AF78600B46FB709B
:1019680000233B610023FB737B680022DA707B68ED
:1019780001229A707B6840229A80FB78012B13D150
:101988004FF0A0433B617B680122DA727B68082232
:101998001A707B6804225A707B684FF4A072DA8050
:1019A8007B6802221A7211E0FB78002B0ED1454B9E
:1019B8003B617B680022DA727B680C221A707B68B4
:1019C80006225A707B684FF4A062DA803A697B6815
:1019D800DA603B6903F500631A467B681A610023E5
:1019E8007B611CE07B695A013B69134403F5106372
:1019F8001A4679687B6904339B000B449A607B69BB
:101A08005A013B69134403F530631A4679687B69C8
:101A180014339B000B445A607B6901337B617B68FC
:101A28005B781A467B699A42DCD83B6903F5806388
:101A38001A467B685A613B6903F588631A467B68D6
:101A4800C3F8CC2000237B610FE07B695A013B6916
:101A5800134403F5A0631A4679687B6922339B0017
:101A68000B449A607B6901337B617B681B781A465B
:101A78007B699A42E9D800237B610FE07B691A03EE
:101A88003B69134403F580531A4679687B693233FE
:101A98009B000B449A607B6901337B617B681B78F0
:101AA8001A467B699A42E9D83B6903F560631A468E
:101AB8007B68C3F80C21FB7B18461C37BD465DF8D4
:101AC800047B70470000044080B586B000AF7860A2
:101AD8000023FB7500233B610023FB600023BB60F0
:101AE8007B681B7A012B42D17B68DB689B6BFB60B0
:101AF800BB7B6FF30003BB737B685B7A002B03D05F
:101B0800BB7B43F01003BB737B68DB68FA689A639E
:101B180000233B617B68DB68DB683B613B7C6FF3E0
:101B280086133B74BB7C6FF38613BB74BB7C6FF36B
:101B38004103BB74BB7C6FF3C303BB747B68DB6876
:101B48003A69DA607868FFF75BFE7B68DB78012B1F
:101B580039D13B7A052262F344033B723B7A43F066
:101B680020033B727B68DB68BA689A602BE07B686D
:101B7800DB68DB683B613B7C43F040033B747B687C
:101B8800DB683A69DA607868FFF73AFE0023FB60A1
:101B9800BB7B43F00103BB73BB7B43F00403BB7304
:101BA800BB7B43F00803BB737B685B7A002B03D0D5
:101BB800BB7B43F01003BB737B68DB68FA689A63EE
:101BC800142002F003FC7B68DB78012B10D17B68C2
:101BD800DB689B68BB603B7A052262F344033B7277
:101BE8003B7A43F020033B727B68DB68BA689A60F3
:101BF800FB7D18461837BD4680BD00BF80B485B050
:101C080000AF78600023FB730023BB603B7A43F08E
:101C180001033B727B68DB687A68D2689168BA68AE
:101C28000A439A60FB7B18461437BD465DF8047B6F
:101C3800704700BF80B485B000AF78600023FB73A5
:101C48000023BB603B7A43F001033B727B68DB688F
:101C58007A68D2689168BA68D2430A409A60FB7B76
:101C680018461437BD465DF8047B704780B586B0CA
:101C780000AF786039600023FB7400237B61002388
:101C8800FB60FB6843F02003FB603B68DBB203F0BA
:101C98001F03DAB2FB6862F38A13FB607B68DB68B8
:101CA800FA681A617B68DB681B69FB607B69013332
:101CB8007B617A69094B9A4200D906E0FB685B09A7
:101CC80003F00103DBB2012BECD0032002F05AFB36
:101CD800FB7C18461837BD4680BD00BF400D030089
:101CE80080B586B000AF78600023FB7400237B6169
:101CF8000023FB60FB6843F01003FB607B68DB6834
:101D0800FA681A617B68DB681B69FB607B690133D1
:101D18007B617A69094B9A4200D906E0FB681B0986
:101D280003F00103DBB2012BECD0032002F02AFB05
:101D3800FB7C18461837BD4680BD00BF400D030028
:101D480080B584B000AF78600B46FB700023FB734E
:101D58007B68DB68DB68BB60FB7A6FF34513FB725B
:101D6800FB7A6FF38613FB72FB78012B04D1FB7AA5
:101D780043F02003FB7206E0FB78002B03D1FB7ACB
:101D880043F04003FB727B68DB68BA68DA60322094
:101D980002F01CFBFB7B18461037BD4680BD00BF18
:101DA80080B483B000AF78607B68DB685B6903F060
:101DB800010318460C37BD465DF8047B704700BF29
:101DC80080B582B000AF78607868FFF7E9FF034616
:101DD800012B0CBF00230123DBB218460837BD4690
:101DE80080BD00BF80B485B000AF78600023FB6081
:101DF8007B68DB685B69FB607B68DB689B69FA680A
:101E08001340FB60FB6818461437BD465DF8047B39
:101E1800704700BF80B485B000AF78600B46FB7098
:101E28007B681B691B68FB60FB7803F00303DAB26D
:101E38003B7B62F301033B737B681B69FA681A609A
:101E48001437BD465DF8047B704700BF80B58CB081
:101E580000AF7860002387F82B3000237B620023D3
:101E68003B620023FB610023BB6100237B617B682D
:101E7800D3F80C3100221A607B681B691B683B622F
:101E880097F821306FF3C40387F821307B681B690A
:101E98003A6A1A607B68DB7A012B41D178680321A2
:101EA800FFF7B8FF7B68DB6880225A62FB8B202231
:101EB80062F30F03FB83BB8B802262F30F03BB83A8
:101EC8007B68DB68FA699A62BA8BFB8B13449BB216
:101ED8003B837B8B802262F30F037B837B68DB6809
:101EE800BA69C3F804213A8B7B8B13449BB23B83BA
:101EF8007B8B202262F30F037B837B68DB68BA69E4
:101F0800C3F808213A8B7B8B13449BB23B837B8BB2
:101F18006FF30F037B837B68DB68BA69C3F80C2116
:101F280078681021FFF7A2FE7868FFF7D9FE7B6872
:101F38001B6900221A617B681B6900225A617B6851
:101F48001B694FF0FF329A617B681B690022DA61D6
:101F58000023FB623AE07A68FB6A04339B0013446F
:101F68009B681B687B6297F82730C3F3C013DBB20A
:101F7800002B0ED000237B6297F8273043F04003F4
:101F880087F8273097F8273043F0080387F8273079
:101F980001E000237B627A68FB6A04339B001344E8
:101FA8009B687A6A1A607A68FB6A04339B00134458
:101FB8009B6800221A617A68FB6A04339B00134409
:101FC8009B68FF229A60FB6A0133FB627B685B783F
:101FD8001A46FB6A9A42BED80023FB6235E07A684B
:101FE800FB6A14339B0013445B681B68FB60FB7B34
:101FF800C3F3C013DBB2002B0AD00023FB60FB7BCA
:1020080043F04003FB73FB7B43F00803FB7301E0E1
:102018000023FB607A68FB6A14339B0013445B68F7
:10202800FA681A607A68FB6A14339B0013445B6889
:1020380000221A617A68FB6A14339B0013445B68B8
:10204800FF229A60FB6A0133FB627B685B781A4661
:10205800FB6A9A42C3D800237B617B7D43F001036E
:102068007B757B681B697A68126911697A69D24342
:1020780011407A690A431A617B68DB78012B1BD10E
:1020880000233B613B7C43F001033B743B7C43F002
:1020980002033B743B8A402262F38A033B82BB7C87
:1020A80043F00103BB747B8A402262F349037B82BD
:1020B8007B681B693A691A63786800F007F897F833
:1020C8002B3018463037BD4680BD00BF80B584B080
:1020D80000AF78600023FB730023BB607B68DB687C
:1020E80000229A617B68DB686FF080425A617868E9
:1020F800FFF764FB7B68DB78002B03D13B7A43F066
:1021080010033B727B7A43F008037B727B7A43F0BF
:1021180010037B727B7A43F020037B72BB7A43F017
:102128000403BB72BB7A43F00803BB723B7A43F0EB
:1021380008033B72BB7A43F01003BB72BB7A43F0CF
:102148002003BB72FB7A43F04003FB723B7A43F0F7
:1021580004033B727B68DB687A68D2689169BA6865
:10216800D2431140BA680A439A61FB7B184610377C
:10217800BD4680BD80B485B000AF78600023FB7396
:102188007B681B699B68BB603B7AC3F34103DBB286
:10219800022B09D0032B04D0012B02D00323FB739D
:1021A80005E00223FB7302E00123FB7300BFFB7B06
:1021B80018461437BD465DF8047B704780B487B075
:1021C80000AF78600023FB750023BB607B681B6948
:1021D8009B683B617B689B691B68FB603B7CC3F326
:1021E8004103DBB2022B04D0BB896FF30A03BB8126
:1021F80005E0BB89032262F30A03BB8100BF7B6849
:102208009B69FA681A607B7A43F001037B727B68EA
:102218001B697A6812695168BA68D2431140BA6872
:102228000A435A60FB7D18461C37BD465DF8047B9F
:10223800704700BF80B487B000AF78603960002372
:10224800FB740023FB600023BB603B685B78012BB9
:102258000FD13B681B787A6804339B0013449B6852
:102268007B613B681B78012202FA03F39BB23B8136
:102278000EE03B681B787A6814339B0013445B6854
:102288007B613B681B78012202FA03F39BB27B81D6
:102298007B691B68FB607B7BC3F3C013DBB2002B3D
:1022A80027D13B689B689BB2C3F30A039AB2BB89E8
:1022B80062F30A03BB813B68DB7803F00303DAB2FD
:1022C800BB7B62F38303BB733B68DB88DBB203F041
:1022D8000F03DAB2FB8962F38913FB81FB7B43F0BE
:1022E8001003FB737B7B43F080037B73FA687B6985
:1022F8001A607B681B697A681269D169BA680A43EF
:10230800DA61FB7C18461C37BD465DF8047B7047D4
:1023180080B487B000AF786039600023FB74002375
:10232800FB600023BB603B685B78012B0FD13B68E7
:102338001B787A6804339B0013449B687B613B6875
:102348001B78012202FA03F39BB23B810EE03B6843
:102358001B787A6814339B0013445B687B613B6885
:102368001B78012202FA03F39BB27B817B7B6FF31C
:10237800C7137B73FA687B691A607B681B697A6884
:102388001269D169BA68D2430A40DA61FB7C1846FF
:102398001C37BD465DF8047B704700BF80B588B028
:1023A80000AF786039600023FB770023BB6100230E
:1023B8007B6100233B613B685B78012B40F0AB807D
:1023C8003B681B787A6804339B0013449B681B683E
:1023D8007B613B681B787A6804339B0013449B68D5
:1023E8001B693B613B685B69002B09D13B696FF353
:1023F80012033B617B8A012262F3CC037B8222E0D9
:102408003B685B69C3F312023B6962F312033B61E9
:102418003B685A693B689B6813445A1E3B689B6833
:10242800B2FBF3F39BB2C3F309039AB27B8A62F35C
:10243800CC037B823B68DB78012B04D1FB7C012237
:1024480062F34613FB743B681B787A6804339B007D
:1024580013449B683A691A617B68DB78012B0AD1BF
:102468003B681B787A6804339B0013449B683A687E
:1024780012695A6115E03B68DB78012B11D03B6883
:102488005B69002B0DD03B681B78012202FA03F32D
:10249800BB617B681B697A681269516BBA690A4328
:1024A8005A633B68DB78012B14D17B681B699B68F6
:1024B800FB60FB68C3F30D239BB203F00103002B01
:1024C80004D1FB7D43F02003FB7503E0FB7D43F063
:1024D8001003FB75FB7D43F00403FB75FB7D43F0A4
:1024E8008003FB753B681B787A6804339B001344B0
:1024F8009B687A691A603B68DB78012B40F088801A
:102508003B68D9683B681A783B685B699BB2786816
:10251800FFF7BCF97CE03B681B787A6814339B00B2
:1025280013445B681B687B613B681B787A681433CB
:102538009B0013445B681B693B613B685B69002B2C
:102548000DD13B689B68C3F312023B6962F3120327
:102558003B617B8A012262F3CC037B821FE03B68EC
:102568005A693B689B6813445A1E3B689B68B2FBD8
:10257800F3F39BB2C3F309039AB27B8A62F3CC03E9
:102588007B827B8AC3F3C9039BB23A68926802FBD9
:1025980003F3C3F312023B6962F312033B613B6826
:1025A8001B787A6814339B0013445B683A691A6194
:1025B8007B68DB78012B09D13B681B787A68143378
:1025C8009B0013445B683A6812695A613B68DB7880
:1025D800012B0CD13B685B79002B04D0FB7D43F0C9
:1025E8002003FB7503E0FB7D43F01003FB75FB7DC7
:1025F80043F00403FB75FB7D43F08003FB753B68E8
:102608001B787A6814339B0013445B687A691A60F4
:10261800FB7F18462037BD4680BD00BF80B489B017
:1026280000AF786039600023FB770023BB6100238B
:102638003B610023BB603B685B78012B6FD17B68F3
:102648009B697B617B691B683B617B691B69BB601C
:102658003B685B69002B09D13B7A6FF306033B7239
:10266800BB7A012262F3C403BB7223E03B685A6958
:102678003B689B689A420ED93B689A683B685A61E6
:102688003B689B68DBB203F07F03DAB23B7A62F304
:1026980006033B7209E03B685B69DBB203F07F032A
:1026A800DAB23B7A62F306033B72BB7A012262F329
:1026B800C403BB72BA687B691A617B68DB78012B3B
:1026C80009D13B681B787A6804339B0013449B68E4
:1026D8003A6812695A61FB7C43F00403FB74FB7C83
:1026E80043F08003FB743A697B691A607B68DB7886
:1026F800002B75D13B685B69002B71D03B681B7858
:10270800012202FA03F3BA691343BB617B681B69B0
:102718007A681269516BBA690A435A6360E03B6888
:102728001B787A6814339B0013445B681B683B6111
:102738003B681B787A6814339B0013445B681B69F9
:10274800BB603B685B69002B0FD13B689B68DBB2C1
:1027580003F07F03DAB23B7A62F306033B72BB7A7B
:10276800012262F3C403BB7212E03B689A683B68BB
:102778005A613B689B68DBB203F07F03DAB23B7AAD
:1027880062F306033B72BB7A012262F3C403BB7295
:102798003B681B787A6814339B0013445B68BA68FB
:1027A8001A617B68DB78012B09D13B681B787A6852
:1027B80014339B0013445B683A6812695A61FB7CC6
:1027C80043F00403FB74FB7C43F08003FB743B6819
:1027D8001B787A6814339B0013445B683A691A6063
:1027E800FB7F18462437BD465DF8047B704700BF61
:1027F80080B487B000AF786039600023FB75002390
:10280800FB603B685B78012B1CD13B681B787A68BE
:1028180004339B0013449B683B613B691B68FB6066
:10282800FB7BC3F3C013DBB2002B03D0FB7B43F06D
:102838004003FB73BB7B43F02003BB73FA683B691F
:102848001A6011E03B681B787A6814339B001344C4
:102858005B683B613B691B68FB60BB7B43F0200303
:10286800BB73FA683B691A60FB7D18461C37BD4686
:102878005DF8047B704700BF80B487B000AF786014
:1028880039600023FB740023FB603B685B78012BF5
:1028980008D13B681B787A6804339B0013449B6813
:1028A8007B6107E03B681B787A6814339B0013440C
:1028B8005B687B617B691B68FB60BB7B6FF34513BF
:1028C800BB733B68DB78032B03D03B68DB78022BB8
:1028D80003D1FB7B43F01003FB73FA687B691A6032
:1028E800FB7C18461C37BD465DF8047B704700BF6B
:1028F80080B485B000AF78607B681B699B69FB601A
:102908007B681B69DB69FA681340FB60FB681B0C7A
:1029180018461437BD465DF8047B704780B485B00F
:1029280000AF78600B46FB70FB787A6814339B0025
:1029380013445B689B68FB607B681B695B69FA688A
:102948001340FB60FB6818461437BD465DF8047BEE
:10295800704700BF80B485B000AF78607B681B69A2
:102968009B69FB607B681B69DB69FA681340FB6045
:10297800FB689BB218461437BD465DF8047B704768
:1029880080B487B000AF786000233B61FB7C43F0E4
:10299800C003FB74BB7C012262F3C403BB743B7CA1
:1029A800182262F306033B747B685B6D3A691A610F
:1029B8007B68DB78012B16D10023FB607B685B6D9D
:1029C8007A6802F2CC525A617B685B6D1B68FB60C7
:1029D800FB7B43F08003FB734FF08023FB607B6835
:1029E8005B6DFA681A601C37BD465DF8047B70475A
:1029F80080B485B000AF78607B689B7A002B1BD0D1
:102A08007B681B699B68FB603B7BC3F30003DBB2FD
:102A1800012B11D17B6803F586731B68BB603B7A79
:102A28006FF341033B723B7A6FF300033B727B68A1
:102A3800D3F80C31BA681A601437BD465DF8047BC8
:102A4800704700BF80B483B000AF78607B68002B0C
:102A580001D0002306E07B684FF4996202FB03F281
:102A6800034B134418460C37BD465DF8047B70478A
:102A7800300A00200000000080B586B000AFC7E92A
:102A88000001D7E9000110A3D3E90023FDF7B4FE44
:102A980002460B46104619460DA3D3E90023FDF75D
:102AA800ABFE02460B46C7E90423D7E90401FEF74B
:102AB800E7F902460B46C7E90223D7E90223104685
:102AC80019461837BD4680BDFA48CE3B1835B13D8A
:102AD8000000000080842E4180B584B000AF78608B
:102AE8004FF000024FF00003C7E902237868FDF7B2
:102AF800F3FC02460B461046194609A3D3E9002306
:102B0800FDF750FD02460B46C7E90223D7E9022329
:102B1800104619461037BD4680BD00BFAFF3008090
:102B2800FA48CE3B1835B13DB0B590B000AF7860EB
:102B38007B6803F5D073D3E90023C7E90C23D7E9F1
:102B48000C23002A73F1800106DBD7E90C2300323D
:102B580063F1FF03C7E90C233B6B1846FFF7BCFF83
:102B6800C7E90601D7E9060181A3D3E90023FDF7E8
:102B780019FD02460B46C7E904238549D7E9042312
:102B8800C1E900237B6893F8C034002B1BD07B6815
:102B98001B79052B0BD1D7E9040177A3D3E90023CF
:102BA800FDF72AFE02460B46C7E90E230FE0D7E9D8
:102BB800040173A3D3E90023FDF71EFE02460B466A
:102BC800C7E90E2303E0D7E90423C7E90E237B688E
:102BD8001C79D7E90E01FDF7C7FF02467B685B79D0
:102BE800204611461A4609F0FBFA02460B46D7E979
:102BF8000401FDF723FB02460B46C7E90423D7E986
:102C080004014FF000024FF00003FDF73DFF0346BB
:102C1800002B09D1D7E904015BA3D3E90023FDF711
:102C280051FF0346002B09D05A494FF000024FF0DC
:102C38000003C1E900234FF0FF3393E05549D7E97A
:102C48000423C1E900237B6803F50873D3E9002353
:102C580010461946D7E90423FDF7F2FA02460B4657
:102C6800796801F50871C1E900237B68D3F8283237
:102C78005A1C7B68C3F828227B6803F50873D3E9DC
:102C880000457B68D3F828321846FDF725FC024634
:102C98000B4620462946FDF7AFFD02460B46C7E91D
:102CA80002233D49D7E90223C1E900237B68D3F811
:102CB8002C32591C7A68C2F82C127A683833DB0037
:102CC800D118D7E90423C1E900237B68D3F82C3253
:102CD800082B03D17B680022C3F82C227B68D3F829
:102CE8003032082B36D14FF000024FF00003C7E90D
:102CF80008230023FB6211E07A68FB6A3833DB00A3
:102D08001344D3E90023D7E90801FDF799FA0246ED
:102D18000B46C7E90823FB6A0133FB627B68D3F8DB
:102D28003022FB6A9A42E7DC7B68D3F830321846D7
:102D3800FDF7D2FB02460B46D7E90801FDF75CFD1B
:102D480002460B46C7E908231449D7E90823C1E915
:102D5800002306E07B68D3F830325A1C7B68C3F83E
:102D68003022002318464037BD46B0BDAFF300807F
:102D78000000001319DDB141295C8FC2F528F83F26
:102D8800F6285C8FC2F5F43F000000000088D340AD
:102D9800180A0020100A0020280A0020200A002013
:102DA80080B586B000AF7860396000233B7300239C
:102DB8007B730023BB730023FB7300233B74002346
:102DC8007B740023BB740023FB740023FB7530E085
:102DD800FB7D4A33DB007A681344184639680822B9
:102DE80009F0CAFA0346002B1FD0FB7D4A33DB00EB
:102DF8007A681A4407F10C0310461946082209F0AC
:102E0800BBFA0346002B11D1FB7D4A33DB007A68FD
:102E18001344184639680822FEF71EFBFB7D013370
:102E2800DAB27B6883F84E2206E005E0FB7D0133C9
:102E3800FB75FB7D002BCBD0002318461837BD4609
:102E480080BD00BF80B584B000AF0023FB600023C5
:102E58003B7100237B710023BB710023FB710023AE
:102E68003B7200237B720023BB720023FB72144A5F
:102E7800FB684FF4996101FB03F3134403F51273E4
:102E880000229A710E4AFB684FF4996101FB03F323
:102E9800134403F5127300225A71FB684FF49962C8
:102EA80002FB03F303F51472054B1A443B1D10464D
:102EB80019460822FEF7D0FA1037BD4680BD00BF7C
:102EC800300A002080B400AF084BD3F84032002B02
:102ED80005D0064B0022C3F84022012300E000235E
:102EE8001846BD465DF8047B704700BF300A0020D5
:102EF80080B400AF034BD3F844321846BD465DF8A2
:102F0800047B7047300A002080B400AF034BD3F82D
:102F180048321846BD465DF8047B7047300A0020E9
:102F280080B400AF034B93F84C321846BD465DF8A9
:102F3800047B7047300A002080B400AF084B93F838
:102F48004C32012B05D1064B002283F84C22012379
:102F580000E000231846BD465DF8047B704700BFBB
:102F6800300A002080B582B000AF00237B603D4A64
:102F78007B684FF4996101FB03F3134403F5B073C5
:102F880000221A71012002F013FC364A7B684FF4C4
:102F9800996101FB03F3134403F5B07300221A711E
:102FA800304A7B684FF4996101FB03F3134403F53E
:102FB8000C7300221A602B4A7B684FF4996101FB5D
:102FC80003F3134403F50A7300225A60254A7B6809
:102FD8004FF4996101FB03F3134403F5D8730022FE
:102FE8001A60204A7B684FF4996101FB03F313448C
:102FF80003F5D87300225A601A4A7B684FF4996126
:1030080001FB03F3134403F5DC7300221A60154A2D
:103018007B684FF4996101FB03F3134403F5DC73F8
:1030280000225A600F4A7B684FF4996101FB03F351
:10303800134403F508714FF000024FF00003C1E993
:103048000023084A7B684FF4996101FB03F313449A
:1030580003F50A7300221A60FFF7F4FE0837BD462D
:1030680080BD00BF300A002080B582B000AF0023C9
:103078007B60594A7B684FF4996101FB03F3134461
:1030880002221A70544A7B684FF4996101FB03F3DA
:10309800134403F5C47300225A704F4A7B684FF4F7
:1030A800996101FB03F3134403F50A7300225A6084
:1030B800494A7B684FF4996101FB03F3134403F514
:1030C8000C7300221A60444A7B684FF4996101FB33
:1030D80003F3134403F5D0714FF000024FF00003DF
:1030E800C1E9002302F086FB012001F087FA38606D
:1030F800032002F00FF93B68002B02D04FF0FF339A
:1031080066E00120012101F02BFBFFF72BFF324A7B
:103118007B684FF4996101FB03F3134418330122D0
:103128009A712D4A7B684FF4996101FB03F31344AC
:1031380003F5B0734DF6CA62DA80274A7B684FF40C
:10314800996101FB03F3134403F5C47300221A7059
:10315800214A7B684FF4996101FB03F3134403F59B
:10316800C47300229A7000F019FF7B684FF49962CB
:1031780002FB03F303F5AC72174B134402331846F2
:1031880001F0EEFE144A7B684FF4996101FB03F3EA
:10319800134403F5127300221A710F4A7B684FF427
:1031A800996101FB03F3134403F5D4714FF0000256
:1031B8004FF00003C1E90023074A7B684FF4996187
:1031C80001FB03F3134403F597630022DA7000232D
:1031D80018460837BD4680BD300A002080B500AFCC
:1031E80001F0FAFA0346184680BD00BF80B592B0D8
:1031F80000AF786000233B6400237B64B84A3B6CD3
:103208004FF4996101FB03F31344183300221A8029
:10321800B34A3B6C4FF4996101FB03F31344183331
:1032280000225A807B681A78AD493B6C4FF499604C
:1032380000FB03F30B441A717B685A78A8493B6C6E
:103248004FF4996000FB03F30B445A727B685A7879
:10325800A3493B6C4FF4996000FB03F30B441A72CB
:103268007B689A789E493B6C4FF4996000FB03F3A6
:103278000B445A717B68DA7899493B6C4FF4996032
:1032880000FB03F30B44DA727B681A7994493B6CB0
:103298004FF4996000FB03F30B449A717B685A79E9
:1032A8008F493B6C4FF4996000FB03F30B44DA71D0
:1032B8007B689A798A493B6C4FF4996000FB03F369
:1032C8000B449A72864A3B6C4FF4996101FB03F3F5
:1032D8001344083300221A717B681A8980493B6CB1
:1032E8004FF4996000FB03F30B440833DA803B6C1E
:1032F8004FF4996202FB03F2794B134404331846E6
:1033080001F08AFA01F020FA0346012B4CD806F0A6
:10331800E9FD07F13C031C201946012201F02EFEAD
:10332800FA6B7B689B78013B1B0122FA03F39BB283
:103338005B089AB26A493B6C4FF4996000FB03F34F
:103348000B4418331A80664A3B6C4FF4996101FBB1
:1033580003F3134418331A8861493B6C4FF499609E
:1033680000FB03F30B4418335A8007F10C031020B9
:1033780019460C2201F002FE06F0BAFD7B689B7824
:103388005A1E57493B6C4FF4996000FB03F30B44FA
:103398001B795449CB5C5B0013449B0007F148023E
:1033A800134453F83C3C7B644D4A3B6C4FF49961A1
:1033B80001FB03F3134418331B88002B20D17B68CF
:1033C8009B785A1E484B33F8122045493B6C4FF402
:1033D800996000FB03F30B4418331A80404A3B6C96
:1033E8004FF4996101FB03F3134418331A883C49DD
:1033F8003B6C4FF4996000FB03F30B4418335A807D
:10340800374A3B6C4FF4996101FB03F313441833BB
:103418001B88184601F05CFB314A3B6C4FF49961FC
:1034280001FB03F3134418331B88184601F060FBB3
:103438007B6C002B03D07B6CB3F1FF3F0ED17B6814
:103448001B781A467B689B78581E284913465B00F0
:10345800134403449B000B445B687B64204A3B6C29
:103468004FF4996101FB03F3134410337A6C5A60EB
:103478007B681B781A461D4913465B0013449B0062
:103488000B441A7816493B6C4FF4996000FB03F320
:103498000B4410331A703B6C4FF4996202FB03F330
:1034A80003F110020E4B1344184601F09FF90C4A21
:1034B8003B6C4FF4996101FB03F31344183300226A
:1034C8001A717B681B79042B06D106F00BFD0020CE
:1034D80001F000FE06F006FD4837BD4680BD00BF7E
:1034E800300A00204C01010820010108C000010831
:1034F80080B485B000AF786039600023FB600C4A67
:10350800FB684FF4996101FB03F3134420337A6895
:103518001A60074AFB684FF4996101FB03F31344EF
:1035280020333A685A601437BD465DF8047B70470B
:10353800300A002080B483B000AF054BD3F828329E
:103548007B607B6818460C37BD465DF8047B704786
:10355800300A002080B483B000AF074BD3E90023C2
:10356800C7E90023D7E90023104619460C37BD46A2
:103578005DF8047B704700BF100A002080B483B058
:1035880000AF074BD3E90023C7E90023D7E900239D
:10359800104619460C37BD465DF8047B704700BFDE
:1035A800180A002080B483B000AF074BD3E900238A
:1035B800C7E90023D7E90023104619460C37BD4652
:1035C8005DF8047B704700BF200A002080B582B0F8
:1035D80000AF78607B681B78022B06D17B680622D7
:1035E8005A70002002F084F80DE07B6801225A70BE
:1035F8007B681B78012B03D17B6802229A7002E05A
:103608007B6809229A7001F0E9FF0837BD4680BD42
:10361800B0B5CEB022AF78600023C7F8AC30002335
:1036280087F8A430002387F8A530002387F8A63050
:10363800002387F8A730002387F8A83007F1A403F0
:10364800184601F0B5FA97F8A4301A4697F8A5304D
:103658001B021A4497F8A6301B041A4497F8A7309F
:103668001B061344BB6197F8A830DAB24FF0000389
:10367800C7E90423D7E9042315000024C7E9044552
:10368800D7E90401BB691A464FF00003121843EB4F
:103698000103C7E9042397F8A8301A06BB691B0A77
:1036A8001344FB610023BB8101233B723B7A7B728D
:1036B800694607F118028823084611461A46FDF79D
:1036C800CBFE07F108030FCB00F0D4FA184AD7F85D
:1036D800AC304FF4996101FB03F3134418339B7921
:1036E800002B16D0124AD7F8AC304FF4996101FB81
:1036F80003F3134403F5D8731B685A1C0C49D7F815
:10370800AC304FF4996000FB03F30B4403F5D87316
:103718001A60074AD7F8AC304FF4996101FB03F3FC
:10372800134403F597630022DA70B037BD46B0BD85
:10373800300A002080B5CAB022AF786004233B72FB
:103748003B7A7B720023BB814FF000024FF00003ED
:10375800C7E904230023BB610023FB61694607F125
:1037680018028823084611461A46FDF775FE07F128
:1037780008030FCB00F07EFAA037BD4680BD00BF1E
:1037880080B5CCB022AF78600023C7F8A4301F4AB8
:10379800D7F8A4304FF4996101FB03F313441B7865
:1037A800012B0AD0194AD7F8A4304FF4996101FBCC
:1037B80003F313441B78032B14D104233B724423D3
:1037C8007B720023BB81694607F1180288230846EB
:1037D80011461A46FDF740FE07F108030FCB00F02B
:1037E80049FA0FE0D7F8A4304FF4996202FB03F2CC
:1037F800064B1344184600214FF000024FF0000317
:1038080003F0FAF8A837BD4680BD00BF300A002093
:10381800B0B5CEB022AF78600023C7F8A830002337
:1038280087F8A030002387F8A130002387F8A2305A
:10383800002387F8A330002387F8A430002387F8F3
:10384800AF30002387F8AE30002387F8AD3002236D
:1038580087F8AE307B689B88BB817B689B79412B5E
:1038680018D0412B02DC022B10D046E0612B11D07E
:10387800C52B42D17B689B880C2B03D1072387F883
:10388800AE303EE0632387F8AE303AE0632387F832
:10389800AE3036E07B689B887F2B02D9632387F89C
:1038A800AE307B68DB7903F0CC03882B06D1092383
:1038B80087F8AD30072387F8AF301DE07B68DB79E8
:1038C80003F0CC03CC2B06D1152387F8AD300D239C
:1038D80087F8AF3010E00F2387F8AD307B68DB79CD
:1038E80003F0CC038C2B03D10D2387F8AF3003E012
:1038F800072387F8AF3004E003E0632387F8AE308E
:1039080000BF97F8AE30072B03D097F8AE30022BE4
:103918003DD107F1A003184601F058F997F8A030F7
:103928001A4697F8A1301B021A4497F8A2301B04D4
:103938001A4497F8A3301B061344BB6197F8A430C8
:10394800DAB24FF00003C7E90423D7E904231500CE
:103958000024C7E90445D7E90401BB691A464FF0BA
:103968000003121843EB0103C7E9042397F8A430B6
:103978001A06BB691B0A1344FB617B689B8807F125
:103988000802183210461946002201F0FDF897F88F
:10399800AE303B723B7A7B7297F8AE30022B40F028
:1039A8000581A04AD7F8A8304FF4996101FB03F3C9
:1039B800134403F512739B79002B00F0C58097F828
:1039C800AD3007F1B002134413F8903C212B00D01E
:1039D800BAE00023A7F8A630D7E904239148D7F81E
:1039E800A8104FF4996404FB01F1014401F5C0717A
:1039F800C1E900238B4AD7F8A8304FF4996101FB3D
:103A080003F31344583300221A602023A7F8A63082
:103A1800D7F8A8304FF4996202FB03F303F1D802F8
:103A2800804B134403F10C0297F8AF3007F10801FB
:103A380018330B44104619460822FDF70DFDD7F838
:103A4800A8304FF4996202FB03F303F1EC02754BC3
:103A5800134403F10C02D7F8A8304FF4996101FB25
:103A680003F303F5D0716F4B0B441046194605223A
:103A7800FDF7F2FC6B4AD7F8A8304FF4996101FBC7
:103A880003F3134403F5D0714FF000024FF0000325
:103A9800C1E90023634AD7F8A8304FF4996101FBC4
:103AA80003F3134403F5B0731B795A1CD1B25D4874
:103AB800D7F8A8204FF4996404FB02F2024402F5F7
:103AC800B07211715749D7F8A8204FF4996000FBDC
:103AD80002F20A44D8325372524AD7F8A8304FF447
:103AE800996101FB03F3134440335B68184601F006
:103AF8000FFB4C4AD7F8A8304FF4996101FB03F348
:103B0800134403F5C47302221A70B7F8A630184696
:103B18000021012201F01AF8D7F8A8304FF4996271
:103B280002FB03F303F1D8023E4B13440733B7F803
:103B3800A62010461946002200F0E8FF022001F0F6
:103B4800F5FC0C23BB7200BF694607F118028823F5
:103B5800084611461A46FDF77FFC07F108030FCB0C
:103B680000F088F82F4AD7F8A8304FF4996101FB84
:103B780003F3134418339B79002B50D0294AD7F804
:103B8800A8304FF4996101FB03F3134403F5D8738C
:103B98005B685A1C2349D7F8A8304FF4996000FB9A
:103BA80003F30B4403F5D8735A6038E097F8AE3046
:103BB800072B31D1694607F11802882308461146B8
:103BC8001A46FDF749FC07F108030FCB00F052F83D
:103BD800144AD7F8A8304FF4996101FB03F3134452
:103BE80018339B79002B1AD00E4AD7F8A8304FF417
:103BF800996101FB03F3134403F5D8735B685A1CFE
:103C08000849D7F8A8304FF4996000FB03F30B4438
:103C180003F5D8735A6002E07868FFF7B1FDB03752
:103C2800BD46B0BD300A002080B483B000AF002389
:103C38007B600F4A7B684FF4996101FB03F31344DF
:103C480003F597639B781946094A7B68982000FB1F
:103C580001F14FF4996000FB03F30B44134403F59F
:103C680016731B7818460C37BD465DF8047B704701
:103C7800300A002084B080B582B000AF07F1100C84
:103C88008CE80F0000237B603B7CFB7000233B74B7
:103C9800364A7B684FF4996101FB03F3134403F53B
:103CA80097635B781946314A7B68982000FB01F1DD
:103CB8004FF4996000FB03F30B44134403F51673A8
:103CC800194607F110029823084611461A46FDF7CF
:103CD800C3FB264A7B684FF4996101FB03F3134445
:103CE80003F597635B781946204A7B68982000FBA8
:103CF80001F14FF4996000FB03F30B44134403F5FF
:103D08001673FA781A70194A7B684FF4996101FBA7
:103D180003F3134403F597635B780133DAB213496D
:103D28007B684FF4996000FB03F30B4403F597633A
:103D38005A700E4A7B684FF4996101FB03F31344F0
:103D480003F597635B78042B0AD1084A7B684FF424
:103D5800996101FB03F3134403F5976300225A703A
:103D68000837BD46BDE8804004B07047300A0020DF
:103D780080B584B000AF78600023FB60854AFB689B
:103D88004FF4996101FB03F3134403F597631B7820
:103D9800BB60804AB968FB68982000FB01F14FF4CA
:103DA800996000FB03F30B44134403F516731B7867
:103DB800002B07D1784B00221A70774B00225A70DB
:103DC800754BE2E0734AB968FB68982000FB01F183
:103DD8004FF4996000FB03F30B44134403F5167387
:103DE8005A786D4B5A706B4AB968FB68982000FB8B
:103DF80001F14FF4996000FB03F30B44134403F5FE
:103E080016739A78644B9A70624AB968FB6898206E
:103E180000FB01F14FF4996000FB03F30B441344DA
:103E280003F516739A885C4B9A805A4AB968FB68FE
:103E3800982000FB01F14FF4996000FB03F30B4459
:103E4800134403F51873D3E900235349C1E9022346
:103E5800504AB968FB68982000FB01F14FF499605B
:103E680000FB03F30B44134403F51A731A684A4B17
:103E78001A61484AB968FB68982000FB01F14FF4C1
:103E8800996000FB03F30B44134403F51A735A6853
:103E9800414B5A61BB68982202FB03F2FB684FF45E
:103EA800996101FB03F3134403F51C72394B134466
:103EB800394A02F118011A467F23084611461A4664
:103EC800FDF7CAFA334AB968FB68982000FB01F18C
:103ED8004FF4996000FB03F30B44134403F5167386
:103EE8001A782D4B1A702B4AB968FB68982000FB8A
:103EF80001F14FF4996000FB03F30B44134403F5FD
:103F0800167300221A70234AFB684FF4996101FB6B
:103F180003F3134403F597631B780133DAB21D49A1
:103F2800FB684FF4996000FB03F30B4403F59763B8
:103F38001A70184AFB684FF4996101FB03F31344A4
:103F480003F597631B78042B0AD1124AFB684FF4D8
:103F5800996101FB03F3134403F5976300221A7078
:103F68000C4AFB684FF4996101FB03F3134403F512
:103F780097631A780749FB684FF4996000FB03F3CD
:103F88000B4403F597639A70034B18461037BD46E8
:103F980080BD00BF300A0020C00F002080B582B06D
:103FA80000AF00237B6000233B6000237B6015E0AB
:103FB8007B68982202FB03F23B684FF4996101FB8E
:103FC80003F3134403F51672184B134418460021E3
:103FD8009822FDF7DFFA7B6801337B607B68032B4F
:103FE800E6DD124A3B684FF4996101FB03F3134481
:103FF80003F5976300225A700C4A3B684FF49961A5
:1040080001FB03F3134403F5976300221A70074A70
:104018003B684FF4996101FB03F3134403F597637D
:1040280000229A700837BD4680BD00BF300A0020C4
:1040380090B5CDB022AF0023C7F89C300023C7F855
:10404800A430FFF7F1FDC7F8A00011E0D7F89C30C5
:104058004FF4996202FB03F2654B13441846D7F8F4
:10406800A01002F013FDC7F8A4000023C7F8A03081
:10407800D7F8A430002BE9D0D7F8A430022B6FD1A1
:104088005B4AD7F89C304FF4996101FB03F3134462
:104098001B78012B2CD1564AD7F89C304FF49961E4
:1040A80001FB03F3134403F5C8731A685049D7F8A2
:1040B8009C304FF4996000FB03F30B4420331B68DA
:1040C8001A444B49D7F89C304FF4996000FB03F32E
:1040D8000B4403F5C4735A60454AD7F89C304FF433
:1040E800996101FB03F3134403F5C47301229A7029
:1040F8003F4AD7F89C304FF4996101FB03F313440E
:104108001B78032B2CD13A4AD7F89C304FF499618D
:1041180001FB03F3134403F5C4735A683449D7F811
:104128009C304FF4996000FB03F30B4420335B6829
:104138001A442F49D7F89C304FF4996000FB03F3D9
:104148000B4403F5C4735A60294AD7F89C304FF4DE
:10415800996101FB03F3134403F5C47301229A70B8
:10416800234AD7F89C304FF4996101FB03F31344B9
:1041780003F5C4739B78012B2ED11D4AD7F89C30C8
:104188004FF4996101FB03F3134403F5C4735C68AE
:1041980005F0EAFA03469C421ED2154AD7F89C302D
:1041A8004FF4996101FB03F3134403F5C473002230
:1041B8009A700023BB8004233B7084237B7069467C
:1041C80007F110028823084611461A46FDF744F9FC
:1041D8003B460FCBFFF74EFDD7F8A430002B0CBFA2
:1041E80000230123DBB21846AC37BD4690BD00BFA3
:1041F800300A002080B483B000AF02460B46FA8034
:10420800BB80074BFA881A83054BBA885A83044B3C
:1042180001221A770C37BD465DF8047B704700BF52
:10422800300A002080B500AF084B1B7F012B0CD152
:10423800064B5B8B184600F04BFC044B1B8B184657
:1042480000F056FC014B00221A7780BD300A00208E
:1042580080B400AF034B1B8B1846BD465DF8047B4A
:10426800704700BF300A002080B400AF034B5B8B5F
:104278001846BD465DF8047B704700BF300A002031
:1042880080B400AFBD465DF8047B704780B483B04E
:1042980000AF0346FB71FB79002B01D0012B00E036
:1042A80000BF0C37BD465DF8047B704780B400AF93
:1042B800BD465DF8047B704780B400AFBD465DF82D
:1042C800047B704780B400AFBD465DF8047B70473F
:1042D80080B400AFBD465DF8047B704780B400AF82
:1042E800BD465DF8047B704780B584B000AF786048
:1042F8004FF40073BB810423FB730323BB7307F1E3
:104308000C031348194601F099FB4FF48063BB81F5
:104318004823FB730323BB7307F10C030C481946AE
:1043280001F08CFB4FF4C053BB811023FB730323B4
:10433800BB7307F10C030648194601F07FFB4FF4E5
:104348008050012102F03CFA1037BD4680BD00BF05
:104358000008014080B584B000AF78604FF4A060D9
:1043680007F006FB43233B7301237B730323BB73D3
:104378000123FB7307F10C03184607F00BFB1037FA
:10438800BD4680BD80B485B000AF78600023FB6077
:104398007A6813461B019B1ADB001A460A4BA3FBDB
:1043A8000213D21A520813449B08BB60FB680133FE
:1043B800FB60FA68BB689A4200D900E0F6E7143758
:1043C800BD465DF8047B70472549922480B582B0CC
:1043D80000AF78607B684FF47A7202FB03F31846EB
:1043E800FFF7D0FF0837BD4680BD00BF80B5A2B03B
:1043F80000AF7860114B07F108011A467F23084681
:1044080011461A46FDF728F805F06CFD7B6818463A
:1044180001F02AFA07F108037F201946002200F06C
:1044280075FB7F200021002200F090FB002001F0A6
:104438007DF8002318468837BD4680BDA4FD0008D6
:1044480080B500AF194B194A126842F001021A6090
:10445800164A164B5968164B0B405360134A134BB8
:104468001B6823F0847323F4803313600F4B0F4AC7
:10447800126822F480221A600C4B0C4A526822F40B
:10448800FE025A60094B094A126822F0A0521A60CB
:10449800064B4FF47F029A60044B0022DA6200F068
:1044A8000BF8044B4FF000629A6080BD0010024088
:1044B8000000FFF000ED00E080B500AF00F002F86A
:1044C80080BD00BF80B483B000AF00237B600023B1
:1044D8003B60474B464A126842F480321A60444BAC
:1044E8001B6803F400333B607B6801337B603B68E7
:1044F800002B03D17B68B3F5A06FF0D13C4B1B6850
:1045080003F40033002B02D001233B6001E00023B9
:104518003B603B68012B66D1364B364A126842F045
:1045280010021A60334B334A126822F003021A60F1
:10453800304B304A126842F002021A602C4B2C4A67
:1045480052685A602A4B2A4A52685A60284B284AAD
:10455800526842F480625A60254A254BD96A264B34
:104568000B40D362224A224BDB6A43F4833343F085
:104578004403D3621E4B1E4A126842F080621A60DE
:1045880000BF1B4B1B6803F00063002BF9D0184BCE
:10459800174A526822F47C125A60154B144A526822
:1045A80042F4E8125A60124B114A126842F08072C3
:1045B8001A6000BF0E4B1B6803F00073002BF9D084
:1045C8000B4B0B4A526822F003025A60084B084A08
:1045D800526842F002025A6000BF054B5B6803F064
:1045E8000C03082BF9D10C37BD465DF8047B7047E6
:1045F800001002400020024000F0FEFF80B586B0A7
:1046080000AF0346FB800023FB8200233B614C4B39
:1046180000225A744A4B00229A76494B00221A8388
:10462800474B00229A62464B0022DA62444B002232
:104638001A63434B00225A6300F0CEF80246414BFE
:104648009A4202D04FF0FF3376E001F0D3F8002011
:1046580000F0BCFE24200021042200F0DBFB1E2019
:1046680000F0B4FC0346FB82FB8A1B0A9BB2DAB259
:10467800334B5A72042000F0A9FC38613B69DBB265
:10468800002B0BD02D201221022200F0C3FB2C4B53
:104698001B8B43F480539AB2294B1A83062000F0EF
:1046A80095FC0246264B1A60072000F08FFC024654
:1046B800234B5A60FB8ADBB203F01F03DAB2204BAC
:1046C8001A741F4B1B7C002B02D11D4B10221A742D
:1046D8001B4B1B7C184601F0B1F8FB8803F0010363
:1046E800002B09D000F0E4FC154B1B8B43F400634E
:1046F8009AB2134B1A830FE03620052100F056FBBF
:104708000346FB81FB8923F40073FB81FB89362078
:1047180005211A4600F092FB012000F057FE2C20DC
:104728000A21002200F076FB0420002100F014FB8F
:104738000246034B5A61002318461837BD4680BD10
:10474800F80E00203001CADE80B400AF034B5B7A5C
:104758001846BD465DF8047B704700BFF80E002080
:1047680080B584B000AF786039602620002100F061
:10477800F3FAF860FB6823F47C23FB607B68002B6A
:1047880003D0FB6843F48023FB603B68002B03D015
:10479800FB6843F4A033FB6026200021FA6800F090
:1047A8006BFB1037BD4680BD80B400AF034B1B6860
:1047B8001846BD465DF8047B704700BFF80E002020
:1047C80080B400AF034B5B681846BD465DF8047BB8
:1047D800704700BFF80E002080B500AF0020002110
:1047E80000F0BAFA0346184680BD00BF80B582B013
:1047F80000AF78607B681B782A200B211A4600F0EE
:1048080009FB7B685B681E2000211A4600F034FB18
:104818000837BD4680BD00BF80B586B000AF786060
:104828000023FB750023BB757B681B78FB747B68D2
:104838005B791A469A4B33F81230BB827B685B78F7
:10484800013BBB74FB7C042B02D0FB7C072B01D102
:10485800012300E000237B747B68DB79002B09D1FE
:10486800904B5B6943F480028E4B5A61BB8ADB082C
:10487800BB8205E08B4B5B6923F48002894B5A614C
:104888007B681A7A874B1A72864B5B6923F440322D
:10489800844B5A61834B5A697B681B7A1B0403F467
:1048A80040331A437F4B5A617E4B5B6904200021D9
:1048B8001A4600F0E1FABB8A2E2042F604011A4695
:1048C80000F0BCFABB7C184600F0D2FBFB7C764AB1
:1048D800D35C1A46754B53F822302B2007211A4611
:1048E80000F0CAFAFB7C704AD35C714AD35C2B2077
:1048F8000B211A4600F08EFA7B7C6E4AD35C282086
:104908000B211A4600F086FAFB7C674AD35C1A46EC
:10491800694B53F8223028200C211A4600F0ACFAD3
:104928007B68DB7919467B689B791A46634B49009B
:104938000A4433F81230272002211A4600F07EFA82
:10494800BA7C5F4B33F81230272004211A4600F056
:1049580075FA7B68DB79002B05D1272006216422B4
:1049680000F06CFA18E07B689B78042B0AD12720AA
:104978000621102200F062FA27202621102200F0DA
:1049880049FA09E027200621202200F057FA2720BB
:104998002621282200F03EFAB97C7B68DB781A468B
:1049A800484B89000A4453F82230272008211A4628
:1049B80000F062FA7B685B89002B03D17B6841F2C7
:1049C80041025A817B685B89272020211A4600F022
:1049D80035FA3D4B1B6823200C211A4600F04CFA8F
:1049E800BB7C394A5B0013449B88232004211A4668
:1049F80000F024FA7B689B79002B0CD07B68DB796C
:104A0800324AD35C212000211A4600F003FA03231E
:104A1800FB750123BB75FB7C03F00F02FB7C1B01BC
:104A2800DBB21A437B685B789B0403F440231A4388
:104A3800FB7D1B0503F440131A43BB7D5B0403F4A1
:104A480000331A437B681B799B0503F0F8631A430C
:104A58007B685B79DB061343FB601F200021FA6843
:104A680000F00AFA7B689A787B685B781343DBB2BC
:104A78001A047B68DB795B0313431A46094BDA6037
:104A8800084BDB68082000211A4600F0F5F90D20D4
:104A98000021422200F0BEF91837BD4680BD00BF94
:104AA800CC010108F80E00204C0101086C01010836
:104AB800840101088C010108540101089C010108C6
:104AC800A8010108AC01010890010108980101083A
:104AD80080B582B000AF0346FB80FB882E2041F6EC
:104AE80004011A4600F0AAF90837BD4680BD00BF88
:104AF80080B582B000AF0346FB80FB8818200021F8
:104B08001A4600F09BF90837BD4680BD80B582B0D3
:104B180000AF396013460246FA80BB80BA88FB882A
:104B28001344B3F5806F0ADCFB88023BBA8809207E
:104B380011461A463B6800F057F8002301E04FF091
:104B4800FF3318460837BD4680BD00BF80B584B026
:104B580000AF0B463A600246FA80BB80094BDA6820
:104B6800FB881A43BB889B051A433B68DB03134346
:104B7800FB6008200021FA6800F07EF91037BD4676
:104B880080BD00BFF80E002080B582B000AF78600D
:104B980013460A467A803B807B883A881120114662
:104BA8001A467B6800F07EF80837BD4680BD00BF16
:104BB80080B582B000AF78601720002105227B689D
:104BC80000F070F80837BD4680BD00BF80B582B0E0
:104BD80000AF78601520002105227B6800F062F89C
:104BE8000837BD4680BD00BF80B586B000AFBA604B
:104BF8007B600346FB810B46BB8100237B61BB893D
:104C0800002B0DD17B695A1C7A61FA89D2B262F005
:104C18007F02D2B207F118010B4403F8082C33E0E5
:104C28007B695A1C7A61FA89D2B262F03F02D2B229
:104C380007F118010B4403F8082CBB897F2B0AD80D
:104C48007B695A1C7A61BA89D2B207F118010B4400
:104C580003F8082C18E07B695A1C7A61BA89D2B229
:104C680062F07F02D2B207F118010B4403F8082C56
:104C78007B695A1C7A61BA89D20992B2D2B207F119
:104C880018010B4403F8082C7B699AB207F110034A
:104C980010461946BA687B6800F012FE1837BD4600
:104CA80080BD00BF80B586B000AFBA607B600346A8
:104CB800FB810B46BB8100237B61BB89002B0AD19A
:104CC8007B695A1C7A61FA89D2B207F118010B4440
:104CD80003F8082C33E07B695A1C7A61FA89D2B24E
:104CE80042F04002D2B207F118010B4403F8082C35
:104CF800BB897F2B0AD87B695A1C7A61BA89D2B2E0
:104D080007F118010B4403F8082C18E07B695A1CBA
:104D18007A61BA89D2B262F07F02D2B207F1180181
:104D28000B4403F8082C7B695A1C7A61BA89D209AA
:104D380092B2D2B207F118010B4403F8082C7B6930
:104D48009AB207F1100310461946BA687B6800F05A
:104D5800F1FD1837BD4680BD80B586B000AF7860DC
:104D6800396000237B617B6899B23B689AB207F18E
:104D78000C03084611460422FFF794FF03233B6106
:104D88000BE07B691A0207F10C013B690B441B78A5
:104D980013447B613B69013B3B613B69002BF0DAC3
:104DA8007B6918461837BD4680BD00BF80B584B002
:104DB80000AF786039600023FB817B6899B23B685B
:104DC8009AB207F10C03084611460222FFF76AFF60
:104DD8007B7B1B029AB23B7B1344FB81FB89184601
:104DE8001037BD4680BD00BF80B584B000AF786085
:104DF80039607B6899B23B689AB207F10F0308469D
:104E080011460122FFF74EFFFB7B18461037BD46BF
:104E180080BD00BF80B584B000AFF860B9601346AC
:104E2800FB71FB6899B2BB689AB2FB1D0846114634
:104E38000122FFF7D9FE1037BD4680BD80B586B088
:104E480000AFF860B9601346FB80FB88DBB23B75A6
:104E5800FB881B0A9BB2DBB27B75FB6899B2BB6807
:104E68009AB207F11403084611460222FFF7BCFE66
:104E78001837BD4680BD00BF80B586B000AFF8606A
:104E8800B9607A6000237B610CE07B68DAB207F1D5
:104E980010017B690B441A707B681B0A7B607B6975
:104EA80001337B617B69032BEFDDFB6899B2BB683B
:104EB8009AB207F11003084611460422FFF794FE40
:104EC8001837BD4680BD00BF80B584B000AF03462B
:104ED800FB8004200021FFF73FFF034623F07B639C
:104EE80023F40023FB60FB88002B0CD0FB6823F421
:104EF800FF73FB60FB8803F4FF72FB68134343F006
:104F08000103FB6003E0FB6823F00103FB60054B32
:104F1800FA685A6104200021FA68FFF7ADFF1037DC
:104F2800BD4680BDF80E002080B582B000AF0346B4
:104F3800FB80FB88032002211A46FFF77FFF083712
:104F4800BD4680BD80B582B000AF786001200021E9
:104F580008227B68FFF748FE0837BD4680BD00BFC2
:104F680080B582B000AF78600120002108227B68FC
:104F7800FFF798FE0837BD4680BD00BF90B587B0E3
:104F880000AFF860B9601346FB71002000F01EFA0C
:104F980000237B610EE07B699B00BA68D4187A69AC
:104FA800FB681344184600F011F8034623607B6938
:104FB80001337B61FA797B699A42ECDC012000F0CD
:104FC80005FA00BF1C37BD4690BD00BF80B584B050
:104FD80000AF78607B689BB22D2004211A46FFF74A
:104FE8002DFF2D2006210322FFF714FF2D20062177
:104FF8000022FFF70FFF2D200A21FFF7ADFEF86012
:10500800FB6818461037BD4680BD00BF80B500AFAD
:105018002C2002210022FFF7FDFE2C200221022273
:10502800FFF7F8FE80BD00BF80B500AFFFF7EEFFC9
:1050380080BD00BF80B582B000AF02460B46FA8043
:105048007B710A4B1A8BFB881343FB80FB882C204F
:1050580000211A46FFF7F2FE7B792C2006211A461A
:10506800FFF7D8FE0837BD4680BD00BFF80E002008
:1050780080B582B000AF78602E2040F606016D2220
:10508800FFF7C8FE7B68002B07D02E2041F60601EB
:1050980040F20762FFF7D2FE06E02E2041F6060135
:1050A80041F20762FFF7CAFE0837BD4680BD00BF60
:1050B80080B500AF0E2000F089F92D2006214FF4AD
:1050C8000042FFF7BBFE012003F04CFD012000F079
:1050D8007DF980BD80B584B000AF0346FB71FB79D4
:1050E8005B019BB203F060039BB243F001039BB2E8
:1050F800FB810E2000F06AF9FB892D2012211A4647
:10510800FFF79CFE012000F061F91037BD4680BD15
:1051180080B584B000AF78601A200021FFF71CFE2C
:10512800F860FB681B0D1B05FB607B68C3F313036A
:10513800FA681343FB601A200021FA68FFF79CFE07
:105148001037BD4680BD00BF80B485B000AFF860A1
:10515800B9607A603B60084BFA689A62064BBA6895
:10516800DA62054B7A681A63034B3A685A63143754
:10517800BD465DF8047B7047F80E002080B584B00A
:1051880000AF0F200021FFF7E7FD02465D4BDA6113
:105198005C4BDB69BB60BB6803F48043002B5CD0CD
:1051A8000F2000214FF4DE42FFF766FE554B002228
:1051B80083F8242010200021FFF7F8FD0346FB8028
:1051C800FB88C3F30903FB814E4B1B7A002B03D1E9
:1051D800FB8903F07F03FB814A4BFA891A84FB8819
:1051E8001BB2002B08DA474B93F8243043F0010335
:1051F800DAB2444B83F82420112000210222424BCA
:10520800FFF750FDBB6803F00803002B14D03D4B9B
:1052180093F8223003F02003002B0DD10F2000213A
:105228000822FFF729FE374BDB6923F00802354BCC
:10523800DA61344B00229A76324BDB6A002B03D0BA
:10524800304BDB6A314898472E4B5B7C002B04D0EF
:105258000D2003210122FFF7DDFDBB6803F0800369
:10526800002B19D00F200021F822FFF705FEBB689C
:1052780003F00803002B07D0224B9B7E002B03D0A2
:1052880000F0ACF900F0A8FA1E4B9B6A002B03D083
:105298001C4B9B6A1D489847BB6803F40813002BF6
:1052A80014D00F2000214FF40032FFF7E5FD154B15
:1052B80000229A7600F092F900F08EFA114B1B6BDF
:1052C800002B03D00F4B1B6B10489847BA68104B44
:1052D8001340002B13D00F2000210D4AFFF7CCFDFF
:1052E800084B00229A7600F079F900F075FA054B20
:1052F8005B6B002B03D0034B5B6B0448984710375C
:10530800BD4680BDF80E00201A0F0020140F0020A3
:105318000090052480B584B000AF0346FB71FB798B
:1053280003F00103002B3FD026200021FFF714FDD6
:10533800F860FB6823F47053FB60FB6843F4A053E8
:10534800FB6026200021FA68FFF796FD3620002131
:10535800FFF702FDF860FB6843F40403FB603620A6
:105368000021FA68FFF788FD4FF48873FB60FB792A
:1053780003F00203002B03D0FB6843F47023FB60A7
:1053880036202821FA68FFF777FDFB7903F002033E
:10539800002B17D0FB6823F47023FB6036202821EC
:1053A800FA68FFF769FD0DE026200021FFF7D4FC1D
:1053B800F860FB6823F47053FB6026200021FA682C
:1053C800FFF75AFD1037BD4680BD00BF80B584B0D9
:1053D80000AF786007F10C03362000210222FFF7A6
:1053E80061FC7B680E2B76D801A252F823F000BF2F
:1053F80045540008355400085B540008DF54000881
:10540800DF540008DF540008DF5400087154000816
:1054180091540008DF540008DF540008A75400081E
:10542800B3540008BF540008D554000800233B7348
:105438007B7B23F00103DBB27B734DE03B7BDBB26C
:1054480023F00303DBB243F00103DBB2DBB23B73AF
:1054580042E03B7BDBB223F00303DBB243F0020301
:10546800DBB2DBB23B7337E03B7BDBB223F04C03B0
:10547800DBB243F04803DBB2DBB23B737B7B63F008
:105488007F03DBB27B7327E03B7B23F04C03DBB26B
:105498003B737B7B03F07F03DBB27B731CE07B7B7E
:1054A80043F00203DBB27B7316E07B7B23F002033D
:1054B800DBB27B7310E03B7BDBB223F03003DBB263
:1054C80043F02003DBB2DBB23B7305E001233B73FF
:1054D80003237B7300E000BF07F10C033620002193
:1054E8000122FFF781FB07F10C030133362001216C
:1054F8000122FFF779FB1037BD4680BD80B500AFAC
:105508000020FFF763FF362004210022FFF796FCF6
:1055180080BD00BF80B582B000AF78600A2001214D
:105528007A68FFF7A9FC0837BD4680BD80B584B00E
:1055380000AF0346FB710023FB600023FB720023CE
:105548003B81FB7903F00203002B0AD08023FB7216
:10555800FB7A0D2000211A46FFF75CFC1E4B012246
:105568009A76FB7903F00103002B26D0FB7A43F0EF
:105578000603FB72FB7A0D2000211A46FFF74AFC4E
:105588000F200321FFF712FC03463B813B8903F4FC
:105598008163002B02D10023FB6018E04023FB72DB
:1055A800FB7A0D2000211A46FFF734FC0A4B002233
:1055B8009A764FF0FF33FB6009E0FB7A43F0020371
:1055C800FB72FB7A0D2000211A46FFF723FCFB68CB
:1055D80018461037BD4680BDF80E002080B582B051
:1055E80000AF0E200021FFF7B7FB786002F076FFCE
:1055F80038600E2000210022FFF73EFC0D2000211C
:105608004022FFF707FC0F200021094AFFF734FC6E
:1056180000F012F80E2000217A68FFF72DFC386898
:1056280002F06EFF034B00229A760837BD4680BD14
:10563800F8FF2724F80E002080B582B000AF0F20B5
:105648000321FFF7D1FB0346FB71FB7903F08002CE
:10565800FB7903F040035B009A4204D00D2003213C
:105668000122FFF7D7FB0837BD4680BD80B584B05F
:1056780000AF78607B6803F00403002B01D1FFF7CB
:10568800DBFF4FF48073FB817B6803F00103002B81
:1056980003D0FB8943F40073FB81FB890D200021B3
:1056A8001A46FFF7CBFB7B6803F00103002B1AD0E7
:1056B8000F200321FFF798FB03467B737B7B03F0E6
:1056C8000803002B0FD0FFF789FF7B6803F0020364
:1056D800002B05D10D2000214FF48072FFF7AEFB9F
:1056E8004FF0FF3300E0002318461037BD4680BD59
:1056F80080B584B000AF0346FB8004200321FFF788
:1057080073FB0346FB73FB88002B16D0FB880C2029
:1057180000211A46FFF792FBFB7B43F01003FB7353
:105728000F4B5B6943F080520D4B5A61FB7B0420A1
:1057380003211A46FFF76EFB0FE0FB7B23F01003F3
:10574800FB73074B5B6923F08052054B5A61FB7B67
:10575800042003211A46FFF75DFB1037BD4680BDC4
:10576800F80E002080B584B000AF78600B46FB705F
:1057780002F0B4FEB8600E200021FFF7EDFAF860E1
:10578800FB78002B04D0FA687B681343FB6004E0C5
:105798007B68DB43FA681340FB600E200021FA683F
:1057A800FFF76AFBB86802F0ABFE1037BD4680BD54
:1057B80080B582B000AF78602F2000210222FFF769
:1057C80029FB7B68002B04D02F2000210122FFF742
:1057D80021FB0837BD4680BD80B500AF36200321C8
:1057E800E022FFF717FB36200321F022FFF712FB18
:1057F80080BD00BF80B500AFFFF780FE2C200021E0
:105808000022FFF71BFB2C2006210022FFF702FBDA
:10581800FFF7FCFB362003210022FFF7FBFA0120EB
:1058280003F0A0F936200321F022FFF7F3FA024B28
:1058380000229A7680BD00BFF80E002080B584B0A3
:1058480000AF0346FB71FB7903F01F03DBB243F0A3
:105858006003DBB2FB73FB7B2B200E211A46FFF79C
:10586800D9FA1037BD4680BD80B582B000AF7860E8
:10587800FFF744FE282000214FF4FF12FFF7FCFA3F
:10588800282000210D4AFFF7F7FA0220FFF79EFDB6
:105898000D20FFF79BFD7B68032B01D804237B6059
:1058A8000A2000217A68FFF7E7FA2F202421102226
:1058B800FFF7B0FA0837BD4680BD00BF00FF5F00A4
:1058C8002DE9704F9046994682468B4602F006FEB7
:1058D800164B10225A61BAF1000F0CD0144D002655
:1058E8002B461BF80640AC812C89E107FCD5013614
:1058F80056459A89F5DBB8F1000F0ED00C4C002103
:1059080023460D4619F80110A1812189CA07FCD543
:10591800013545459A892946F4D1044B10221A616C
:1059280002F0EEFD0020BDE8708F00BF00080140C6
:10593800003001402DE9704F9146984682468B46CB
:1059480002F0CCFD184B10225A61BAF1000F0ED0AC
:10595800164D00262A461BF80630AB812C89E10734
:10596800FCD593890136564588F80030F3DBB9F148
:10597800000F10D00D4C002622463546B646A4F836
:105988000CE02189CB07FCD5013593894D4508F8F2
:1059980006302E46F3D1044B10221A6102F0B0FDF6
:1059A8000020BDE8708F00BF0008014000300140B2
:1059B8002DE978410546164671BB012831D0884645
:1059C80004F0A6FA1B484FF4805100F01BF995B17A
:1059D80000231C46F15C184806F012FB164801210A
:1059E80006F04AFB0028F9D00134134806F016FBEC
:1059F800AC422346EED104F08BFA0E484FF48051A6
:105A080000F0F2F8B8F1000F01D1BDE8788102206A
:105A1800BDE8784103F0F0BE04F070FA4FF00008DA
:105A2800D0E792F8008018F0030818BF4FF001087B
:105A3800C6E700BF000C01400038004080B489B0C0
:105A480000AF786039600023FB6100233B610023CD
:105A5800BB610023FB6000237B610023BB603B68C4
:105A6800DB7803F00F03FB613B68DB7803F010037E
:105A7800002B04D03B689B78FA691343FB613B68B1
:105A88001B88DBB2002B44D07B681B687B6100233A
:105A9800BB6138E0BB69012202FA03F3FB603B6893
:105AA8001B881A46FB6813403B613A69FB689A42B7
:105AB80026D1BB699B00FB60FB680F2202FA03F347
:105AC800BB60BB68DB437A6913407B61FB68FA699A
