:020000040800F2
:1000000000000120516300082D8A0008758A00084D
:10001000958A00089D8A0008A58A00080000000053
:10002000000000000000000000000000AD8A000891
:10003000B98A000800000000C58A0008ED8A00089F
:10004000A1630008A1630008A1630008D18A000829
:10005000A1630008A1630008198B0008A1630008D0
:10006000A1630008298B0008A1630008A1630008B0
:10007000A1630008A1630008A1630008A163000850
:10008000A1630008A1630008A1630008A163000840
:10009000A1630008A1630008A1630008398B000870
:1000A000A1630008A1630008A1630008A163000820
:1000B000A1630008A1630008A1630008A163000810
:1000C000A1630008A1630008A1630008A163000800
:1000D000A1630008A1630008A1630008A1630008F0
:1000E000098B0008A1630008498B0008000000008C
:1000F0000000000000000000000000000000000000
:100100000000000000000000A1630008A1630008D7
:10011000A1630008A1630008A1630008A1630008AF
:10012000A1630008A1630008A1630008A16300089F
:10013000A1630008A1630008A1630008A16300088F
:10014000A1630008A1630008A16300087D8B00087B
:10015000000000000000000000000000000000009F
:10016000000000000000000000000000000000008F
:10017000000000000000000000000000000000007F
:10018000000000000000000000000000000000006F
:10019000000000000000000000000000000000005F
:1001A000000000000000000000000000000000004F
:1001B000000000000000000000000000000000003F
:1001C000000000000000000000000000000000002F
:1001D000000000000000000000000000000000001F
:1001E0005FF8E0F110B5054C237833B9044B13B137
:1001F0000448AFF300800123237010BD000A0020E3
:1002000000000000240C010808B5064B1BB106488D
:100210000649AFF300800648036813B1054B03B1EC
:10022000984708BD00000000240C0108040A0020C3
:10023000F80900200000000080B400AF00BF054BAB
:100240009B889BB203F02003002BF8D0BD465DF8DD
:10025000047B70470028004080B485B000AF03469F
:10026000FB800023FB730F4B9B889BB2DAB2FB88A9
:10027000DBB21340FB730B4B1B889AB2FB88134015
:100280009BB2002B05D0FB7B002B02D00123FB731C
:1002900001E00023FB73FB7B18461437BD465DF875
:1002A000047B70470028004080B483B000AF034651
:1002B000FB80074B064A928891B2FA88D24392B2E9
:1002C0000A4092B29A800C37BD465DF8047B7047B5
:1002D0000028004080B485B000AF78600023FB6048
:1002E0007B68DB684FF0FF325A607B68DB686FF039
:1002F00080425A61FB7B43F08003FB737B7B43F0BE
:1003000008037B737B68DB68FA689A611437BD4623
:100310005DF8047B704700BF80B586B000AF7860A1
:100320000023FB7400237B610023FB60032002F0A9
:10033000FFFE7B68DB681B69FB607B6901337B61C7
:100340007A69174B9A4201D9002324E0FB68DB0F3E
:10035000DBB2002BEAD000237B61FB6843F0010392
:10036000FB607B68DB68FA681A617B68DB681B6985
:10037000FB607B6901337B617A69094B9A4200D942
:1003800005E0FB6803F00103DBB2012BEDD0032095
:1003900002F0CEFEFB7C18461837BD4680BD00BF7C
:1003A000400D030080B489B000AFF860B960FA7105
:1003B000BB800023FB76FB68DB78002B22D1002377
:1003C0007B610023FB61BB880333002B00DA03331E
:1003D0009B107B61FB79FA6832339B0013449B6866
:1003E0003B610023FB6109E0BB681A683B691A6046
:1003F000FB690133FB61BB680433BB60FA697B694D
:100400009A42F1D3FB7E18462437BD465DF8047B43
:10041000704700BF80B489B000AFF860B960134680
:10042000FB800023FB61FB880333002B00DA0333DE
:100430009B10BB61FB68D3F8D0307B610023FB616C
:1004400009E07B691A68BB681A60FB690133FB61CC
:10045000BB680433BB60FA69BB699A42F1D3BB68DD
:1004600018462437BD465DF8047B704780B487B0DA
:1004700000AF78600B46FB7000233B610023FB73E9
:100480007B680022DA707B6801229A707B684022C8
:100490009A80FB78012B13D14FF0A0433B617B681E
:1004A0000122DA727B6808221A707B6804225A7073
:1004B0007B684FF4A072DA807B6802221A7211E026
:1004C000FB78002B0ED1454B3B617B680022DA7232
:1004D0007B680C221A707B6806225A707B684FF486
:1004E000A062DA803A697B68DA603B6903F50063F1
:1004F0001A467B681A6100237B611CE07B695A0104
:100500003B69134403F510631A4679687B69043329
:100510009B000B449A607B695A013B69134403F5C5
:1005200030631A4679687B6914339B000B445A6028
:100530007B6901337B617B685B781A467B699A42F1
:10054000DCD83B6903F580631A467B685A613B69D6
:1005500003F588631A467B68C3F8CC2000237B61CF
:100560000FE07B695A013B69134403F5A0631A4607
:1005700079687B6922339B000B449A607B69013365
:100580007B617B681B781A467B699A42E9D8002315
:100590007B610FE07B691A033B69134403F58053C9
:1005A0001A4679687B6932339B000B449A607B69F9
:1005B00001337B617B681B781A467B699A42E9D8D4
:1005C0003B6903F560631A467B68C3F80C21FB7B2B
:1005D00018461C37BD465DF8047B70470000044098
:1005E00080B586B000AF78600023FB7500233B61C7
:1005F0000023FB600023BB607B681B7A012B42D188
:100600007B68DB689B6BFB60BB7B6FF30003BB739A
:100610007B685B7A002B03D0BB7B43F01003BB737A
:100620007B68DB68FA689A6300233B617B68DB6860
:10063000DB683B613B7C6FF386133B74BB7C6FF3E1
:100640008613BB74BB7C6FF34103BB74BB7C6FF33D
:10065000C303BB747B68DB683A69DA607868FFF7CC
:100660005BFE7B68DB78012B3DD13B7A052262F390
:1006700044033B723B7A43F020033B727B68DB68A8
:10068000BA689A602FE07B68DB68DB683B613B7C83
:1006900043F040033B747B68DB683A69DA60786852
:1006A000FFF73AFE0023FB60BB7B43F00103BB7303
:1006B000BB7B43F00403BB73BB7B43F00803BB73FA
:1006C000BB7B43F02003BB737B685B7A002B03D0BA
:1006D000BB7B43F01003BB737B68DB68FA689A63EB
:1006E000142002F049FD7B68DB78012B10D17B6878
:1006F000DB689B68BB603B7A052262F344033B7274
:100700003B7A43F020033B727B68DB68BA689A60EF
:10071000FB7D18461837BD4680BD00BF80B485B04C
:1007200000AF78600023FB730023BB603B7A43F08B
:1007300001033B727B68DB687A68D2689168BA68AB
:100740000A439A60FB7B18461437BD465DF8047B6C
:10075000704700BF80B485B000AF78600023FB73A2
:100760000023BB603B7A43F001033B727B68DB688C
:100770007A68D2689168BA68D2430A409A60FB7B73
:1007800018461437BD465DF8047B704780B586B0C7
:1007900000AF786039600023FB7400237B61002385
:1007A000FB60FB6843F02003FB603B68DBB203F0B7
:1007B0001F03DAB2FB6862F38A13FB607B68DB68B5
:1007C000FA681A617B68DB681B69FB607B6901332F
:1007D0007B617A69094B9A4200D906E0FB685B09A4
:1007E00003F00103DBB2012BECD0032002F0A0FCEC
:1007F000FB7C18461837BD4680BD00BF400D030086
:1008000080B586B000AF78600023FB7400237B6165
:100810000023FB60FB6843F01003FB607B68DB6830
:10082000FA681A617B68DB681B69FB607B690133CE
:100830007B617A69094B9A4200D906E0FB681B0983
:1008400003F00103DBB2012BECD0032002F070FCBB
:10085000FB7C18461837BD4680BD00BF400D030025
:1008600080B584B000AF78600B46FB700023FB734B
:100870007B68DB68DB68BB60FB7A6FF34513FB7258
:10088000FB7A6FF38613FB72FB78012B04D1FB7AA2
:1008900043F02003FB7206E0FB78002B03D1FB7AC8
:1008A00043F04003FB727B68DB68BA68DA60322091
:1008B00002F062FCFB7B18461037BD4680BD00BFCE
:1008C00080B483B000AF78607B68DB685B6903F05D
:1008D000010318460C37BD465DF8047B704700BF26
:1008E00080B582B000AF78607868FFF7E9FF034613
:1008F000012B0CBF00230123DBB218460837BD468D
:1009000080BD00BF80B485B000AF78600023FB607D
:100910007B68DB685B69FB607B68DB689B69FA6806
:100920001340FB60FB6818461437BD465DF8047B36
:10093000704700BF80B485B000AF78600B46FB7095
:100940007B681B691B68FB60FB7803F00303DAB26A
:100950003B7B62F301033B737B681B69FA681A6097
:100960001437BD465DF8047B704700BF80B58CB07E
:1009700000AF7860002387F82B3000237B620023D0
:100980003B620023FB610023BB6100237B617B682A
:10099000D3F80C3100221A607B681B691B683B622C
:1009A00097F821306FF3C40387F821307B681B6907
:1009B0003A6A1A607B68DB7A012B40D178680321A0
:1009C000FFF7B8FF7B68DB6880225A62FB8B40220E
:1009D00062F30F03FB83BB8B802262F30F03BB83A5
:1009E0007B68DB68FA699A62BA8BFB8B13449BB213
:1009F0003B837B8B802262F30F037B837B68DB6806
:100A0000BA69C3F804213A8B7B8B13449BB23B83B6
:100A10007B8B6FF30F037B837B68DB68BA69C3F85A
:100A200008213A8B7B8B13449BB23B837B8B6FF308
:100A30000F037B837B68DB68BA69C3F80C21786895
:100A40001021FFF7A3FE7868FFF7DAFE7B681B69C9
:100A500000221A617B681B6900225A617B681B694E
:100A60004FF0FF329A617B681B690022DA61002334
:100A7000FB623AE07A68FB6A04339B0013449B688C
:100A80001B687B6297F82730C3F3C013DBB2002BDF
:100A90000ED000237B6297F8273043F0400387F89D
:100AA000273097F8273043F0080387F8273001E014
:100AB00000237B627A68FB6A04339B0013449B68C3
:100AC0007A6A1A607A68FB6A04339B0013449B6855
:100AD00000221A617A68FB6A04339B0013449B6806
:100AE000FF229A60FB6A0133FB627B685B781A46DF
:100AF000FB6A9A42BED80023FB6235E07A68FB6A43
:100B000014339B0013445B681B68FB60FB7BC3F3DF
:100B1000C013DBB2002B0AD00023FB60FB7B43F049
:100B20004003FB73FB7B43F00803FB7301E00023EE
:100B3000FB607A68FB6A14339B0013445B68FA68B5
:100B40001A607A68FB6A14339B0013445B680022C6
:100B50001A617A68FB6A14339B0013445B68FF22B6
:100B60009A60FB6A0133FB627B685B781A46FB6A1A
:100B70009A42C3D800237B617B7D43F001037B75E0
:100B80007B681B697A68126911697A69D2431140DE
:100B90007A690A431A617B68DB78012B1BD1002339
:100BA0003B613B7C43F001033B743B7C43F002031D
:100BB0003B743B8A402262F38A033B82BB7C43F056
:100BC0000103BB747B8A402262F349037B827B680A
:100BD0001B693A691A63786800F006F897F82B30B9
:100BE00018463037BD4680BD80B584B000AF786010
:100BF0000023FB730023BB607B68DB6800229A61E3
:100C00007B68DB686FF080425A617868FFF762FBAF
:100C10007B68DB78002B03D13B7A43F010033B72F7
:100C20007B7A43F008037B727B7A43F010037B727C
:100C30007B7A43F020037B72BB7A43F00403BB72E0
:100C4000BB7A43F00803BB723B7A43F008033B7264
:100C5000BB7A43F01003BB72BB7A43F02003BB7234
:100C60007B68DB687A68D2689169BA68D2431140C0
:100C7000BA680A439A61FB7B18461037BD4680BDAF
:100C800080B485B000AF78600023FB737B681B697C
:100C90009B68BB603B7AC3F34103DBB2022B09D0F4
:100CA000032B04D0012B02D00323FB7305E00223A6
:100CB000FB7302E00123FB7300BFFB7B1846143774
:100CC000BD465DF8047B704780B487B000AF7860A4
:100CD0000023FB750023BB607B681B699B683B613D
:100CE0007B689B691B68FB603B7CC3F34103DBB201
:100CF000022B04D0BB896FF30A03BB8105E0BB89DB
:100D0000032262F30A03BB8100BF7B689B69FA6818
:100D10001A607B7A43F001037B727B681B697A68F7
:100D200012695168BA68D2431140BA680A435A60DE
:100D3000FB7D18461C37BD465DF8047B704700BF3D
:100D400080B487B000AF786039600023FB74002363
:100D5000FB600023BB603B685B78012B0FD13B68D5
:100D60001B787A6804339B0013449B687B613B6863
:100D70001B78012202FA03F39BB23B810EE03B6831
:100D80001B787A6814339B0013445B687B613B6873
:100D90001B78012202FA03F39BB27B817B691B68FB
:100DA000FB607B7BC3F3C013DBB2002B27D13B6816
:100DB0009B689BB2C3F30A039AB2BB8962F30A032E
:100DC000BB813B68DB7803F00303DAB2BB7B62F3E1
:100DD0008303BB733B68DB88DBB203F00F03DAB23B
:100DE000FB8962F38913FB81FB7B43F01003FB73E8
:100DF0007B7B43F080037B73FA687B691A607B68B6
:100E00001B697A681269D169BA680A43DA61FB7CA6
:100E100018461C37BD465DF8047B704780B487B028
:100E200000AF786039600023FB740023FB6000236F
:100E3000BB603B685B78012B0FD13B681B787A68FD
:100E400004339B0013449B687B613B681B78012241
:100E500002FA03F39BB23B810EE03B681B787A6891
:100E600014339B0013445B687B613B681B78012251
:100E700002FA03F39BB27B817B7B6FF3C7137B7317
:100E8000FA687B691A607B681B697A681269D169A4
:100E9000BA68D2430A40DA61FB7C18461C37BD466B
:100EA0005DF8047B704700BF80B588B000AF786004
:100EB00039600023FB770023BB6100237B610023A3
:100EC0003B613B685B78012B40F0AB803B681B7853
:100ED0007A6804339B0013449B681B687B613B6802
:100EE0001B787A6804339B0013449B681B693B6141
:100EF0003B685B69002B09D13B696FF312033B61CF
:100F00007B8A012262F3CC037B8222E03B685B692F
:100F1000C3F312023B6962F312033B613B685A69F7
:100F20003B689B6813445A1E3B689B68B2FBF3F313
:100F30009BB2C3F309039AB27B8A62F3CC037B8230
:100F40003B68DB78012B04D1FB7C012262F3461362
:100F5000FB743B681B787A6804339B0013449B68DE
:100F60003A691A617B68DB78012B0AD13B681B78F0
:100F70007A6804339B0013449B683A6812695A618B
:100F800015E03B68DB78012B11D03B685B69002BD7
:100F90000DD03B681B78012202FA03F3BB617B682A
:100FA0001B697A681269516BBA690A435A633B68D4
:100FB000DB78012B14D17B681B699B68FB60FB68A5
:100FC000C3F30D239BB203F00103002B04D1FB7D7F
:100FD00043F02003FB7503E0FB7D43F01003FB753A
:100FE000FB7D43F00403FB75FB7D43F08003FB7541
:100FF0003B681B787A6804339B0013449B687A69CA
:101000001A603B68DB78012B40F088803B68D96828
:101010003B681A783B685B699BB27868FFF7C2F956
:101020007CE03B681B787A6814339B0013445B6850
:101030001B687B613B681B787A6814339B00134400
:101040005B681B693B613B685B69002B0DD13B68AA
:101050009B68C3F312023B6962F312033B617B8A14
:10106000012262F3CC037B821FE03B685A693B6834
:101070009B6813445A1E3B689B68B2FBF3F39BB218
:10108000C3F309039AB27B8A62F3CC037B827B8A27
:10109000C3F3C9039BB23A68926802FB03F3C3F33C
:1010A00012023B6962F312033B613B681B787A686A
:1010B00014339B0013445B683A691A617B68DB78E0
:1010C000012B09D13B681B787A6814339B001344C9
:1010D0005B683A6812695A613B68DB78012B0CD176
:1010E0003B685B79002B04D0FB7D43F02003FB754C
:1010F00003E0FB7D43F01003FB75FB7D43F004032D
:10110000FB75FB7D43F08003FB753B681B787A68B9
:1011100014339B0013445B687A691A60FB7F18469E
:101120002037BD4680BD00BF80B489B000AF786075
:1011300039600023FB770023BB6100233B61002360
:10114000BB603B685B78012B6FD17B689B697B61DF
:101150007B691B683B617B691B69BB603B685B69A2
:10116000002B09D13B7A6FF306033B72BB7A012255
:1011700062F3C403BB7223E03B685A693B689B6817
:101180009A420ED93B689A683B685A613B689B68F3
:10119000DBB203F07F03DAB23B7A62F306033B7201
:1011A00009E03B685B69DBB203F07F03DAB23B7AAC
:1011B00062F306033B72BB7A012262F3C403BB7283
:1011C000BA687B691A617B68DB78012B09D13B68BF
:1011D0001B787A6804339B0013449B683A68126951
:1011E0005A61FB7C43F00403FB74FB7C43F08003F7
:1011F000FB743A697B691A607B68DB78002B75D1D8
:101200003B685B69002B71D03B681B78012202FAB6
:1012100003F3BA691343BB617B681B697A6812697F
:10122000516BBA690A435A6360E03B681B787A687D
:1012300014339B0013445B681B683B613B681B785D
:101240007A6814339B0013445B681B69BB603B687E
:101250005B69002B0FD13B689B68DBB203F07F0317
:10126000DAB23B7A62F306033B72BB7A012262F385
:10127000C403BB7212E03B689A683B685A613B68E2
:101280009B68DBB203F07F03DAB23B7A62F30603BA
:101290003B72BB7A012262F3C403BB723B681B78CA
:1012A0007A6814339B0013445B68BA681A617B68E0
:1012B000DB78012B09D13B681B787A6814339B00DB
:1012C00013445B683A6812695A61FB7C43F004037B
:1012D000FB74FB7C43F08003FB743B681B787A68EB
:1012E00014339B0013445B683A691A60FB7F18460D
:1012F0002437BD465DF8047B704700BF80B487B0DB
:1013000000AF786039600023FB750023FB603B6809
:101310005B78012B1CD13B681B787A6804339B00F7
:1013200013449B683B613B691B68FB60FB7BC3F319
:10133000C013DBB2002B03D0FB7B43F04003FB73F5
:10134000BB7B43F02003BB73FA683B691A6011E072
:101350003B681B787A6814339B0013445B683B61DD
:101360003B691B68FB60BB7B43F02003BB73FA68DF
:101370003B691A60FB7D18461C37BD465DF8047B4F
:10138000704700BF80B487B000AF78603960002339
:10139000FB740023FB603B685B78012B08D13B6842
:1013A0001B787A6804339B0013449B687B6107E0D9
:1013B0003B681B787A6814339B0013445B687B613D
:1013C0007B691B68FB60BB7B6FF34513BB733B689A
:1013D000DB78032B03D03B68DB78022B03D1FB7B4C
:1013E00043F01003FB73FA687B691A60FB7C1846B4
:1013F0001C37BD465DF8047B704700BF80B485B0E4
:1014000000AF78607B681B699B69FB607B681B6928
:10141000DB69FA681340FB60FB681B0C1846143745
:10142000BD465DF8047B704780B485B000AF78603E
:101430000B46FB70FB787A6814339B0013445B689F
:101440009B68FB607B681B695B69FA681340FB6003
:10145000FB6818461437BD465DF8047B704700BF33
:1014600080B485B000AF78607B681B699B69FB60C6
:101470007B681B69DB69FA681340FB60FB689BB201
:1014800018461437BD465DF8047B704780B487B0BA
:1014900000AF786000233B61FB7C43F0C003FB742A
:1014A000BB7C012262F3C403BB743B7C182262F351
:1014B00006033B747B685B6D3A691A617B68DB7875
:1014C000012B16D10023FB607B685B6D7A6802F20A
:1014D000CC525A617B685B6D1B68FB60FB7B43F001
:1014E0008003FB734FF08023FB607B685B6DFA68C1
:1014F0001A601C37BD465DF8047B704780B485B028
:1015000000AF78607B689B7A002B1BD07B681B69DF
:101510009B68FB603B7BC3F30003DBB2012B11D163
:101520007B6803F586731B68BB603B7A6FF34103EE
:101530003B723B7A6FF300033B727B68D3F80C314C
:10154000BA681A601437BD465DF8047B704700BF67
:1015500080B586B000AFC7E90001D7E9000110A34C
:10156000D3E900230AF0A2FA02460B4610461946B8
:101570000DA3D3E900230AF099FA02460B46C7E906
:101580000423D7E904010AF0BFFD02460B46C7E970
:101590000223D7E90223104619461837BD4680BDFD
:1015A000FA48CE3B1835B13D0000000080842E4142
:1015B00080B584B000AF78604FF000024FF00003B8
:1015C000C7E9022378680AF0E1F802460B461046A4
:1015D000194609A3D3E900230AF03EF902460B4657
:1015E000C7E90223D7E90223104619461037BD4642
:1015F00080BD00BFAFF30080FA48CE3B1835B13D47
:10160000B0B590B000AF78607B6803F52873D3E97C
:101610000023C7E90C23D7E90C23002A73F18001CA
:1016200006DBD7E90C23003263F1FF03C7E90C2383
:101630003B6B1846FFF7BCFFC7E90601D7E9060177
:1016400091A3D3E900230AF007F902460B46C7E944
:1016500004239549D7E90423C1E900237B685B7C17
:10166000002B1BD07B681B7A052B0BD1D7E904011B
:1016700087A3D3E900230AF019FA02460B46C7E90B
:101680000E230FE0D7E9040183A3D3E900230AF076
:101690000DFA02460B46C7E90E2303E0D7E90423FF
:1016A000C7E90E237B681C7AD7E90E010AF0B6FB66
:1016B00002467B685B7A204611461A4609F048FECE
:1016C00002460B46D7E9040109F012FF02460B4619
:1016D000C7E90423D7E904014FF000024FF00003EB
:1016E0000AF02CFB0346002B09D1D7E904016CA3B7
:1016F000D3E900230AF040FB0346002B00D0BDE0F5
:101700006A49D7E90423C1E900237B6803F54A73DA
:10171000D3E9002310461946D7E9042309F0EAFE6D
:1017200002460B46796801F54A71C1E900237B68DE
:10173000D3F830335A1C7B68C3F830237B6803F539
:101740004A73D3E900457B68D3F8303318460AF072
:101750001DF802460B46204629460AF0A7F9024624
:101760000B46C7E902235249D7E90223C1E9002306
:101770007B68D3F83433591C7A68C2F834137A681A
:101780005933DB00D118D7E90423C1E900237B6872
:1017900003F55273D3E9002310461946D7E9042311
:1017A0000AF0EAFA0346002B06D07B6803F5527173
:1017B000D7E90423C1E900237B6803F55073D3E91B
:1017C000002310461946D7E904230AF0B7FA034666
:1017D000002B06D07B6803F55071D7E90423C1E9DB
:1017E00000237B68D3F83433082B03D17B680022B5
:1017F000C3F834237B68D3F83833082B36D14FF045
:1018000000024FF00003C7E908230023FB6211E048
:101810007A68FB6A5933DB001344D3E90023D7E924
:10182000080109F067FE02460B46C7E90823FB6A78
:101830000133FB627B68D3F83823FB6A9A42E7DC0A
:101840007B68D3F83833184609F0A0FF02460B46F0
:10185000D7E908010AF02AF902460B46C7E908232E
:101860001449D7E90823C1E9002306E07B68D3F8CF
:1018700038335A1C7B68C3F8382300BF4037BD4655
:10188000B0BD00BFAFF300800000001319DDB1410F
:10189000295C8FC2F528F83FF6285C8FC2F5F43F2B
:1018A000000000000088D340280A0020200A002001
:1018B000380A0020300A002080B586B000AF78607A
:1018C000396000233B7300237B730023BB73002329
:1018D000FB7300233B7400237B740023BB74002341
:1018E000FB747B68D3F8B0325A1C7B68C3F8B02213
:1018F0000023FB7530E0FB7D6E33DB007A68134418
:101900001846396808220AF05FFC0346002B1FD0F6
:10191000FB7D6E33DB007A681A4407F10C03104636
:10192000194608220AF050FC0346002B11D1FB7D1A
:101930006E33DB007A6813441846396808220AF0CF
:1019400077FCFB7D0133DAB27B6883F86E2306E017
:1019500005E0FB7D0133FB75FB7D002BCBD0002325
:1019600018461837BD4680BD80B584B000AF00234F
:10197000FB6000233B7100237B710023BB710023BC
:10198000FB7100233B7200237B720023BB72002398
:10199000FB72194AFB684FF4D06101FB03F3134457
:1019A00003F55A7300229A71134AFB684FF4D06111
:1019B00001FB03F3134403F52C7300221A600E4A53
:1019C000FB684FF4D06101FB03F3134403F55A7332
:1019D00000225A71FB684FF4D06202FB03F303F557
:1019E0005C72054B1A443B1D1046194608220AF04A
:1019F0001FFC1037BD4680BDE00B002080B483B0D3
:101A000000AF78607B68DAB2034B1A700C37BD46C2
:101A10005DF8047B704700BFE00B002080B400AF8E
:101A2000084BD3F85833002B05D0064B0022C3F8DF
:101A30005823012300E000231846BD465DF8047BCF
:101A4000704700BFE00B002080B400AF034BD3F819
:101A500060331846BD465DF8047B7047E00B0020FC
:101A600080B400AF034BD3F864331846BD465DF82D
:101A7000047B7047E00B002080B400AF034B93F869
:101A80006C331846BD465DF8047B7047E00B0020C0
:101A900080B400AF084B93F86C33012B05D1064B93
:101AA000002283F86C23012300E000231846BD4682
:101AB0005DF8047B704700BFE00B002080B582B06A
:101AC00000AF00237B60504A7B684FF4D06101FB7C
:101AD00003F31344603300225A604B4A7B684FF48F
:101AE000D06101FB03F3134403F5147300221A7051
:101AF000012002F0CBFC444A7B684FF4D06101FB2B
:101B000003F3134403F5147300221A703E4A7B68F2
:101B10004FF4D06101FB03F3134403F54E7300222D
:101B20001A60394A7B684FF4D06101FB03F3134418
:101B300003F54C7300225A60334A7B684FF4D0613E
:101B400001FB03F3134403F52C7300225A602E4A61
:101B50007B684FF4D06101FB03F3134403F52E734C
:101B600000221A60284A7B684FF4D06101FB03F31E
:101B7000134403F52E7300225A60234A7B684FF406
:101B8000D06101FB03F3134403F5307300221A60A4
:101B90001D4A7B684FF4D06101FB03F3134403F546
:101BA0004A714FF000024FF00003C1E90023164ACA
:101BB0007B684FF4D06101FB03F3134403F54C73CE
:101BC00000221A60104A7B684FF4D06101FB03F3D6
:101BD000134403F550714FF000024FF00003C1E9C8
:101BE0000023094A7B684FF4D06101FB03F31344DF
:101BF00003F552714FF00002044BC1E90023FFF7D7
:101C0000B3FE0837BD4680BDE00B002000408F408A
:101C100080B582B000AF00237B605F4A7B684FF4E1
:101C2000D06101FB03F3134402221A705A4A7B6805
:101C30004FF4D06101FB03F3134403F52273002238
:101C40005A70554A7B684FF4D06101FB03F313448B
:101C500003F54C7300225A604F4A7B684FF4D06101
:101C600001FB03F3134403F54E7300221A604A4A42
:101C70007B684FF4D06101FB03F3134403F5287133
:101C80004FF000024FF00003C1E9002340F60F00BF
:101C900001F060FB3860032002F0F0F93B68002B94
:101CA00002D04FF0FF3372E0FFF708FF3A4A7B683B
:101CB0004FF4D06101FB03F31344203301229A70E7
:101CC000354A7B684FF4D06101FB03F3134403F5FD
:101CD00014734DF6CA625A802F4A7B684FF4D06164
:101CE00001FB03F3134403F5227300221A702A4AFE
:101CF0007B684FF4D06101FB03F3134403F52273B7
:101D000000229A70244A7B684FF4D06101FB03F3F0
:101D1000134403F522730022DA7000F0A7FF7B68FA
:101D20004FF4D06202FB03F303F510721A4B134415
:101D30000433184601F068FF184B7A68002143F815
:101D40002210154A7B684FF4D06101FB03F3134462
:101D500003F55A7300221A710F4A7B684FF4D06161
:101D600001FB03F3134403F52A714FF000024FF017
:101D70000003C1E90023084A7B684FF4D06101FBEE
:101D800003F3134403F5CE630022DA7000231846F0
:101D90000837BD4680BD00BFE00B00206012002068
:101DA00080B500AF01F000FC0346184680BD00BFBF
:101DB00080B586B000AF786000233B610323FB60F1
:101DC00000237B617B681A7889493B694FF4D060B6
:101DD00000FB03F30B4408331A707B685A7884497C
:101DE0003B694FF4D06000FB03F30B4408335A7196
:101DF0007B685A787E493B694FF4D06000FB03F35F
:101E00000B4408331A717B689A7879493B694FF41F
:101E1000D06000FB03F30B4408335A707B68DA7818
:101E200073493B694FF4D06000FB03F30B44083364
:101E3000DA717B681A796E493B694FF4D06000FB18
:101E400003F30B4408339A707B685A7968493B69FD
:101E50004FF4D06000FB03F30B440833DA707B6867
:101E60009A7963493B694FF4D06000FB03F30B445C
:101E700008339A715E4A3B694FF4D06101FB03F36A
:101E80001344103300221A707B681A8958493B6941
:101E90004FF4D06000FB03F30B4410335A803B69CE
:101EA0004FF4D06202FB03F303F10802504B1A44D3
:101EB000FB68DBB21046194601F0B2FB7B681B7869
:101EC0001A464C4913465B0013449B000B441A7896
:101ED00047493B694FF4D06000FB03F30B441033D8
:101EE0001A717B689A7842493B694FF4D06000FBD5
:101EF00003F30B4408331B781046194601F072FBBC
:101F000078617B69002B03D07B69B3F1FF3F0ED171
:101F10007B681B781A467B689B78581E35491346A8
:101F20005B00134403449B000B445B687B61304AB5
:101F30003B694FF4D06101FB03F3134410337A691A
:101F40009A603B694FF4D06202FB03F303F1100285
:101F5000274B13440433184601F030FB244A3B69F5
:101F60004FF4D06101FB03F31344203300221A70B5
:101F7000FB6803F00203002B40D17B689B785A1E5C
:101F80001D4B33F812201A493B694FF4D06000FB17
:101F900003F30B4418339A80154A3B694FF4D06120
:101FA00001FB03F3134418339A8811493B694FF43A
:101FB000D06000FB03F30B441833DA800C4A3B6912
:101FC0004FF4D06101FB03F3134418339B88184688
:101FD00001F0C2FC064A3B694FF4D06101FB03F3F8
:101FE000134418339B88184601F0CCFC6DE000BF09
:101FF000E00B002000040108FC0301087B689B78CB
:10200000184601F0D3FC03465B089AB237493B6996
:102010004FF4D06000FB03F30B4418339A80334A2B
:102020003B694FF4D06101FB03F3134418339A88E2
:102030002E493B694FF4D06000FB03F30B44183387
:10204000DA802A4A3B694FF4D06101FB03F3134461
:1020500018339B88002B38D17B689B785A1E244B01
:1020600033F8122021493B694FF4D06000FB03F3A1
:102070000B4418339A801D4A3B694FF4D06101FB31
:1020800003F3134418339A8818493B694FF4D0601E
:1020900000FB03F30B441833DA80144A3B694FF416
:1020A000D06101FB03F3134418339B88184601F0F9
:1020B00053FC0E4A3B694FF4D06101FB03F3134418
:1020C00018339B88184601F05DFC7B681B79042B54
:1020D00008D1202007F03EFB002001F043FE08203D
:1020E00007F038FB1837BD4680BD00BFE00B00206D
:1020F000FC03010880B485B000AF7860396000232C
:10210000FB600C4AFB684FF4D06101FB03F31344FE
:1021100020337A685A60074AFB684FF4D06101FBAC
:1021200003F3134428333A681A601437BD465DF848
:10213000047B7047E00B002080B483B000AF054BF8
:10214000D3F830337B607B6818460C37BD465DF8AA
:10215000047B7047E00B002080B483B000AF074BD6
:10216000D3E90023C7E90023D7E900231046194625
:102170000C37BD465DF8047B704700BF200A002085
:1021800080B483B000AF074BD3E90023C7E9002335
:10219000D7E90023104619460C37BD465DF8047B8D
:1021A000704700BF280A002080B483B000AF074BFF
:1021B000D3E90023C7E90023D7E9002310461946D5
:1021C0000C37BD465DF8047B704700BF300A002025
:1021D00080B582B000AF78607B685B6E5A1C7B680C
:1021E0005A667B6800225A607B681B78022B06D1F6
:1021F0007B6806225A70002002F000F91DE07B681F
:1022000001225A707B681B78012B13D17B68DB7825
:10221000032B03D17B680222C3F85C237B68DB7845
:10222000022B03D17B680122C3F85C237B68022266
:102230009A7002E07B6809229A7002F05FF8083712
:10224000BD4680BDB0B5CEB022AF78600023C7F8E0
:10225000AC30002387F8A430002387F8A530002392
:1022600087F8A630002387F8A730002387F8A83026
:102270007B681B7987F8AB3097F8AB30012B77D1AF
:1022800007F1A403184601F0CFFB97F8A4301A46D3
:1022900097F8A5301B021A4497F8A6301B041A447D
:1022A00097F8A7301B061344BB6197F8A830DAB241
:1022B0004FF00003C7E90423D7E9042315000024E5
:1022C000C7E90445D7E90401BB691A464FF000038A
:1022D000121843EB0103C7E9042397F8A8301A0644
:1022E000BB691B0A1344FB61354AD7F8AC304FF485
:1022F000D06101FB03F3134403F5227300229A70AB
:102300000023BB8101233B723B7A7B72694607F154
:1023100018028823084611461A4609F089FF07F17A
:1023200008030FCB00F00EFB254AD7F8AC304FF472
:10233000D06101FB03F3134420339B78002B2FD093
:102340001F4AD7F8AC304FF4D06101FB03F31344BC
:1023500003F52C735B685A1C1949D7F8AC304FF45D
:10236000D06000FB03F30B4403F52C735A6017E0B5
:1023700097F8AB30062B13D10023BB8106233B72A9
:102380003B7A7B72694607F118028823084611469A
:102390001A4609F04DFF07F108030FCB00F0D2FAFF
:1023A000074AD7F8AC304FF4D06101FB03F3134474
:1023B00003F5CE630022DA70B037BD46B0BD00BF72
:1023C000E00B0020B0B5CEB022AF78600023C7F894
:1023D000A830002387F8A030002387F8A13000231D
:1023E00087F8A230002387F8A330002387F8A430B1
:1023F000002387F8AF30002387F8AE30002387F83A
:10240000AD307B681B79022B40F01182022387F8E4
:10241000AE307B68DB88BB817B681B7A412B21D087
:10242000412B02DC022B19D04FE0612B1AD0C52BB7
:102430004BD17B68DB880C2B03D1072387F8AE30A8
:102440000BE07B68DB88122B03D1072387F8AE30C3
:1024500003E0632387F8AE303BE03AE0632387F87C
:10246000AE3036E07B68DB887F2B02D9632387F8A8
:10247000AE307B685B7A03F0CC03882B06D109234E
:1024800087F8AD30072387F8AF301DE07B685B7AB3
:1024900003F0CC03CC2B06D1152387F8AD300D23E8
:1024A00087F8AF3010E00F2387F8AD307B685B7A98
:1024B00003F0CC038C2B03D10D2387F8AF3003E05E
:1024C000072387F8AF3004E003E0632387F8AE30DA
:1024D00000BF97F8AE30072B03D097F8AE30022B31
:1024E0003DD107F1A003184601F0A4FA97F8A030F7
:1024F0001A4697F8A1301B021A4497F8A2301B0421
:102500001A4497F8A3301B061344BB6197F8A43014
:10251000DAB24FF00003C7E90423D7E9042315001A
:102520000024C7E90445D7E90401BB691A464FF006
:102530000003121843EB0103C7E9042397F8A43002
:102540001A06BB691B0A1344FB617B68DB8807F131
:102550000802183210461946002201F05BFA97F87B
:10256000AE303B723B7A7B7297F8AE30022B40F074
:102570001481C04AD7F8A8304FF4D06101FB03F3AF
:10258000134403F55A739B79002B00F0C88097F829
:10259000AD3007F1B002134413F8903C102B00F05B
:1025A000BD80212B00D0BAE00023A7F8A630D7E9E0
:1025B0000423B048D7F8A8104FF4D06404FB01F10D
:1025C000014401F51C71C1E90023AA4AD7F8A830DB
:1025D0004FF4D06101FB03F31344603300221A600F
:1025E0002023A7F8A630D7F8A8304FF4D06202FB1A
:1025F00003F303F1E8029F4B134403F1080297F839
:10260000AF3007F1080118330B4410461946082271
:1026100009F00EFED7F8A8304FF4D06202FB03F3A6
:1026200003F1FC02934B134403F10802D7F8A830DE
:102630004FF4D06101FB03F303F528718D4B0B447C
:1026400010461946052209F0F3FD8A4AD7F8A8304A
:102650004FF4D06101FB03F3134403F528714FF0ED
:1026600000024FF00003C1E90023824AD7F8A830E6
:102670004FF4D06101FB03F3134403F514731B788B
:102680005A1CD1B27B48D7F8A8204FF4D06404FB81
:1026900002F2024402F5147211707649D7F8A820AC
:1026A0004FF4D06000FB02F20A44E8325371714AE1
:1026B000D7F8A8304FF4D06101FB03F3134448333B
:1026C0005B68184601F06AFB6A4AD7F8A8304FF4F5
:1026D000D06101FB03F3134403F5227302221A7045
:1026E000B7F8A6301846002101F086F9D7F8A830CF
:1026F0004FF4D06202FB03F303F1E8025D4B134495
:102700000333B7F8A62010461946002201F064F9F9
:10271000022001F099FD0C23BB7200E000BF554A76
:10272000D7F8A8304FF4D06101FB03F3134403F54D
:10273000227301229A70694607F11802882308461D
:1027400011461A4609F074FD07F108030FCB00F09B
:10275000F9F8484AD7F8A8304FF4D06101FB03F3E9
:10276000134420339B78002B4CD0424AD7F8A83032
:102770004FF4D06101FB03F3134403F52E731B6880
:102780005A1C3C49D7F8A8304FF4D06000FB03F343
:102790000B4403F52E731A6034E097F8AE30072B24
:1027A00030D1694607F118028823084611461A46B7
:1027B00009F03EFD07F108030FCB00F0C3F82D4AE6
:1027C000D7F8A8304FF4D06101FB03F31344203352
:1027D0009B78002B16D0274AD7F8A8304FF4D06149
:1027E00001FB03F3134403F52E731B685A1C2149A4
:1027F000D7F8A8304FF4D06000FB03F30B4403F587
:102800002E731A6097F8AE30632B70D1D7F8A830CA
:102810004FF4D06202FB03F2164B1344184600211A
:102820004FF000024FF0000303F0EEFD5FE07B6825
:102830001B79042B20D104233B723B7A7B7200234B
:10284000BB814FF000024FF00003C7E904230023CF
:10285000BB610023FB61694607F118028823084623
:1028600011461A4609F0E4FC07F108030FCB00F00B
:1028700069F83CE0E00B00201E4AD7F8A8304FF47E
:10288000D06101FB03F313441B78012B0AD0194AD2
:10289000D7F8A8304FF4D06101FB03F313441B7841
:1028A000032B14D104233B7244237B720023BB818E
:1028B000694607F118028823084611461A4609F0AE
:1028C000B7FC07F108030FCB00F03CF80FE0D7F896
:1028D000A8304FF4D06202FB03F2064B13441846B3
:1028E00000214FF000024FF0000303F08DFDB037E0
:1028F000BD46B0BDE00B002080B483B000AF002324
:102900007B600F4A7B684FF4D06101FB03F31344F3
:1029100003F5CE639B781946094A7B68982000FB33
:1029200001F14FF4D06000FB03F30B44134403F5B3
:102930005E731B7818460C37BD465DF8047B704704
:10294000E00B002084B080B582B000AF07F1100C1E
:102950008CE80F0000237B603B7CFB7000233B7402
:10296000364A7B684FF4D06101FB03F3134403F54F
:10297000CE635B781946314A7B68982000FB01F1F1
:102980004FF4D06000FB03F30B44134403F55E7374
:10299000194607F110029823084611461A4609F015
:1029A00047FC264A7B684FF4D06101FB03F31344D4
:1029B00003F5CE635B781946204A7B68982000FBBC
:1029C00001F14FF4D06000FB03F30B44134403F513
:1029D0005E73FA781A70194A7B684FF4D06101FB74
:1029E00003F3134403F5CE635B780133DAB2134982
:1029F0007B684FF4D06000FB03F30B4403F5CE6318
:102A00005A700E4A7B684FF4D06101FB03F3134404
:102A100003F5CE635B78042B0AD1084A7B684FF438
:102A2000D06101FB03F3134403F5CE6300225A7017
:102A30000837BD46BDE8804004B07047E00B002079
:102A400080B584B000AF78600023FB60854AFB68E6
:102A50004FF4D06101FB03F3134403F5CE631B78FD
:102A6000BB60804AB968FB68982000FB01F14FF415
:102A7000D06000FB03F30B44134403F55E731B7833
:102A8000002B07D1784B00221A70774B00225A7026
:102A9000754BE2E0734AB968FB68982000FB01F1CE
:102AA0004FF4D06000FB03F30B44134403F55E7353
:102AB0005A786D4B5A706B4AB968FB68982000FBD6
:102AC00001F14FF4D06000FB03F30B44134403F512
:102AD0005E739A78644B9A70624AB968FB68982072
:102AE00000FB01F14FF4D06000FB03F30B441344EF
:102AF00003F55E739A885C4B9A805A4AB968FB6802
:102B0000982000FB01F14FF4D06000FB03F30B446D
:102B1000134403F56073D3E900235349C1E9022349
:102B2000504AB968FB68982000FB01F14FF4D0606F
:102B300000FB03F30B44134403F562731A684A4B1A
:102B40001A61484AB968FB68982000FB01F14FF40C
:102B5000D06000FB03F30B44134403F562735A681F
:102B6000414B5A61BB68982202FB03F2FB684FF4A9
:102B7000D06101FB03F3134403F56472394B134432
:102B8000394A02F118011A467F23084611461A46AF
:102B900009F04EFB334AB968FB68982000FB01F14D
:102BA0004FF4D06000FB03F30B44134403F55E7352
:102BB0001A782D4B1A702B4AB968FB68982000FBD5
:102BC00001F14FF4D06000FB03F30B44134403F511
:102BD0005E7300221A70234AFB684FF4D06101FB38
:102BE00003F3134403F5CE631B780133DAB21D49B6
:102BF000FB684FF4D06000FB03F30B4403F5CE6396
:102C00001A70184AFB684FF4D06101FB03F31344B8
:102C100003F5CE631B78042B0AD1124AFB684FF4EC
:102C2000D06101FB03F3134403F5CE6300221A7055
:102C30000C4AFB684FF4D06101FB03F3134403F526
:102C4000CE631A780749FB684FF4D06000FB03F3AA
:102C50000B4403F5CE639A70034B18461037BD46FC
:102C600080BD00BFE00B0020480B002080B582B083
:102C700000AF00237B6000233B6000237B6015E0F6
:102C80007B68982202FB03F23B684FF4D06101FBA2
:102C900003F3134403F55E72184B134418460021E6
:102CA000982209F03BFB7B6801337B607B68032B38
:102CB000E6DD124A3B684FF4D06101FB03F3134495
:102CC00003F5CE6300225A700C4A3B684FF4D06182
:102CD00001FB03F3134403F5CE6300221A70074A85
:102CE0003B684FF4D06101FB03F3134403F5CE635B
:102CF00000229A700837BD4680BD00BFE00B00205F
:102D000080B485B000AF78600023FB60044BFA68A4
:102D1000796843F822101437BD465DF8047B70478C
:102D20006012002090B5CDB022AF0023C7F89C30D0
:102D30000023C7F8A430FFF7DFFDC7F8A00015E0B7
:102D4000794BD7F89C2053F82230D7F89C204FF4C9
:102D5000D06101FB02F1754A0A441046D7F8A01071
:102D60009847C7F8A4000023C7F8A030D7F8A430CC
:102D7000002BE5D0D7F8A430022B40F086806B4AB8
:102D8000D7F89C304FF4D06101FB03F313441B7858
:102D9000012B2CD1654AD7F89C304FF4D06101FB50
:102DA00003F3134403F524731A686049D7F89C3081
:102DB0004FF4D06000FB03F30B4420335B681A44EC
:102DC0005A49D7F89C304FF4D06000FB03F30B4412
:102DD00003F522735A60554AD7F89C304FF4D061FE
:102DE00001FB03F3134403F522730122DA704F4A07
:102DF000D7F89C304FF4D06101FB03F313441B78E8
:102E0000032B2CD1494AD7F89C304FF4D06101FBF9
:102E100003F3134403F522735A684449D7F89C30EE
:102E20004FF4D06000FB03F30B4428331B681A44B3
:102E30003E49D7F89C304FF4D06000FB03F30B44BD
:102E400003F522735A60394AD7F89C304FF4D061A9
:102E500001FB03F3134403F522730122DA70334AB2
:102E6000D7F89C304FF4D06101FB03F3134403F512
:102E7000227300229A702D4AD7F89C304FF4D0610B
:102E800001FB03F3134400225A60284AD7F89C3010
:102E90004FF4D06101FB03F3134403F52273DB7895
:102EA000012B3BD1214AD7F89C304FF4D06101FB74
:102EB00003F3134403F522739B78002B2ED11B4A96
:102EC000D7F89C304FF4D06101FB03F3134403F5B2
:102ED00022735C6806F03EFB03469C421ED2134AF6
:102EE000D7F89C304FF4D06101FB03F3134403F592
:102EF00022730022DA700023BB8004233B708423FA
:102F00007B70694607F110028823084611461A466D
:102F100009F08EF93B460FCBFFF714FD002318464E
:102F2000AC37BD4690BD00BF60120020E00B002012
:102F300080B483B000AF7860044B7A68C3F8782619
:102F40000C37BD465DF8047B704700BFE00B0020E6
:102F500080B483B000AF02460B46FA80BB80074BBB
:102F6000FA889A83054BBA88DA83044B012283F8E6
:102F700020200C37BD465DF8047B7047E00B002035
:102F800080B500AF094B93F82030012B0DD1074BD2
:102F9000DB8B184600F0E0FC044B9B8B184600F0DE
:102FA000F1FC024B002283F8202080BDE00B0020C2
:102FB00080B400AF034B9B8B1846BD465DF8047B85
:102FC000704700BFE00B002080B400AF034BDB8BE9
:102FD0001846BD465DF8047B704700BFE00B00203B
:102FE00080B584B000AF786009F0B0F8F8607A6816
:102FF000094BA3FB02139B09BB6000BF09F0A6F8B5
:103000000246FB68D21ABB689A42F7D300231846DF
:103010001037BD4680BD00BFD34D62100024EFF3D2
:103020000883184670471C462346184680B400AFF4
:10303000BD465DF8047B704780B483B000AF0346A3
:10304000FB71FB79002B01D0012B00E000BF0C3796
:10305000BD465DF8047B704780B400AFBD465DF8A7
:10306000047B704780B400AFBD465DF8047B7047B9
:1030700080B400AFBD465DF8047B704780B400AFFC
:10308000BD465DF8047B704780B400AFBD465DF877
:10309000047B704780B584B000AF78604FF4007354
:1030A000BB810423FB730323BB7307F10C03134899
:1030B000194601F03FFB4FF48063BB814823FB734B
:1030C0000323BB7307F10C030C48194601F032FBD4
:1030D0004FF4C053BB811023FB730323BB7307F171
:1030E0000C030648194601F025FB4FF480500121DE
:1030F00003F05EF81037BD4680BD00BF00080140F8
:1031000080B584B000AF78604FF4C06007F0E6FC93
:1031100043233B7301237B730323BB730123FB73A3
:1031200007F10C03184607F0EBFC1037BD4680BDD5
:1031300080B485B000AF78600023FB607A681346E6
:103140001B019B1ADB001A460A4BA3FB0213D21A7F
:10315000520813449B08BB60FB680133FB60FA68AC
:10316000BB689A4200D900E0F6E71437BD465DF827
:10317000047B70472549922480B582B000AF786007
:103180007B684FF47A7202FB03F31846FFF7D0FF17
:103190000837BD4680BD00BF80B500AF194B194A46
:1031A000126842F001021A60164A164B5968164B13
:1031B0000B405360134A134B1B6823F0847323F4B2
:1031C000803313600F4B0F4A126822F480221A607A
:1031D0000C4B0C4A526822F4FE025A60094B094A11
:1031E000126822F0A0521A60064B4FF47F029A60D8
:1031F000044B0022DA6200F00BF8044B4FF000623F
:103200009A6080BD001002400000FFF000ED00E079
:1032100080B500AF00F002F880BD00BF80B483B07D
:1032200000AF00237B6000233B60474B464A126897
:1032300042F480321A60444B1B6803F400333B6055
:103240007B6801337B603B68002B03D17B68B3F55F
:10325000A06FF0D13C4B1B6803F40033002B02D06D
:1032600001233B6001E000233B603B68012B66D1FA
:10327000364B364A126842F010021A60334B334A1A
:10328000126822F003021A60304B304A126842F092
:1032900002021A602C4B2C4A52685A602A4B2A4A66
:1032A00052685A60284B284A526842F480625A6039
:1032B000254A254BD96A264B0B40D362224A224B22
:1032C000DB6A43F4833343F04403D3621E4B1E4A4C
:1032D000126842F080621A6000BF1B4B1B6803F04B
:1032E0000063002BF9D0184B174A526822F47C1265
:1032F0005A60154B144A526842F4E8125A60124B55
:10330000114A126842F080721A6000BF0E4B1B68AF
:1033100003F00073002BF9D00B4B0B4A526822F0DC
:1033200003025A60084B084A526842F002025A608F
:1033300000BF054B5B6803F00C03082BF9D10C3779
:10334000BD465DF8047B704700100240002002403B
:1033500000F0FEFF80B586B000AF0346FB8000237F
:103360007B610423FB7200237B827A4B002283F86B
:103370006C20784B00225A77764B00221A67754BE7
:10338000002283F85920734B00225A67714B0022A8
:1033900083F86D206F4B00229A676E4B0022DA672C
:1033A00000F002F902466B4B1A606A4B1A686A4BCE
:1033B0009A4202D04FF0FF33C7E0002000F0C0FE79
:1033C00007F10B0324200021012200F039FB1E200D
:1033D00000F020FC03467B827B8A1B0A9BB2DAB298
:1033E0005C4B9A73FB8803F00803002B05D0042084
:1033F00000F010FC0246574B5A67564B5B6FDBB22E
:10340000002B09D00223BB7207F10A032D201221E1
:10341000012200F015FB02E04E4B00225A67062005
:1034200000F0F8FB02464B4B5A60072000F0F2FB1D
:103430000246484B9A60FB8803F00203002B06D03B
:103440001C2000F0E7FB0246424B9A6102E0414B30
:1034500000229A61FB8803F00103002B12D07B8AC3
:10346000DBB203F01F03DAB23A4B1A77394B1B7FFA
:10347000002B0ED1394B1B7803F01F03DAB2354B0A
:103480001A7706E0354B1B7803F01F03DAB2314B95
:103490001A77FB8803F00403002B15D000237B610F
:1034A0000EE07B691033184600F0B4FB0246294950
:1034B0007B6908339B000B445A607B6901337B6155
:1034C0007B690B2BEDDD0FE000237B6109E0214AD6
:1034D0007B6908339B00134400225A607B690133E7
:1034E0007B617B690B2BF2DDFB8803F40063002B0F
:1034F00002D000F017FC0FE03620052100F018FB89
:1035000003463B823B8A23F400733B823B8A36208E
:1035100005211A4600F024FB012000F011FE0420D2
:10352000002100F0E3FA02460A4B1A62262000212D
:1035300000F0DCFAF860FB6843F4A023FB6026206F
:103540000021FA6800F01CFB002318461837BD461E
:1035500080BD00BF400A00203001CADE1808010803
:1035600080B400AF034B5B6F1846BD465DF8047B2B
:10357000704700BF400A002080B400AF034B5B6877
:103580001846BD465DF8047B704700BF400A002026
:1035900080B400AF034B9B681846BD465DF8047BC2
:1035A000704700BF400A002080B500AF0020002116
:1035B00000F09CFA0346184680BD00BF80B582B07B
:1035C00000AF78607B682A200B21012200F038FAD6
:1035D0007B685B681E2000211A4600F0D1FA08378C
:1035E000BD4680BD80B483B000AF02460B46FA7181
:1035F000BB71FB795A1EBB790749CB5C5B00134456
:10360000064A08339B0013445B6818460C37BD46D6
:103610005DF8047B704700BFD8070108400A00200E
:1036200080B588B000AF78600B46FB700023FB7755
:103630000023BB777B681B78FB767B685B791A4637
:10364000554B33F81230BB837B685B785A1E534B63
:103650001A67524B1B6FBB76FB7E042B02D0FB7E9E
:10366000072B01D1012300E000237B767B681A78C9
:103670004A4B1A737B68DB79002B09D1474B1B6AD5
:1036800043F48002454B1A62BB8BDB08BB8305E029
:10369000424B1B6A23F48002404B1A627B681A7A01
:1036A0003E4B5A733D4B1A6A7B681B7A1B0403F42A
:1036B00040331A43394B1A62384B1B6A04200021ED
:1036C0001A4600F05DFABB8B2E2042F604011A4622
:1036D00000F046FABB7E184600F006FBFB7E304A3F
:1036E000D35C1A4613469B0013442E4A13442B20E6
:1036F0000721052200F0A4F92B200E2101222A4BDC
:1037000000F09EF97A7E294B134428200B210122D8
:1037100000F096F9FB7E224AD35C1A46244B53F8FC
:10372000223028200C211A4600F02AFA7B68DB7927
:1037300019467B689B791A461E4B49000A4433F8A8
:103740001230272002211A4600F00AFABA7E1A4BDC
:1037500033F81230272004211A4600F001FA7B6862
:10376000DB79002B05D127200621642200F0F8F92F
:1037700032E07B689B78042B20D11023FB73272039
:103780000621102200F0ECF907F10F032720262173
:10379000012200F055F91FE05C080108400A0020F2
:1037A000D8070108F8070108180801081C080108D3
:1037B000E00701082C080108380801082823BB731A
:1037C00027200621202200F0CBF907F10E03272045
:1037D0002621012200F034F9B97E7B68DB781A4695
:1037E000594B89000A4453F82230272008211A46F1
:1037F00000F0C6F97B685B899AB241F241039A42B4
:1038000007D07B685B899BB2272020211A4600F0F5
:10381000A7F97B685B899BB2002B05D1272020216B
:1038200041F2410200F09CF9484B1B6823200C2117
:103830001A4600F0A5F9BB7E444A5B0013449B88FE
:10384000232004211A4600F08BF97B689B79002B1A
:103850000DD07B68DB791A463D4B134421200021B3
:10386000012200F0EDF80323FB770123BB77FB7EF9
:1038700003F00F02FB7E1B01DBB21A437B685B780F
:103880009B0403F440231A43FB7F1B0503F44013FE
:103890001A43BB7F5B0403F400331A437B681B7934
:1038A0009B0503F0F8631A437B685B79DB061343DF
:1038B0007B611F2000217A6900F062F97B689A78A9
:1038C0007B685B781343DBB21B043B617B68DB796D
:1038D0005B031A463B69134343F400421D4B1A61D4
:1038E0001C4B1B69082000211A4600F049F9FB789F
:1038F00003F00103002B04D0164B1B7F184600F089
:1039000035FEFB7803F00203002B17D0114B9A69A8
:10391000BB7E1B0122FA03F39BB25B089BB21846E5
:1039200000F01AF80B4B9A69BB7E1B0122FA03F3D5
:103930009BB25B089BB2184600F024F8002318469F
:103940002037BD4680BD00BF3C08010820080108A3
:1039500028080108400A002080B582B000AF034665
:10396000FB80074BFA889A82054B9B8A2E2041F6F2
:1039700004011A4600F0F4F80837BD4680BD00BFC8
:10398000400A002080B582B000AF0346FB80064BA2
:10399000FA88DA82044BDB8A182000211A4600F0EC
:1039A000DFF80837BD4680BD400A002080B483B0F0
:1039B00000AF0346FB71074B9A69FB79013B1B0182
:1039C00022FA03F39BB218460C37BD465DF8047B20
:1039D000704700BF400A002010B51418B4F5806F7E
:1039E0000B4606DC1146821E092000F029F8002053
:1039F00010BD4FF0FF3010BD08B5054B1A691043DC
:103A000040EA81520021082000F0BAF8002008BDE9
:103A1000400A002010B40C460346114611202246ED
:103A20005DF8044B00F038B803460021172005224A
:103A300000F032B8034600211520052200F02CB812
:103A400000B583B0E1B160F03F007F298DF8000040
:103A50000DD961F07F00C9098DF801008DF80210C1
:103A60000320694600F09EFD03B05DF804FB8DF86D
:103A700001100220694600F095FD03B05DF804FBDB
:103A800060F07F008DF800006946012000F08AFD9B
:103A900003B05DF804FB00BF00B583B0E1B140F0B6
:103AA00040007F298DF800000DD961F07F00C90921
:103AB0008DF801008DF802100320694600F0ACFD7E
:103AC00003B05DF804FB8DF801100220694600F098
:103AD000A3FD03B05DF804FB8DF8000069460120EA
:103AE00000F09AFD03B05DF804FB00BF00B50422AE
:103AF00083B080B289B20DEB0203FFF7CDFF20B196
:103B00004FF0FF3003B05DF804FB9DF807009DF80F
:103B100006309DF80520A0F5807003EB00209DF88D
:103B2000043002EB002003EB002003B05DF804FB3F
:103B300000B583B080B289B202226B46FFF7ACFFBA
:103B400020B14FF6FF7003B05DF804FB9DF8010053
:103B50009DF8003003EB002080B203B05DF804FB59
:103B600030B583B01446150A89B202226B4680B282
:103B70008DF800408DF80150FFF762FF03B030BDB3
:103B800070B582B04FEA122E1446160C150E89B28B
:103B900004226B4680B28DF800408DF801E08DF86C
:103BA00002608DF80350FFF74BFF02B070BD00BFFD
:103BB00010B5002104460420FFF798FF54B9094BC3
:103BC0000340094C1A46236204200021BDE810403E
:103BD000FFF7D6BF054A04F4FF7343F00103024028
:103BE0001343EEE7FEFF47F0400A002001FE47F0D6
:103BF000024602210320FFF7B3BF00BF03460021A6
:103C000001200822FFF71CBF0346002101200822E3
:103C1000FFF742BF30B583B002AC04F8080D050AC7
:103C20006B46042102222D208DF80150FFF708FF7A
:103C300003256B46062101222D208DF8005000241B
:103C4000FFF7FEFE6B46012206212D208DF8004075
:103C5000FFF7F6FE0A212D20FFF748FF03B030BD25
:103C600030B583B0002302AC04F8083D02256B4652
:103C7000022101222C20FFF7E3FE6B462946012298
:103C80002C208DF80050FFF7DBFE03B030BD00BFE5
:103C9000FFF7E6BF10B5024682B00C462C2000218B
:103CA000FFF75EFF02AB03F8044D062101222C2032
:103CB000FFF7C6FE02B010BD10B504210446362041
:103CC000FFF714FF3CB920F4006204213620BDE860
:103CD0001040FFF755BF40F4006204213620BDE8D4
:103CE0001040FFF74DBF00BF10B582B06D2202AB90
:103CF00003F8082D40F6060104466B462E200122EB
:103D0000FFF79EFE2E2041F606012CB941F2076214
:103D1000FFF726FF02B010BD40F20762FFF720FF59
:103D200002B010BD30B583B0012402AB03F8084DDA
:103D300003256B460021022236208DF80150FFF743
:103D40007FFE06214FF400422D20FFF709FF4FF4BC
:103D50007A70FFF745F9204600F0F2F9002003B031
:103D600030BD00BF70B582B0012402AB032605460A
:103D700003F8084D00216B460222354036208DF8AD
:103D80000160FFF75DFE6A01224312212D20FFF73B
:103D9000E7FE204600F0D4F902B070BD10B5002156
:103DA00004461A20FFF7A2FE000D0005C4F313021B
:103DB000024300211A20BDE81040FFF7E1BE00BF1A
:103DC000014B9867D9677047400A00202DE9704180
:103DD000A64D00236A7F85B019460F2085F85E2026
:103DE00085F85830FFF782FE42050446686502D523
:103DF0006E7F002E78D014F480463ED0660564D5E0
:103E000014F4801640F0A38031461020FFF790FE96
:103E1000974B8046314611200222FFF73DFE6B7B17
:103E2000002B00F0B980C8F3090814F00802A5F8C7
:103E30005A808E4B08D093F85C1001F0200101F0FD
:103E4000FF00002900F0DB8085F859204FF00008C2
:103E5000697F022385F85830844E002940F09F8006
:103E600004F4DE4248EA02020F20FFF789FEF36FF6
:103E700043B306F15400984724E014F080014DD17B
:103E800014F4003677D17B4A2240DAB10F20314654
:103E9000FFF776FE2B6A85F86D609B0040F1CA80C3
:103EA00000F00EFBE60400F1A680200400F1C580BE
:103EB000E10340F1C680092385F85830EB6F0BB160
:103EC0006D48984705B0BDE870812B6A9A004FD5C0
:103ED00000F0F6FAEB6F0021032285F86D1085F8EB
:103EE0005820002BECD1EDE700F46063B3F5606F70
:103EF00081D000F003FA00F0E3FA2B6A04F0F80432
:103F00009B0000F19080EB6F032285F85820002B76
:103F10003FF471AF05F1540098476CE7F8220F2089
:103F20003146FFF72DFE95F85920504B42B15A7F8C
:103F300083F8596022B993F86D300BB100F0DEF9C7
:103F4000AB6F012285F85820002BB9D1BAE700F0F9
:103F5000D5F900F0B5FA2B6A44489C0044D4C36FED
:103F6000032280F85820002BACD054309847A9E7A2
:103F700000F0C4F9ACE732460F20FFF701FEEB6F0B
:103F8000042285F858200BB13B489847002385F858
:103F90006D3005B0BDE8708108F07F0845E7012667
:103FA00032466B460F2003218DF80860FFF774FD41
:103FB0009DF8003023F07F0203F04003B2EB430F83
:103FC00045D0296A11F0005127D0EB6F0BB12A4878
:103FD000984700F08BF9C8B100F090F900F070FA42
:103FE0002B6A99007FF56EAF00214FF480720D208F
:103FF000FFF7B6FD66E7082385F858305EE783F8DB
:10400000590083F86D004FF0080821E703210122D1
:1040100002AB0D20FFF714FD54E74FF480720D2022
:10402000FFF79EFDD1E731464FF480720D20FFF778
:1040300097FDE0E600F062F932E7032385F8583097
:104040003CE762010CD50A2385F8583036E704F4C2
:10405000C04248EA020200210F20FFF791FDB0E7BD
:10406000A302EAD50B2385F8583027E7400A002041
:104070009C0A002000902724940A002070B5044672
:1040800082B014F001066B464FF0260025D1314670
:104090000222FFF701FD9DF801303146262023F072
:1040A000140602226B468DF80160FFF7C9FCA307D6
:1040B00011D50F242A2101226B4636208DF80040AD
:1040C000FFF7BEFC00246B4636202A2101228DF822
:1040D0000040FFF7B5FC02B070BD00210222FFF7DF
:1040E000DBFC9DF8012002AB22F03C02012142F0F2
:1040F000140203F8072D26200A46FFF7A1FC6B46A1
:10410000022101223620FFF7C7FC9DF800606B46B4
:1041100066F07B060221012236208DF80060FFF751
:104120008FFC01264FF0100E6B462821022236200C
:104130008DF800E08DF80160FFF782FCB7E700BF63
:1041400010B582B004466B46362000210222FFF7EC
:10415000A3FC0D2C11D8DFE804F028073110101053
:10416000103A491010565D1F9DF80120002322F0DF
:1041700001028DF801208DF800306B4600210122EC
:104180003620FFF75DFC01210A460DEB01033620C6
:10419000FFF756FC02B010BD9DF8003023F030034D
:1041A00043F020038DF80030E7E79DF8003023F05E
:1041B000030343F001038DF80030DEE79DF8003083
:1041C00023F0030343F002038DF80030D5E79DF898
:1041D00000209DF8013022F04C0242F0480263F0CA
:1041E0007F038DF800208DF80130C6E79DF8002090
:1041F0009DF8013022F04C0203F07F038DF800207F
:104200008DF80130B9E79DF8013043F002038DF8D5
:104210000130B2E79DF8013023F002038DF8013040
:10422000ABE700BF08B50020FFF78AFFBDE80840F4
:10423000362004210022FFF793BC00BF0246012173
:104240000A20FFF79DBC00BF70B500F0020382B0EA
:10425000044603F0FF0213BB14F0010412D042F035
:104260000604002101226B460D208DF80040FFF767
:10427000E7FB0F200321FFF75BFC10F481601FD1E7
:1042800002B070BD42F002066B46214601220D20AD
:104290008DF80060FFF7D4FB204602B070BD80238C
:1042A00002AD05F8083D00216B4601220D20FFF705
:1042B000C7FB0D4B01219DF8002083F86D10CBE763
:1042C0006B460122002140240D208DF80040FFF7AD
:1042D000B7FB0020FFF7F0FC034B002283F86D20B2
:1042E0004FF0FF30CCE700BF400A002008B50221A4
:1042F0000F20FFF71DFC00F0100008BD70B582B064
:104300004023002102AC0E2004F8083DFFF7EEFB2D
:10431000064603F0FBFE002105460A460E20FFF785
:104320002FFC6B46002101220D20FFF789FB0021A5
:10433000094A0F20FFF724FC00F012F83246002152
:104340000E20FFF71DFC284603F0F4FE034B00226D
:1043500083F86D2002B070BDF8FF2724400A0020CA
:1043600000B585B001226B460F200321FFF794FBB7
:104370009DF8003023F07F0203F04003B2EB430FBF
:1043800007D0012204AB03F8082D0D200321FFF70D
:1043900057FB05B05DF804FB30B5044683B000253B
:1043A0008DF80050FFF7DCFFA4B129464FF44072AE
:1043B0000D20FFF7D5FB6B460F2003210122FFF7ED
:1043C0006BFB9DF8003003F0080303F0FF0053B9C6
:1043D00003B030BD21464FF480720D20FFF7C0FBC3
:1043E000204603B030BDFFF789FF29460D204FF46A
:1043F0008072FFF7B5FB4FF0FF30E9E770B582B090
:1044000004466B46042003210122FFF745FB94B9C3
:10441000104C9DF80050226A6B4622F0805625F021
:10442000100503210122042026628DF80050FFF7B9
:1044300007FB02B070BD2246064C0C200021FFF79E
:104440008FFB9DF80050226A6B4642F0805645F083
:104450001005E6E7400A002070B50D46064603F059
:1044600055FE002104460E20FFF740FB55B920EA17
:1044700006020E200021FFF783FB2046BDE87040B6
:1044800003F058BE40EA0602F3E700BF30B583B040
:10449000022302AC054604F8083D2F206B4600219C
:1044A0000122FFF7CDFA45B101256B462A462F20A0
:1044B00000218DF80050FFF7C3FA03B030BD00BFF4
:1044C00010B582B002ACE02304F8083D03216B462E
:1044D00001223620FFF7B4FAF0246B4603210122B3
:1044E00036208DF80040FFF7ABFA02B010BD00BFD8
:1044F00070B582B0002502AC04F8085DFFF792FEAB
:1045000029462A462C20FFF72BFB6B460621012269
:104510002C20FFF795FAFFF7A3FB6B46032101223E
:104520003620FFF7B9FA9DF800606B46032101229F
:1045300006F00F0636208DF80060FFF781FA4FF481
:104540007A70FEF74DFD9DF800206B4662F00F0477
:104550000321012236208DF80040FFF771FA024B4B
:1045600083F86D5002B070BD400A002010B582B0D3
:104570000DF1070304460E2101222B20FFF78CFAD0
:104580009DF8072004F01F0422F01F0214430DF1D0
:1045900007030E2101222B208DF80740FFF750FA68
:1045A00002B010BD2DE9704F9046994682468B4669
:1045B00003F0ACFD164B10225A61BAF1000F0CD07B
:1045C000144D00262B461BF80640AC812C89E107D0
:1045D000FCD5013656459A89F5DBB8F1000F0ED0AF
:1045E0000C4C002123460D4619F80110A1812189A8
:1045F000CA07FCD5013545459A892946F4D1044BB3
:1046000010221A6103F096FD0020BDE8708F00BFF4
:1046100000080140003001402DE9704F9146984656
:1046200082468B4603F072FD184B10225A61BAF194
:10463000000F0ED0164D00262A461BF80630AB811F
:104640002C89E107FCD593890136564588F800305E
:10465000F3DBB9F1000F10D00D4C00262246354691
:10466000B646A4F80CE02189CB07FCD50135938927
:104670004D4508F806302E46F3D1044B10221A613E
:1046800003F058FD0020BDE8708F00BF0008014016
:10469000003001402DE9784105461646002935D104
:1046A00001283BD0884621484FF4006100F026F9EC
:1046B0001E484FF4805100F021F995B100231C46AB
:1046C000F15C1B4806F052FD1948012106F08AFDF5
:1046D0000028F9D00134164806F056FDAC422346B6
:1046E000EED112484FF4006100F008F90F484FF482
:1046F000805100F0F5F8B8F1000F01D1BDE87881E4
:104700004FF4FA60BDE87841FEF76ABC07484FF401
:10471000006100F0E5F84FF00008C9E792F800806A
:1047200018F0030818BF4FF00108BCE7000C014067
:104730000038004080B489B000AF78603960002351
:10474000FB6100233B610023BB610023FB6000236E
:104750007B610023BB603B68DB7803F00F03FB61E8
:104760003B68DB7803F01003002B04D03B689B7898
:10477000FA691343FB613B681B88DBB2002B44D012
:104780007B681B687B610023BB6138E0BB69012249
:1047900002FA03F3FB603B681B881A46FB68134070
:1047A0003B613A69FB689A4226D1BB699B00FB607A
:1047B000FB680F2202FA03F3BB60BB68DB437A6934
:1047C00013407B61FB68FA6902FA03F37A691343C9
:1047D0007B613B68DB78282B05D1BB6901229A40BD
:1047E0007B685A6108E03B68DB78482B04D1BB69E1
:1047F00001229A407B681A61BB690133BB61BB69C6
:10480000072BC3D97B687A691A603B681B88FF2B2A
:1048100046D97B685B687B610023BB613AE0BB697A
:104820000833012202FA03F3FB603B681B881A4637
:10483000FB6813403B613A69FB689A4227D1BB6928
:104840009B00FB60FB680F2202FA03F3BB60BB68AE
:10485000DB437A6913407B61FB68FA6902FA03F370
:104860007A6913437B613B68DB78282B05D1BB69F0
:10487000083301229A407B685A613B68DB78482BF9
:1048800005D1BB69083301229A407B681A61BB6974
:104890000133BB61BB69072BC1D97B687A695A6058
:1048A0002437BD465DF8047B704700BF80B485B0F7
:1048B00000AF78600B467B800023FB737B689A68AF
:1048C0007B881340002B02D00123FB7301E00023FF
:1048D000FB73FB7B18461437BD465DF8047B7047BD
:1048E00080B483B000AF78600B467B807A887B68A9
:1048F0001A610C37BD465DF8047B704780B483B005
:1049000000AF78600B467B807A887B685A610C37F1
:10491000BD465DF8047B704780B487B000AF786017
:104920000B46FB7000233B610023FB6000237B618F
:104930000023BB607B68002B03DA2E4BDB697B61B5
:1049400002E02C4B5B687B617B6803F470231B0CDB
:10495000BB607B689BB23B617B6803F44013B3F59B
:10496000401F0AD17B6923F070637B61214B214A90
:10497000526822F070625A6021E07B6803F4801371
:10498000002B0ED0BB68032202FA03F3FB60FB6826
:10499000DB437A6913407B617B6943F070637B6121
:1049A0000DE07B685B0D1B013A6902FA03F3DB4300
:1049B0007A6913407B617B6943F070637B61FB78AC
:1049C000002B08D07B685B0D1B013A6902FA03F3E8
:1049D0007A6913437B617B68002B03DA054B7A69A4
:1049E000DA6102E0034B7A695A601C37BD465DF814
:1049F000047B70470000014090B484B000AF0246D1
:104A00000B46FA71BB710023FB60BB7903F0030313
:104A10009B000F2202FA03F3FB60154BBA79920850
:104A2000D2B21349B8798008C0B2023051F82000E0
:104A3000F968C9430140023243F822100C4BBA799D
:104A40009208D2B20A49B8798008C0B2023051F84F
:104A50002000FC79B97901F00301890004FA01F121
:104A60000143023243F822101037BD4690BC704714
:104A70000000014080B586B000AFF8607A603B600E
:104A80000B46FB72F868FEF705FBF86800F038F893
:104A9000FB683A68C3F8E425FB683A6AC3F8E8257E
:104AA000FB687A68C3F8EC25FB7AF868194606F0CB
:104AB00087F800237B617B693B6106E03A697B698B
:104AC00013443B617B6901337B617B69022BF5DD1C
:104AD000FB68D3F8E8351B68984700237B6106E044
:104AE0003A697B6913443B617B6901337B617B6974
:104AF000022BF5DDF868FEF703FB1837BD4680BDD5
:104B000080B483B000AF7860002318460C37BD46F0
:104B10005DF8047B704700BF80B584B000AF78605B
:104B200007F108037868194604F00EFC3B7A03F09D
:104B30001F03012B0AD0022B0FD0002B14D107F139
:104B400008037868194604F021F816E007F1080315
:104B50007868194604F06AF80FE007F108037868EE
:104B6000194604F097F808E03B7A23F07F03DBB2A4
:104B70007868194606F0ACF900BF002318461037D4
:104B8000BD4680BD80B584B000AF78600B46FB7039
:104B9000FB78002B45D17B6803F55D73FB607B6878
:104BA00093F81131032B4FD1FB68DA69FB689B68DE
:104BB0009A4221D9FB68DA69FB689B68D21AFB68C4
:104BC000DA617B68DB78012B06D1FB68DA68FB6869
:104BD0009B681A44FB68DA60FB68DA68FB689968CE
:104BE000FB68DB69994238BF0B469BB27868114677
:104BF0001A4606F067FB27E07B68D3F8E4351B69AB
:104C0000002B0AD07B6893F81231032B05D17B6807
:104C1000D3F8E4351B6978689847786806F066FB36
:104C200012E07B68D3F8E4359B69002B0CD07B68DD
:104C300093F81231032B07D17B68D3F8E4359B69D5
:104C4000FA78786811469847002318461037BD4611
:104C500080BD00BF80B584B000AF78600B46FB70AC
:104C6000FB78002B6CD17B6803F58E73FB607B684F
:104C700093F81131022B56D1FB68DA69FB689B6807
:104C80009A421CD9FB68DA69FB689B68D21AFB68F8
:104C9000DA617B68DB78012B06D1FB68DA68FB6898
:104CA0009B681A44FB68DA60FB68DA68FB68DB69BA
:104CB0009BB2786811461A4606F0D0FA33E0FB68DA
:104CC0001B6AFA689268B3FBF2F102FB01F29B1ACD
:104CD000002B14D1FB681A6AFB689B689A420ED3BA
:104CE000FB681A6AFB685B6A9A4208D278680021FE
:104CF000002206F0B3FAFB6800225A6213E07B68D8
:104D0000D3F8E435DB68002B0AD07B6893F81231C6
:104D1000032B05D17B68D3F8E435DB6878689847C6
:104D2000786806F0FBFA7B6893F81631012B1AD1EC
:104D3000786800F01DF87B68002283F8162112E0E5
:104D40007B68D3F8E4355B69002B0CD07B6893F863
:104D50001231032B07D17B68D3F8E4355B69FA780D
:104D6000786811469847002318461037BD4680BD25
:104D700080B483B000AF78607B681B69044A126816
:104D80005A60002318460C37BD465DF8047B704717
:104D90006412002080B582B000AF7860786800218E
:104DA0004022002305F08EFF7868802140220023F6
:104DB00005F088FF7B68012283F812217B68D3F815
:104DC000E8355B687A689278104698470023184661
:104DD0000837BD4680BD00BF80B582B000AF7860A7
:104DE0007B68D3F8E8351B6998477B6893F81321F3
:104DF0007B6883F812217B68032283F81221002349
:104E000018460837BD4680BD80B582B000AF7860D7
:104E10007B6893F812217B6883F813217B68042256
:104E200083F812217B68D3F8E835DB6898470023C4
:104E300018460837BD4680BD80B582B000AF7860A7
:104E40007B68D3F8E435DB69002B05D07B68D3F8A9
:104E5000E435DB6978689847002318460837BD4673
:104E600080BD00BF80B582B000AF78600B46FB709C
:104E70007B68D3F8E4351B68FA7878681146984760
:104E80007B68D3F8E8359B689847002318460837B5
:104E9000BD4680BD80B582B000AF78600B46FB7028
:104EA0007B68D3F8E4355B68FA78786811469847F0
:104EB000002318460837BD4680BD00BF80B582B0CC
:104EC00000AF78607B68D3F8E4351B6A7868984750
:104ED000002318460837BD4680BD00BF80B582B0AC
:104EE00000AF78607B68D3F8E4355B6A78689847F0
:104EF000002318460837BD4680BD00BF80B483B08C
:104F000000AF0346FB71084B97F907205209F97966
:104F100001F01F01012000FA01F143F822100C37C3
:104F2000BD465DF8047B704700E100E080B483B0CB
:104F300000AF0346FB71094B97F907205209F97935
:104F400001F01F01012000FA01F1203243F8221084
:104F50000C37BD465DF8047B704700BF00E100E000
:104F600080B485B000AF0346FB710023FB60FB7982
:104F700003F01003002B01D00123FB60FB7903F049
:104F80002003002B02D0FB680233FB60FB7903F0A7
:104F90004003002B02D0FB680433FB60FB6818461B
:104FA0001437BD465DF8047B704700BF80B588B0FC
:104FB00000AF0346FB71202004F0CCFBFCF7F0FEB1
:104FC000F861FA695E4B9A421BD05E481021FFF7E8
:104FD00095FC4FF47A70FEF703F85A481021FFF75A
:104FE0007FFC41F65830FDF7FBFFFCF7D9FEF86176
:104FF000FA69534B9A4202D04FF0FF339BE0FFF720
:1050000077FA04F0F7FCFCF703FEB861BB69002BEC
:1050100002DA4FF0FF338EE0082004F09BFBFCF730
:10502000BFFEF861FA69464B9A4202D04FF0FF3357
:1050300081E0FB7903F00803002B06D0424B0222EB
:105040001A60002004F0B6FD05E03F4B01221A6013
:10505000012004F0AFFD3C4B1B681846FCF7CEFC6A
:10506000394B1B68184602F05BFAFB791846FFF7CC
:1050700077FF0246354B1A60344B1A6834491346A1
:105080009B0013445B000B441B783B732F4B1A6847
:105090002F4913469B0013445B000B44DB787B7362
:1050A0002A4B1A682A4913469B0013445B000B44A1
:1050B0005B78BB73254B1A68254913469B00134444
:1050C0005B000B445B797B74204B1A6820491346C4
:1050D0009B0013445B000B449B79BB741B4B1A6809
:1050E0001B4913469B0013445B000B4408331B8889
:1050F000BB82164B1A68164913469B0013445B008B
:105100000B449B78FB73114B1A68114913469B00A3
:1051100013445B000B441B793B7407F10C031846E6
:10512000FCF746FE4FF4FA704FF47A71FCF7E2FF99
:1051300002F03AFAFB6918462037BD4680BD00BF31
:105140003001CADE0008014050000020C00A0020E3
:105150005400002080B500AF0120FDF7E9FE80BDBE
:1051600080B500AFFEF732FE03482021FFF79EFB1B
:105170000346012BF6D080BD000C014080B586B0FF
:1051800000AF164A07F108031068516803C3127A8A
:105190001A700023FB71124B7B6107F10803092091
:1051A00000211A46FFF776FA00BF7B695A1E7A6122
:1051B000002BFAD10223FB71FB1D012000211A46AE
:1051C000FFF768FA0123FB71FB1D012000211A463D
:1051D000FFF760FA1837BD4680BD00BF60040108C4
:1051E000A086010080B596B000AF002387F8563046
:1051F000002387F85530042004F0DCFC6F48FDF7ED
:10520000EFFE01233B713B1D012000211A46FFF7F1
:1052100041FA02233B713B1D012000211A46FFF792
:1052200039FA28200121664AFFF734FA28200121A3
:10523000644AFFF72FFA6148FDF7D2FE624B1B78F4
:105240001846FFF7B3FE0346B3F1FF3F0AD128200B
:1052500001215C4AFFF71EFA282001215B4AFFF773
:1052600019FAFEE728200121564AFFF713FA2820F1
:105270000121574AFFF70EFA5048FDF7B1FE01230E
:105280003B713B1D012000211A46FFF703FA7EE027
:105290003B1D18462021502207F040F83B1D4D4A87
:1052A00092E8030018600433198002330A0C1A7064
:1052B0003B1D2833484A92E80300186004331980E4
:1052C00002330A0C1A70002387F857304BE097F826
:1052D0005720424B53F8223097F8572040498A5CB8
:1052E000104698470346002B23D097F857300833D1
:1052F00007F1580213444F2203F8542C97F8573003
:10530000012202FA03F3DAB297F856301343DBB204
:1053100087F8563097F85730012202FA03F3DBB2D0
:10532000DB43DAB297F855301340DBB287F85530DB
:1053300014E097F85730083307F1580213444F220E
:1053400003F82C2C97F85730012202FA03F3DAB253
:1053500097F855301343DBB287F8553097F857303C
:10536000013387F8573097F85730062BAFD93B1DDC
:10537000282001211A46FFF78DF93B1D28332820EC
:1053800001211A46FFF786F91648FDF729FE97F81E
:10539000562097F855301340DBB27F2B7FF478AF5F
:1053A000042004F0CFFB282001210F4AFFF772F9F7
:1053B000282001210D4AFFF76DF9FEE740420F005A
:1053C0006C04010880040108C40A00209404010848
:1053D000A8040108BC040108C4040108D806010897
:1053E000D0060108A0860100CC040108E0040108F1
:1053F000B0B584B000AF0346FB710223FB7307F125
:105400000F03012000211A46FFF744F9FB790D48EC
:105410000D491A4606F0CCFF28200121094AFFF762
:1054200039F90A4A0A4B14461D460FCD0FC42B68A2
:10543000238010200121054AFFF72CF91037BD46C3
:10544000B0BD00BF6C120020F4040108D01200208F
:105450000805010890B5B1B006AF0023C7F8A43025
:105460000123C7F8A0304FF000024FF00003C7E956
:1054700024234FF000024FF00003C7E92223042049
:1054800004F060FB04F0CEFB04F0DEFBC548FDF742
:10549000A7FDFFF773FEC4480021642206F03EFF1B
:1054A000C148C249102206F0C3FE28200121BE4A8D
:1054B000FFF7F0F8BC48BE49102206F0B9FE1020F4
:1054C0000121B94AFFF7E6F8B648FDF789FD03F078
:1054D00075F9B448FDF784FD002004F003FB034692
:1054E0005B00DCB2012004F015FB03469B00DBB23D
:1054F00022461343DCB2022004F00CFB0346DB001F
:10550000DBB222461343DCB2042004F003FB034663
:105510001B01DBB222461343DCB2082004F0FAFA86
:1055200003465B01DBB222461343DCB2102004F0D9
:10553000F1FA03469B01DBB222461343DCB2202082
:1055400004F0E8FA0346DB01DBB222461343DBB288
:10555000DAB2984B1A701720FFF7E8FC002004F02D
:10556000C1FA0346012B08D1202004F0D3FA0346E8
:10557000012B02D1FFF736FE71E1012004F0CAFAD7
:105580000346002B47D1874BC7F89C308648002143
:10559000642206F0C3FE00BFD7F89C305A1EC7F83D
:1055A0009C20002BF8D1022387F86B3007F16B03A6
:1055B000012000211A46FFF76DF87B487E490C2236
:1055C00006F036FE28200121774AFFF763F8764877
:1055D0007A490C2206F02CFE10200121724AFFF7B6
:1055E00059F8704BC7F89C3000BFD7F89C305A1E52
:1055F000C7F89C20002BF8D1022387F86B3007F105
:105600006B03012000211A46FFF744F803F0CAFF9C
:1056100003F01AF9FCE7002387F86A30022387F8C1
:105620006A3007F16A03012000211A46FFF732F8B9
:105630003B1D18462021642206F070FE3B1D1846D3
:105640005F490F2206F0F4FD3B1D0F2001211A4691
:10565000FFF720F8042004F075FA564B1B78102051
:1056600053491A4603F094F8524B1B781846FFF73B
:105670009DFC0346B3F1FF3F2AD1042004F09AFABF
:1056800002233B713B1D012000211A46FFF702F85F
:105690003B1D18462021642206F040FE3B1D1846A3
:1056A00048490C2206F0C4FD3B1D282001211A4662
:1056B000FEF7F0FF3B1D184643490C2206F0B8FDEB
:1056C0003B1D282001211A46FEF7E4FF0023AFE22C
:1056D0001E23C7F8A4300FE0D7F8A43003F001036D
:1056E000002B03D0042004F02DFA02E0042004F083
:1056F00061FA3648FDF774FCD7F8A4305A1EC7F893
:10570000A420002BE8D10023C7F8A430042004F023
:1057100019FA022387F86A3007F16A030120002191
:105720001A46FEF7B7FF3B1D18462021642206F0FB
:10573000F5FD204B1B7803F00803002B06D0244B0B
:1057400002221A60002004F035FA05E0204B012205
:105750001A60012004F02EFA1D4B1B68012B5AD150
:10576000002004F0BFF90346012B37D13B1D023363
:10577000184618490C2206F05BFD3B1D282001212C
:105780001A46FEF787FF3B1D0233184612490C22CA
:1057900006F04EFD3B1D102001211A46FEF77AFF50
:1057A00053E000BF40420F006C1200201C050108AE
:1057B00030050108C40A002044050108500501080D
:1057C0005C0501086C05010878050108400D03001F
:1057D0005000002088050108980501083B1D023390
:1057E0001846A4490C2206F023FD3B1D2820012168
:1057F0001A46FEF74FFF02F093F802460B46391D9A
:1058000008469D4906F0D4FD3B1D102001211A4693
:10581000FEF740FF19E03B1D0233184697490C2262
:1058200006F006FD3B1D282001211A46FEF732FF37
:105830003B1D0233184692490C2206F0F9FC3B1D31
:10584000102001211A46FEF725FF022387F86A304F
:1058500007F16A03012000211A46FEF71BFF1720FB
:10586000FFF74CFB87482021642206F057FD86484D
:105870002021642206F052FDFDF754FA834B93F881
:105880007336012B1FD103F065FE02467F4BD3F820
:105890007436D21A7D4B9B6C9A4214D97B4B0022F2
:1058A00083F888227A4B1B68012B03D17748FCF7D9
:1058B0008FFC04E0FEF722FD744B06225A70734BF6
:1058C000002283F87326FCF7A9F80346002B00F0AA
:1058D0009D800023C7F884306E4B01221A60FCF7CC
:1058E0003BFCC7E92401FCF75FFCC7E92201654BDB
:1058F00002221A7001200021624AFEF7CBFE6148A5
:105900002021642206F00AFD5F482021642206F06F
:1059100005FD61486149D7E9242306F049FD2820A7
:105920000121584AFEF7B6FE5D485E49D7E92223B9
:1059300006F03EFD10200121534AFEF7ABFEFCF7B6
:10594000FBFBC7F88400FCF77FF8C7F88000FCF782
:1059500087F8F867FDF72CFB0346BB67FDF734FBC0
:1059600003467B67D7E924014FF000024E4B05F058
:1059700073FF02460B461046194606F007FA034627
:105980003B67FCF7FDFB02460B46104619464FF0FD
:105990000002454B05F060FF02460B4610461946D3
:1059A00006F0F4F90346FB66394B1B68012B14D152
:1059B0003B6F0093FB6E0193D7F884300293BB6F6B
:1059C00003937B6F04932F483849D7F88020FB6FEF
:1059D00006F0EEFCC7F8980013E03B6F0093FB6EF7
:1059E0000193D7F884300293BB6F03937B6F0493CA
:1059F00024482F49D7F88020FB6F06F0D9FCC7F860
:105A000098002048D7F8981002F09EFE214B1B68A2
:105A1000002B40F00A811E4B1B68022B00F0918086
:105A2000FCF736F80346002B62D0164B02221A70A0
:105A300001200021134AFEF72DFED7F8A030002BDD
:105A40003CD00023C7F8A0300E481A49102206F0B7
:105A5000EFFB282001210B4AFEF71CFE09481649DE
:105A6000102206F0E5FB10200121064AFEF712FE87
:105A70003EE000BFA8050108B8050108C0050108FF
:105A8000D00501086C120020D0120020E00B00208D
:105A900050000020C80A00206D120020E005010817
:105AA000D1120020F005010800408F4000060108D7
:105AB0002806010850060108640601080123C7F8FA
:105AC000A0305D485D49102206F0B2FB282001217C
:105AD0005B4AFEF7DFFD01F023FF02460B46584804
