:020000040800F2
:100000000000012079460008C56400080D6500085D
:100010002D650008356500083D65000800000000FA
:10002000000000000000000000000000456500081E
:1000300051650008000000005D6500088565000846
:10004000C9460008C9460008C94600086965000895
:10005000C9460008C9460008B1650008C94600083D
:10006000C9460008C1650008C9460008C94600081D
:10007000C9460008C9460008C9460008C946000824
:10008000C9460008C9460008C9460008C946000814
:10009000C9460008C9460008C9460008D1650008DD
:1000A000C9460008C9460008C9460008C9460008F4
:1000B000C9460008C9460008C9460008C9460008E4
:1000C000C9460008C9460008C9460008C9460008D4
:1000D000C9460008C9460008C9460008C9460008C4
:1000E000A1650008C9460008C946000800000000D4
:1000F0000000000000000000000000000000000000
:100100000000000000000000C9460008C9460008C1
:10011000C9460008C9460008C9460008C946000883
:10012000C9460008C9460008C9460008C946000873
:10013000C9460008C9460008C9460008C946000863
:10014000C9460008C9460008C9460008C946000853
:10015000000000000000000000000000000000009F
:10016000000000000000000000000000000000008F
:10017000000000000000000000000000000000007F
:10018000000000000000000000000000000000006F
:10019000000000000000000000000000000000005F
:1001A000000000000000000000000000000000004F
:1001B000000000000000000000000000000000003F
:1001C000000000000000000000000000000000002F
:1001D000000000000000000000000000000000001F
:1001E0005FF8E0F110B5054C237833B9044B13B137
:1001F0000448AFF300800123237010BD00090020E4
:100200000000000034C7000808B5064B1BB10648C3
:100210000649AFF300800648036813B1054B03B1EC
:10022000984708BD0000000034C7000804090020FA
:10023000F80800200000000080B400AF00BF054BAC
:100240009B889BB203F02003002BF8D0BD465DF8DD
:10025000047B70470028004080B485B000AF03469F
:10026000FB800023FB730F4B9B889BB2DAB2FB88A9
:10027000DBB21340FB730B4B1B889AB2FB88134015
:100280009BB2002B05D0FB7B002B02D00123FB731C
:1002900001E00023FB73FB7B18461437BD465DF875
:1002A000047B70470028004080B483B000AF034651
:1002B000FB80074B064A928891B2FA88D24392B2E9
:1002C0000A4092B29A800C37BD465DF8047B7047B5
:1002D000002800400000000080B586B000AFC7E9EC
:1002E0000001D7E9000110A3D3E9002307F02EFA9B
:1002F00002460B46104619460DA3D3E9002307F02A
:1003000025FA02460B46C7E90423D7E9040107F0A2
:100310004BFD02460B46C7E90223D7E902231046EC
:1003200019461837BD4680BDFA48CE3B1835B13D59
:100330000000000080842E4180B584B000AF78605A
:100340004FF000024FF00003C7E90223786807F07E
:100350006DF802460B461046194609A3D3E900235F
:1003600007F0CAF802460B46C7E90223D7E9022381
:10037000104619461037BD4680BD00BFAFF3008060
:10038000FA48CE3B1835B13DB0B590B000AF7860BB
:100390007B6803F52873D3E90023C7E90C23D7E969
:1003A0000C23002A73F1800106DBD7E90C2300320D
:1003B00063F1FF03C7E90C233B6B1846FFF7BCFF53
:1003C000C7E90601D7E9060191A3D3E9002307F0A5
:1003D00093F802460B46C7E904239549D7E904235D
:1003E000C1E900237B685B7C002B1BD07B681B7AF8
:1003F000052B0BD1D7E9040187A3D3E9002307F02C
:10040000A5F902460B46C7E90E230FE0D7E9040120
:1004100083A3D3E9002307F099F902460B46C7E905
:100420000E2303E0D7E90423C7E90E237B681C7A77
:10043000D7E90E0107F042FB02467B685B7A204653
:1004400011461A4606F0D4FD02460B46D7E90401D0
:1004500006F09EFE02460B46C7E90423D7E90401D5
:100460004FF000024FF0000307F0B8FA0346002BEC
:1004700009D1D7E904016CA3D3E9002307F0CCFA32
:100480000346002B00D0BDE06A49D7E90423C1E947
:1004900000237B6803F54A73D3E90023104619460D
:1004A000D7E9042306F076FE02460B46796801F58B
:1004B0004A71C1E900237B68D3F830335A1C7B684A
:1004C000C3F830237B6803F54A73D3E900457B68A2
:1004D000D3F83033184606F0A9FF02460B462046F3
:1004E000294607F033F902460B46C7E90223524971
:1004F000D7E90223C1E900237B68D3F83433591CC0
:100500007A68C2F834137A685933DB00D118D7E916
:100510000423C1E900237B6803F55273D3E9002368
:1005200010461946D7E9042307F076FA0346002B54
:1005300006D07B6803F55271D7E90423C1E9002393
:100540007B6803F55073D3E9002310461946D7E9B9
:10055000042307F043FA0346002B06D07B6803F51B
:100560005071D7E90423C1E900237B68D3F8343301
:10057000082B03D17B680022C3F834237B68D3F8AF
:100580003833082B36D14FF000024FF00003C7E993
:1005900008230023FB6211E07A68FB6A5933DB0011
:1005A0001344D3E90023D7E9080106F0F3FD02461E
:1005B0000B46C7E90823FB6A0133FB627B68D3F86B
:1005C0003823FB6A9A42E7DC7B68D3F83833184655
:1005D00006F02CFF02460B46D7E9080107F0B6F8F3
:1005E00002460B46C7E908231449D7E90823C1E9A5
:1005F000002306E07B68D3F838335A1C7B68C3F8C5
:10060000382300BF4037BD46B0BD00BFAFF3008008
:100610000000001319DDB141295C8FC2F528F83FB5
:10062000F6285C8FC2F5F43F000000000088D3403C
:100630002809002020090020380900203009002066
:1006400080B586B000AF7860396000233B7300232B
:100650007B730023BB730023FB7300233B740023D5
:100660007B740023BB740023FB747B68D3F8B03227
:100670005A1C7B68C3F8B0220023FB7530E0FB7D79
:100680006E33DB007A68134418463968082207F095
:10069000EBFB0346002B1FD0FB7D6E33DB007A683B
:1006A0001A4407F10C0310461946082207F0DCFB38
:1006B0000346002B11D1FB7D6E33DB007A681344B7
:1006C00018463968082207F003FCFB7D0133DAB2D3
:1006D0007B6883F86E2306E005E0FB7D0133FB7544
:1006E000FB7D002BCBD0002318461837BD4680BDBC
:1006F00080B584B000AF0023FB6000233B71002372
:100700007B710023BB710023FB7100233B7200232C
:100710007B720023BB720023FB72194AFB684FF403
:10072000D06101FB03F3134403F55A7300229A715D
:10073000134AFB684FF4D06101FB03F3134403F544
:100740002C7300221A600E4AFB684FF4D06101FB43
:1007500003F3134403F55A7300225A71FB684FF4F4
:10076000D06202FB03F303F55C72054B1A443B1D98
:1007700010461946082207F0ABFB1037BD4680BD76
:10078000980A002080B483B000AF78607B68DAB24A
:10079000034B1A700C37BD465DF8047B704700BFF1
:1007A000980A002080B400AF084BD3F85833002BD0
:1007B00005D0064B0022C3F85823012300E0002394
:1007C0001846BD465DF8047B704700BF980A0020BC
:1007D00080B400AF034BD3F860331846BD465DF8D4
:1007E000047B7047980A002080B400AF034BD3F815
:1007F00064331846BD465DF8047B7047980A0020B4
:1008000080B400AF034B93F86C331846BD465DF8D7
:10081000047B7047980A002080B400AF084B93F81F
:100820006C33012B05D1064B002283F86C23012386
:1008300000E000231846BD465DF8047B704700BF0A
:10084000980A002080B582B000AF00237B60504A38
:100850007B684FF4D06101FB03F313446033002243
:100860005A604B4A7B684FF4D06101FB03F3134499
:1008700003F5147300229A70012002F0F9FB444A38
:100880007B684FF4D06101FB03F3134403F5147349
:1008900000229A703E4A7B684FF4D06101FB03F35B
:1008A000134403F54E7300221A60394A7B684FF4F3
:1008B000D06101FB03F3134403F54C7300225A602B
:1008C000334A7B684FF4D06101FB03F3134403F513
:1008D0002C7300225A602E4A7B684FF4D06101FBD2
:1008E00003F3134403F52E7300221A60284A7B6831
:1008F0004FF4D06101FB03F3134403F52E73002280
:100900005A60234A7B684FF4D06101FB03F3134420
:1009100003F5307300221A601D4A7B684FF4D061E2
:1009200001FB03F3134403F54A714FF000024FF04B
:100930000003C1E90023164A7B684FF4D06101FB34
:1009400003F3134403F54C7300221A60104A7B68CA
:100950004FF4D06101FB03F3134403F550714FF0E2
:1009600000024FF00003C1E90023094A7B684FF4FD
:10097000D06101FB03F3134403F552714FF0000201
:10098000044BC1E90023FFF7B3FE0837BD4680BD25
:10099000980A002000408F4080B582B000AF00234D
:1009A0007B605F4A7B684FF4D06101FB03F3134423
:1009B00002221A705A4A7B684FF4D06101FB03F39C
:1009C000134403F5227300225A70554A7B684FF492
:1009D000D06101FB03F3134403F54C7300225A600A
:1009E0004F4A7B684FF4D06101FB03F3134403F5D6
:1009F0004E7300221A604A4A7B684FF4D06101FBB3
:100A000003F3134403F528714FF000024FF0000385
:100A1000C1E9002340F60F0001F09AFA3860032084
:100A200002F01EF93B68002B02D04FF0FF3372E05A
:100A3000FFF708FF3A4A7B684FF4D06101FB03F3EC
:100A40001344203301229A70354A7B684FF4D061F9
:100A500001FB03F3134403F514734DF6CA629A8045
:100A60002F4A7B684FF4D06101FB03F3134403F575
:100A7000227300221A702A4A7B684FF4D06101FB6E
:100A800003F3134403F5227300229A70244A7B680F
:100A90004FF4D06101FB03F3134403F522730022EA
:100AA000DA7000F0AFFF7B684FF4D06202FB03F313
:100AB00003F510721A4B13440533184601F096FEE5
:100AC000184B7A68002143F82210154A7B684FF4CE
:100AD000D06101FB03F3134403F55A7300221A712A
:100AE0000F4A7B684FF4D06101FB03F3134403F515
:100AF0002A714FF000024FF00003C1E90023084AB9
:100B00007B684FF4D06101FB03F3134403F5CE631C
:100B10000022DA70002318460837BD4680BD00BFAA
:100B2000980A00201811002080B500AF01F02EFBBC
:100B30000346184680BD00BF80B586B000AF786020
:100B400000233B610323FB6000237B617B681A78F1
:100B500089493B694FF4D06000FB03F30B44083331
:100B60001A707B685A7884493B694FF4D06000FB67
:100B700003F30B4408335A717B685A787E493B690A
:100B80004FF4D06000FB03F30B4408331A717B6809
:100B90009A7879493B694FF4D06000FB03F30B442A
:100BA00008335A707B68DA7873493B694FF4D06038
:100BB00000FB03F30B440833DA717B681A796E4942
:100BC0003B694FF4D06000FB03F30B4408339A7089
:100BD0007B685A7968493B694FF4D06000FB03F3A6
:100BE0000B440833DA707B689A7963493B694FF4A8
:100BF000D06000FB03F30B4408339A715E4A3B69F3
:100C00004FF4D06101FB03F31344103300221A7038
:100C10007B681A8958493B694FF4D06000FB03F3A5
:100C20000B4410335A803B694FF4D06202FB03F34C
:100C300003F10802504B1A44FB68DBB21046194618
:100C400001F0E0FA7B681B781A464C4913465B00BA
:100C500013449B000B441A7847493B694FF4D0601A
:100C600000FB03F30B4410331A717B689A784249F6
:100C70003B694FF4D06000FB03F30B4408331B784F
:100C80001046194601F0A0FA78617B69002B03D069
:100C90007B69B3F1FF3F0ED17B681B781A467B68F6
:100CA0009B78581E354913465B00134403449B0050
:100CB0000B445B687B61304A3B694FF4D06101FBB8
:100CC00003F3134410337A699A603B694FF4D0629E
:100CD00002FB03F303F11002274B134404331846BD
:100CE00001F05EFA244A3B694FF4D06101FB03F343
:100CF0001344203300221A70FB6803F00203002B18
:100D000040D17B689B785A1E1D4B33F812201A493C
:100D10003B694FF4D06000FB03F30B4418339A8017
:100D2000154A3B694FF4D06101FB03F313441833B8
:100D30009A8811493B694FF4D06000FB03F30B44E0
:100D40001833DA800C4A3B694FF4D06101FB03F39E
:100D5000134418339B88184601F0F0FB064A3B69A0
:100D60004FF4D06101FB03F3134418339B881846FA
:100D700001F0FAFB6DE000BF980A0020A0C0000857
:100D80009CC000087B689B78184601F001FC034674
:100D90005B089AB237493B694FF4D06000FB03F31C
:100DA0000B4418339A80334A3B694FF4D06101FBFE
:100DB00003F3134418339A882E493B694FF4D060EB
:100DC00000FB03F30B441833DA802A4A3B694FF4E3
:100DD000D06101FB03F3134418339B88002B38D1F7
:100DE0007B689B785A1E244B33F8122021493B69BB
:100DF0004FF4D06000FB03F30B4418339A801D4A74
:100E00003B694FF4D06101FB03F3134418339A8814
:100E100018493B694FF4D06000FB03F30B441833CF
:100E2000DA80144A3B694FF4D06101FB03F31344A9
:100E300018339B88184601F081FB0E4A3B694FF43A
:100E4000D06101FB03F3134418339B88184601F06B
:100E50008BFB7B681B79042B08D1202005F002FD59
:100E6000002001F071FD082005F0FCFC1837BD469C
:100E700080BD00BF980A00209CC0000880B485B0E7
:100E800000AF786039600023FB600C4AFB684FF4C8
:100E9000D06101FB03F3134420337A685A60074A98
:100EA000FB684FF4D06101FB03F3134428333A6825
:100EB0001A601437BD465DF8047B7047980A00201D
:100EC00080B483B000AF054BD3F830337B607B68D0
:100ED00018460C37BD465DF8047B7047980A002021
:100EE00080B483B000AF074BD3E90023C7E90023E8
:100EF000D7E90023104619460C37BD465DF8047B40
:100F0000704700BF2009002080B483B000AF074BBA
:100F1000D3E90023C7E90023D7E900231046194687
:100F20000C37BD465DF8047B704700BF28090020E0
:100F300080B483B000AF074BD3E90023C7E9002397
:100F4000D7E90023104619460C37BD465DF8047BEF
:100F5000704700BF3009002080B582B000AF7860D4
:100F60007B685B6E5A1C7B685A667B6800225A60FD
:100F70007B681B78022B06D17B6806225A70002002
:100F800002F02EF81DE07B6801225A707B681B7806
:100F9000012B13D17B68DB78032B03D17B68022202
:100FA000C3F85C237B68DB78022B03D17B680122CA
:100FB000C3F85C237B6802229A7002E07B680922F6
:100FC0009A7001F08DFF0837BD4680BDB0B5CEB038
:100FD00022AF78600023C7F8AC30002387F8A43034
:100FE000002387F8A530002387F8A630002387F870
:100FF000A730002387F8A8307B681B7987F8AB30CF
:1010000097F8AB30012B77D107F1A403184601F014
:10101000FDFA97F8A4301A4697F8A5301B021A4437
:1010200097F8A6301B041A4497F8A7301B06134400
:10103000BB6197F8A830DAB24FF00003C7E9042388
:10104000D7E9042315000024C7E90445D7E90401C2
:10105000BB691A464FF00003121843EB0103C7E9BE
:10106000042397F8A8301A06BB691B0A1344FB61D6
:10107000354AD7F8AC304FF4D06101FB03F3134489
:1010800003F5227300229A700023BB8101233B7277
:101090003B7A7B72694607F118028823084611469D
:1010A0001A4606F015FF07F108030FCB00F016FBF8
:1010B000254AD7F8AC304FF4D06101FB03F3134459
:1010C00020339B78002B2FD01F4AD7F8AC304FF439
:1010D000D06101FB03F3134403F52C735B685A1CC6
:1010E0001949D7F8AC304FF4D06000FB03F30B4440
:1010F00003F52C735A6017E097F8AB30062B13D129
:101100000023BB8106233B723B7A7B72694607F161
:1011100018028823084611461A4606F0D9FE07F140
:1011200008030FCB00F0DAFA074AD7F8AC304FF4D7
:10113000D06101FB03F3134403F5CE630022DA70A0
:10114000B037BD46B0BD00BF980A0020B0B5CEB0E4
:1011500022AF78600023C7F8A830002387F8A030BA
:10116000002387F8A130002387F8A230002387F8F6
:10117000A330002387F8A430002387F8AF30002382
:1011800087F8AE30002387F8AD307B681B79022BDF
:1011900040F01982022387F8AE307B68DB88BB8180
:1011A0007B681B7A412B29D0412B02DC022B21D0FA
:1011B00057E0612B22D0C52B53D17B68DB880C2BE9
:1011C00003D1072387F8AE3013E07B68DB880D2B53
:1011D00003D1072387F8AE300BE07B68DB88122B46
:1011E00003D1072387F8AE3003E0632387F8AE30DE
:1011F0003BE03AE0632387F8AE3036E07B68DB887B
:101200007F2B02D9632387F8AE307B685B7A03F0CB
:10121000CC03882B06D1092387F8AD30072387F844
:10122000AF301DE07B685B7A03F0CC03CC2B06D19A
:10123000152387F8AD300D2387F8AF3010E00F236A
:1012400087F8AD307B685B7A03F0CC038C2B03D13D
:101250000D2387F8AF3003E0072387F8AF3004E0B1
:1012600003E0632387F8AE3000BF97F8AE30072B5A
:1012700003D097F8AE30022B3DD107F1A0031846FA
:1012800001F0CAF997F8A0301A4697F8A1301B026E
:101290001A4497F8A2301B041A4497F8A3301B068F
:1012A0001344BB6197F8A430DAB24FF00003C7E9EA
:1012B0000423D7E9042315000024C7E90445D7E92E
:1012C0000401BB691A464FF00003121843EB0103F7
:1012D000C7E9042397F8A4301A06BB691B0A134414
:1012E000FB617B68DB8807F108021832104619465B
:1012F000002201F081F997F8AE303B723B7A7B72A5
:1013000097F8AE30022B40F01481C04AD7F8A830CD
:101310004FF4D06101FB03F3134403F55A739B7937
:10132000002B00F0C88097F8AD3007F1B0021344ED
:1013300013F8903C102B00F0BD80212B00D0BAE0B8
:101340000023A7F8A630D7E90423B048D7F8A8109F
:101350004FF4D06404FB01F1014401F51C71C1E9B3
:101360000023AA4AD7F8A8304FF4D06101FB03F359
:101370001344603300221A602023A7F8A630D7F860
:10138000A8304FF4D06202FB03F303F1E8029F4B55
:10139000134403F1080297F8AF3007F1080118333E
:1013A0000B4410461946082206F092FDD7F8A830E3
:1013B0004FF4D06202FB03F303F1FC02934B13449E
:1013C00003F10802D7F8A8304FF4D06101FB03F312
:1013D00003F528718D4B0B4410461946052206F083
:1013E00077FD8A4AD7F8A8304FF4D06101FB03F3A8
:1013F000134403F528714FF000024FF00003C1E9D8
:101400000023824AD7F8A8304FF4D06101FB03F3E0
:10141000134403F514739B785A1CD1B27B48D7F858
:10142000A8204FF4D06404FB02F2024402F51472C7
:1014300091707649D7F8A8204FF4D06000FB02F2F3
:101440000A44E8325371714AD7F8A8304FF4D0619A
:1014500001FB03F3134448335B68184601F090FA2C
:101460006A4AD7F8A8304FF4D06101FB03F3134464
:1014700003F5227302221A70B7F8A630184600212D
:1014800001F0ACF8D7F8A8304FF4D06202FB03F3B8
:1014900003F1E8025D4B13440333B7F8A62010466E
:1014A0001946002201F08AF8022001F0BFFC0C234B
:1014B000BB7200E000BF554AD7F8A8304FF4D061A6
:1014C00001FB03F3134403F5227301229A7069466A
:1014D00007F118028823084611461A4606F0F8FC60
:1014E00007F108030FCB00F0F9F8484AD7F8A83005
:1014F0004FF4D06101FB03F3134420339B78002B9E
:101500004CD0424AD7F8A8304FF4D06101FB03F326
:10151000134403F52E731B685A1C3C49D7F8A830B6
:101520004FF4D06000FB03F30B4403F52E731A60F5
:1015300034E097F8AE30072B30D1694607F1180236
:101540008823084611461A4606F0C2FC07F1080334
:101550000FCB00F0C3F82D4AD7F8A8304FF4D06174
:1015600001FB03F3134420339B78002B16D0274A4A
:10157000D7F8A8304FF4D06101FB03F3134403F50F
:101580002E731B685A1C2149D7F8A8304FF4D0603D
:1015900000FB03F30B4403F52E731A6097F8AE308B
:1015A000632B70D1D7F8A8304FF4D06202FB03F25E
:1015B000164B1344184600214FF000024FF0000371
:1015C00003F0B6F85FE07B681B79042B20D104237D
:1015D0003B723B7A7B720023BB814FF000024FF0DD
:1015E0000003C7E904230023BB610023FB616946B4
:1015F00007F118028823084611461A4606F068FCCF
:1016000007F108030FCB00F069F83CE0980A0020CE
:101610001E4AD7F8A8304FF4D06101FB03F31344FE
:101620001B78012B0AD0194AD7F8A8304FF4D061A3
:1016300001FB03F313441B78032B14D104233B72E7
:1016400044237B720023BB81694607F1180288237B
:10165000084611461A4606F03BFC07F108030FCB7B
:1016600000F03CF80FE0D7F8A8304FF4D06202FB4E
:1016700003F2064B1344184600214FF000024FF0CE
:10168000000303F055F8B037BD46B0BD980A0020FE
:1016900080B483B000AF00237B600F4A7B684FF4B7
:1016A000D06101FB03F3134403F5CE639B78194625
:1016B000094A7B68982000FB01F14FF4D06000FBE1
:1016C00003F30B44134403F55E731B7818460C3781
:1016D000BD465DF8047B7047980A002084B080B551
:1016E00082B000AF07F1100C8CE80F0000237B6084
:1016F0003B7CFB7000233B74364A7B684FF4D0611F
:1017000001FB03F3134403F5CE635B781946314ABA
:101710007B68982000FB01F14FF4D06000FB03F3DD
:101720000B44134403F55E73194607F11002982326
:10173000084611461A4606F0CBFB264A7B684FF452
:10174000D06101FB03F3134403F5CE635B781946C4
:10175000204A7B68982000FB01F14FF4D06000FB29
:1017600003F30B44134403F55E73FA781A70194AB5
:101770007B684FF4D06101FB03F3134403F5CE63A0
:101780005B780133DAB213497B684FF4D06000FB19
:1017900003F30B4403F5CE635A700E4A7B684FF493
:1017A000D06101FB03F3134403F5CE635B78042B94
:1017B0000AD1084A7B684FF4D06101FB03F313445C
:1017C00003F5CE6300225A700837BD46BDE880405D
:1017D00004B07047980A002080B584B000AF7860EC
:1017E0000023FB60854AFB684FF4D06101FB03F3E3
:1017F000134403F5CE631B78BB60804AB968FB686D
:10180000982000FB01F14FF4D06000FB03F30B4480
:10181000134403F55E731B78002B07D1784B00222D
:101820001A70774B00225A70754BE2E0734AB96820
:10183000FB68982000FB01F14FF4D06000FB03F33C
:101840000B44134403F55E735A786D4B5A706B4A20
:10185000B968FB68982000FB01F14FF4D06000FBF1
:1018600003F30B44134403F55E739A78644B9A7048
:10187000624AB968FB68982000FB01F14FF4D06020
:1018800000FB03F30B44134403F55E739A885C4B2F
:101890009A805A4AB968FB68982000FB01F14FF41E
:1018A000D06000FB03F30B44134403F56073D3E9EA
:1018B00000235349C1E90223504AB968FB689820C4
:1018C00000FB01F14FF4D06000FB03F30B44134421
:1018D00003F562731A684A4B1A61484AB968FB6893
:1018E000982000FB01F14FF4D06000FB03F30B44A0
:1018F000134403F562735A68414B5A61BB689822DE
:1019000002FB03F2FB684FF4D06101FB03F31344C5
:1019100003F56472394B1344394A02F118011A462F
:101920007F23084611461A4606F0D2FA334AB968B0
:10193000FB68982000FB01F14FF4D06000FB03F33B
:101940000B44134403F55E731A782D4B1A702B4A1F
:10195000B968FB68982000FB01F14FF4D06000FBF0
:1019600003F30B44134403F55E7300221A70234AF9
:10197000FB684FF4D06101FB03F3134403F5CE631E
:101980001B780133DAB21D49FB684FF4D06000FBCD
:1019900003F30B4403F5CE631A70184AFB684FF447
:1019A000D06101FB03F3134403F5CE631B78042BD2
:1019B0000AD1124AFB684FF4D06101FB03F31344D0
:1019C00003F5CE6300221A700C4AFB684FF4D06115
:1019D00001FB03F3134403F5CE631A780749FB6850
:1019E0004FF4D06000FB03F30B4403F5CE639A7011
:1019F000034B18461037BD4680BD00BF980A002033
:101A0000000A002080B582B000AF00237B60002375
:101A10003B6000237B6015E07B68982202FB03F2A9
:101A20003B684FF4D06101FB03F3134403F55E728E
:101A3000184B134418460021982206F0BFFA7B6821
:101A400001337B607B68032BE6DD124A3B684FF471
:101A5000D06101FB03F3134403F5CE6300225A70F7
:101A60000C4A3B684FF4D06101FB03F3134403F5C8
:101A7000CE6300221A70074A3B684FF4D06101FB25
:101A800003F3134403F5CE6300229A700837BD4672
:101A900080BD00BF980A002080B485B000AF786098
:101AA0000023FB60044BFA68796843F8221014376E
:101AB000BD465DF8047B70471811002090B5CDB08D
:101AC00022AF0023C7F89C300023C7F8A430FFF7EB
:101AD000DFFDC7F8A00015E0794BD7F89C2053F83C
:101AE0002230D7F89C204FF4D06101FB02F1754AF7
:101AF0000A441046D7F8A0109847C7F8A40000235E
:101B0000C7F8A030D7F8A430002BE5D0D7F8A43020
:101B1000022B40F086806B4AD7F89C304FF4D0619E
:101B200001FB03F313441B78012B2CD1654AD7F832
:101B30009C304FF4D06101FB03F3134403F524738D
:101B40001A686049D7F89C304FF4D06000FB03F36B
:101B50000B4420335B681A445A49D7F89C304FF441
:101B6000D06000FB03F30B4403F522735A60554A1F
:101B7000D7F89C304FF4D06101FB03F3134403F515
:101B800022730122DA704F4AD7F89C304FF4D061AB
:101B900001FB03F313441B78032B2CD1494AD7F8DC
:101BA0009C304FF4D06101FB03F3134403F522731F
:101BB0005A684449D7F89C304FF4D06000FB03F3D7
:101BC0000B4428331B681A443E49D7F89C304FF425
:101BD000D06000FB03F30B4403F522735A60394ACB
:101BE000D7F89C304FF4D06101FB03F3134403F5A5
:101BF00022730122DA70334AD7F89C304FF4D06157
:101C000001FB03F3134403F5227300229A702D4A5B
:101C1000D7F89C304FF4D06101FB03F3134400224A
:101C20005A60284AD7F89C304FF4D06101FB03F387
:101C3000134403F52273DB78012B3BD1214AD7F8FB
:101C40009C304FF4D06101FB03F3134403F522737E
:101C50009B78002B2ED11B4AD7F89C304FF4D061D3
:101C600001FB03F3134403F522735C6804F00EFDDB
:101C700003469C421ED2134AD7F89C304FF4D061E1
:101C800001FB03F3134403F522730022DA700023EF
:101C9000BB8004233B7084237B70694607F11002EC
:101CA0008823084611461A4606F012F93B460FCB28
:101CB000FFF714FD00231846AC37BD4690BD00BFAA
:101CC00018110020980A002080B483B000AF78601B
:101CD000044B7A68C3F878260C37BD465DF8047B60
:101CE000704700BF980A002080B500AF094B93F8F9
:101CF0002030012B0DD1074BDB8B184600F01EFC6A
:101D0000044B9B8B184600F02FFC024B002283F8FB
:101D1000202080BD980A002080B400AF034B9B8B2D
:101D20001846BD465DF8047B704700BF980A002046
:101D300080B400AF034BDB8B1846BD465DF8047BD7
:101D4000704700BF980A002080B584B000AF78606B
:101D500006F04CF8F8607A68094BA3FB02139B0964
:101D6000BB6000BF06F042F80246FB68D21ABB68AF
:101D70009A42F7D3002318461037BD4680BD00BFF6
:101D8000D34D62100024EFF30883184670471C46B9
:101D90002346184680B500AF194B194A126842F025
:101DA00001021A60164A164B5968164B0B405360D5
:101DB000134A134B1B6823F0847323F4803313609E
:101DC0000F4B0F4A126822F480221A600C4B0C4A07
:101DD000526822F4FE025A60094B094A126822F046
:101DE000A0521A60064B4FF47F029A60044B002207
:101DF000DA6200F00BF8044B4FF000629A6080BD8D
:101E0000001002400000FFF000ED00E080B500AFE0
:101E100000F002F880BD00BF80B483B000AF0023A3
:101E20007B6000233B60474B464A126842F4803295
:101E30001A60444B1B6803F400333B607B6801333A
:101E40007B603B68002B03D17B68B3F5A06FF0D1BA
:101E50003C4B1B6803F40033002B02D001233B6092
:101E600001E000233B603B68012B66D1364B364ACC
:101E7000126842F010021A60334B334A126822F0A3
:101E800003021A60304B304A126842F002021A60B4
:101E90002C4B2C4A52685A602A4B2A4A52685A6084
:101EA000284B284A526842F480625A60254A254BE2
:101EB000D96A264B0B40D362224A224BDB6A43F499
:101EC000833343F04403D3621E4B1E4A126842F030
:101ED00080621A6000BF1B4B1B6803F00063002B7D
:101EE000F9D0184B174A526822F47C125A60154BED
:101EF000144A526842F4E8125A60124B114A1268AE
:101F000042F080721A6000BF0E4B1B6803F0007332
:101F1000002BF9D00B4B0B4A526822F003025A6097
:101F2000084B084A526842F002025A6000BF054B53
:101F30005B6803F00C03082BF9D10C37BD465DF844
:101F4000047B7047001002400020024000F0FEFFBA
:101F500080B586B000AF0346FB8000237B6104237D
:101F6000FB7200237B827A4B002283F86C20784B33
:101F700000225A77764B00221A67754B002283F8AD
:101F80005920734B00225A67714B002283F86D2051
:101F90006F4B00229A676E4B0022DA6700F0F6F86A
:101FA00002466B4B1A606A4B1A686A4B9A4202D01F
:101FB0004FF0FF33C7E0002000F0B4FE07F10B0341
:101FC00024200021012200F02DFB1E2000F014FC33
:101FD00003467B827B8A1B0A9BB2DAB25C4B9A7304
:101FE000FB8803F00803002B05D0042000F004FC5C
:101FF0000246574B5A67564B5B6FDBB2002B09D03A
:102000000223BB7207F10A032D201221012200F0E6
:1020100009FB02E04E4B00225A67062000F0ECFB61
:1020200002464B4B5A60072000F0E6FB0246484B45
:102030009A60FB8803F00203002B06D01C2000F0FE
:10204000DBFB0246424B9A6102E0414B00229A615F
:10205000FB8803F00103002B12D07B8ADBB203F074
:102060001F03DAB23A4B1A77394B1B7F002B0ED184
:10207000394B1B7803F01F03DAB2354B1A7706E0B1
:10208000354B1B7803F01F03DAB2314B1A77FB880C
:1020900003F00403002B15D000237B610EE07B6965
:1020A0001033184600F0A8FB024629497B69083323
:1020B0009B000B445A607B6901337B617B690B2B6E
:1020C000EDDD0FE000237B6109E0214A7B690833E5
:1020D0009B00134400225A607B6901337B617B695A
:1020E0000B2BF2DDFB8803F40063002B02D000F021
:1020F0000BFC0FE03620052100F00CFB03463B8271
:102100003B8A23F400733B823B8A362005211A4622
:1021100000F018FB012000F005FE0420002100F073
:10212000D7FA02460A4B1A622620002100F0D0FAA4
:10213000F860FB6843F4A023FB6026200021FA68C6
:1021400000F010FB002318461837BD4680BD00BFC5
:10215000400900203001CADE28C3000880B400AF67
:10216000034B5B6F1846BD465DF8047B704700BFAC
:102170004009002080B400AF034B5B681846BD46A1
:102180005DF8047B704700BF4009002080B500AFB8
:102190000020002100F09CFA0346184680BD00BFD5
:1021A00080B582B000AF78607B682A200B210122C5
:1021B00000F038FA7B685B681E2000211A4600F0A8
:1021C000D1FA0837BD4680BD80B483B000AF024667
:1021D0000B46FA71BB71FB795A1EBB790749CB5C80
:1021E0005B001344064A08339B0013445B6818469F
:1021F0000C37BD465DF8047B704700BFE8C200089D
:102200004009002080B588B000AF78600B46FB70B5
:102210000023FB770023BB777B681B78FB767B680A
:102220005B791A46554B33F81230BB837B685B7879
:102230005A1E534B1A67524B1B6FBB76FB7E042B07
:1022400002D0FB7E072B01D1012300E000237B7627
:102250007B681A784A4B1A737B68DB79002B09D1AB
:10226000474B1B6A43F48002454B1A62BB8BDB0869
:10227000BB8305E0424B1B6A23F48002404B1A6289
:102280007B681A7A3E4B5A733D4B1A6A7B681B7AFD
:102290001B0403F440331A43394B1A62384B1B6A50
:1022A000042000211A4600F05DFABB8B2E2042F676
:1022B00004011A4600F046FABB7E184600F006FB01
:1022C000FB7E304AD35C1A4613469B0013442E4AC9
:1022D00013442B200721052200F0A4F92B200E2106
:1022E00001222A4B00F09EF97A7E294B13442820C4
:1022F0000B21012200F096F9FB7E224AD35C1A469C
:10230000244B53F8223028200C211A4600F02AFAD8
:102310007B68DB7919467B689B791A461E4B49001E
:102320000A4433F81230272002211A4600F00AFA34
:10233000BA7E1A4B33F81230272004211A4600F0D7
:1023400001FA7B68DB79002B05D127200621642266
:1023500000F0F8F932E07B689B78042B20D1102341
:10236000FB7327200621102200F0ECF907F10F0380
:1023700027202621012200F055F91FE06CC3000838
:1023800040090020E8C2000808C3000828C300086C
:102390002CC30008F0C200083CC3000848C3000872
:1023A0002823BB7327200621202200F0CBF907F158
:1023B0000E0327202621012200F034F9B97E7B6824
:1023C000DB781A46594B89000A4453F822302720FB
:1023D00008211A4600F0C6F97B685B899AB241F27F
:1023E00041039A4207D07B685B899BB2272020215A
:1023F0001A4600F0A7F97B685B899BB2002B05D1D8
:102400002720202141F2410200F09CF9484B1B6833
:1024100023200C211A4600F0A5F9BB7E444A5B003C
:1024200013449B88232004211A4600F08BF97B6813
:102430009B79002B0DD07B68DB791A463D4B13440A
:1024400021200021012200F0EDF80323FB77012376
:10245000BB77FB7E03F00F02FB7E1B01DBB21A434E
:102460007B685B789B0403F440231A43FB7F1B05C6
:1024700003F440131A43BB7F5B0403F400331A4395
:102480007B681B799B0503F0F8631A437B685B79D3
:10249000DB0613437B611F2000217A6900F062F99B
:1024A0007B689A787B685B781343DBB21B043B61E3
:1024B0007B68DB795B031A463B69134343F40042B4
:1024C0001D4B1A611C4B1B69082000211A4600F0A5
:1024D00049F9FB7803F00103002B04D0164B1B7F56
:1024E000184600F035FEFB7803F00203002B17D0EE
:1024F000114B9A69BB7E1B0122FA03F39BB25B0866
:102500009BB2184600F01AF80B4B9A69BB7E1B0170
:1025100022FA03F39BB25B089BB2184600F024F842
:10252000002318462037BD4680BD00BF4CC30008BD
:1025300030C3000838C300084009002080B582B0CD
:1025400000AF0346FB80074BFA889A82054B9B8AB3
:102550002E2041F604011A4600F0F4F80837BD4673
:1025600080BD00BF4009002080B582B000AF0346A7
:10257000FB80064BFA88DA82044BDB8A18200021A4
:102580001A4600F0DFF80837BD4680BD400900203C
:1025900080B483B000AF0346FB71074B9A69FB79A7
:1025A000013B1B0122FA03F39BB218460C37BD46D0
:1025B0005DF8047B704700BF4009002010B5141877
:1025C000B4F5806F0B4606DC1146821E092000F030
:1025D00029F8002010BD4FF0FF3010BD08B5054BA5
:1025E0001A69104340EA81520021082000F0BAF82D
:1025F000002008BD4009002010B40C4603461146D7
:10260000112022465DF8044B00F038B80346002143
:102610001720052200F032B80346002115200522BC
:1026200000F02CB800B583B0E1B160F03F007F2925
:102630008DF800000DD961F07F00C9098DF8010007
:102640008DF802100320694600F09EFD03B05DF88E
:1026500004FB8DF801100220694600F095FD03B0DF
:102660005DF804FB60F07F008DF8000069460120F2
:1026700000F08AFD03B05DF804FB00BF00B583B035
:10268000E1B140F040007F298DF800000DD961F0E4
:102690007F00C9098DF801008DF8021003206946FA
:1026A00000F0ACFD03B05DF804FB8DF801100220D2
:1026B000694600F0A3FD03B05DF804FB8DF800004F
:1026C0006946012000F09AFD03B05DF804FB00BFED
:1026D00000B5042283B080B289B20DEB0203FFF78C
:1026E000CDFF20B14FF0FF3003B05DF804FB9DF843
:1026F00007009DF806309DF80520A0F5807003EBDB
:1027000000209DF8043002EB002003EB002003B012
:102710005DF804FB00B583B080B289B202226B463B
:10272000FFF7ACFF20B14FF6FF7003B05DF804FB7C
:102730009DF801009DF8003003EB002080B203B04B
:102740005DF804FB30B583B01446150A89B2022245
:102750006B4680B28DF800408DF80150FFF762FFA4
:1027600003B030BD70B582B04FEA122E1446160C7D
:10277000150E89B204226B4680B28DF800408DF8A8
:1027800001E08DF802608DF80350FFF74BFF02B0B7
:1027900070BD00BF10B5002104460420FFF798FF6C
:1027A00054B9094B0340094C1A4623620420002106
:1027B000BDE81040FFF7D6BF054A04F4FF7343F0AD
:1027C000010302401343EEE7FEFF47F040090020FB
:1027D00001FE47F0024602210320FFF7B3BF00BF0E
:1027E0000346002101200822FFF71CBF03460021F9
:1027F00001200822FFF742BF30B583B002AC04F8D5
:10280000080D050A6B46042102222D208DF8015087
:10281000FFF708FF03256B46062101222D208DF8C6
:1028200000500024FFF7FEFE6B46012206212D20FA
:102830008DF80040FFF7F6FE0A212D20FFF748FF34
:1028400003B030BD30B583B0002302AC04F8083DBE
:1028500002256B46022101222C20FFF7E3FE6B4686
:10286000294601222C208DF80050FFF7DBFE03B033
:1028700030BD00BFFFF7E6BF10B5024682B00C4680
:102880002C200021FFF75EFF02AB03F8044D062168
:1028900001222C20FFF7C6FE02B010BD10B50421A6
:1028A00004463620FFF714FF3CB920F400620421EF
:1028B0003620BDE81040FFF755BF40F40062042108
:1028C0003620BDE81040FFF74DBF00BF10B582B005
:1028D0006D2202AB03F8082D40F6060104466B4654
:1028E0002E200122FFF79EFE2E2041F606012CB974
:1028F00041F20762FFF726FF02B010BD40F2076207
:10290000FFF720FF02B010BD30B583B0012402AB49
:1029100003F8084D03256B460021022236208DF86E
:102920000150FFF77FFE06214FF400422D20FFF7F4
:1029300009FF4FF47A70FFF707FA204600F0F2F92A
:10294000002003B030BD00BF70B582B0012402ABDF
:102950000326054603F8084D00216B460222354048
:1029600036208DF80160FFF75DFE6A0122431221D7
:102970002D20FFF7E7FE204600F0D4F902B070BD2D
:1029800010B5002104461A20FFF7A2FE000D000535
:10299000C4F31302024300211A20BDE81040FFF7E0
:1029A000E1BE00BF014B9867D9677047400900201E
:1029B0002DE97041A64D00236A7F85B019460F208E
:1029C00085F85E2085F85830FFF782FE4205044600
:1029D000686502D56E7F002E78D014F480463ED014
:1029E000660564D514F4801640F0A38031461020AB
:1029F000FFF790FE974B8046314611200222FFF7E9
:102A00003DFE6B7B002B00F0B980C8F3090814F081
:102A10000802A5F85A808E4B08D093F85C1001F09C
:102A2000200101F0FF00002900F0DB8085F859202B
:102A30004FF00008697F022385F85830844E002942
:102A400040F09F8004F4DE4248EA02020F20FFF7C4
:102A500089FEF36F43B306F15400984724E014F065
:102A600080014DD114F4003677D17B4A2240DAB18F
:102A70000F203146FFF776FE2B6A85F86D609B00CC
:102A800040F1CA8000F00EFBE60400F1A6802004AD
:102A900000F1C580E10340F1C680092385F8583074
:102AA000EB6F0BB16D48984705B0BDE870812B6A9C
:102AB0009A004FD500F0F6FAEB6F0021032285F85B
:102AC0006D1085F85820002BECD1EDE700F4606321
:102AD000B3F5606F81D000F003FA00F0E3FA2B6ADF
:102AE00004F0F8049B0000F19080EB6F032285F85E
:102AF0005820002B3FF471AF05F1540098476CE764
:102B0000F8220F203146FFF72DFE95F85920504B43
:102B100042B15A7F83F8596022B993F86D300BB1F6
:102B200000F0DEF9AB6F012285F85820002BB9D1F7
:102B3000BAE700F0D5F900F0B5FA2B6A44489C00DA
:102B400044D4C36F032280F85820002BACD05430FB
:102B50009847A9E700F0C4F9ACE732460F20FFF729
:102B600001FEEB6F042285F858200BB13B489847D3
:102B7000002385F86D3005B0BDE8708108F07F084E
:102B800045E7012632466B460F2003218DF8086089
:102B9000FFF774FD9DF8003023F07F0203F040033F
:102BA000B2EB430F45D0296A11F0005127D0EB6FEB
:102BB0000BB12A48984700F08BF9C8B100F090F9A2
:102BC00000F070FA2B6A99007FF56EAF00214FF488
:102BD00080720D20FFF7B6FD66E7082385F85830B0
:102BE0005EE783F8590083F86D004FF0080821E78D
:102BF0000321012202AB0D20FFF714FD54E74FF42F
:102C000080720D20FFF79EFDD1E731464FF48072B0
:102C10000D20FFF797FDE0E600F062F932E70323AD
:102C200085F858303CE762010CD50A2385F8583006
:102C300036E704F4C04248EA020200210F20FFF701
:102C400091FDB0E7A302EAD50B2385F8583027E7BA
:102C5000400900209C0900200090272494090020AE
:102C600070B5044682B014F001066B464FF02600A2
:102C700025D131460222FFF701FD9DF80130314692
:102C8000262023F0140602226B468DF80160FFF720
:102C9000C9FCA30711D50F242A2101226B46362037
:102CA0008DF80040FFF7BEFC00246B4636202A2139
:102CB00001228DF80040FFF7B5FC02B070BD002185
:102CC0000222FFF7DBFC9DF8012002AB22F03C0260
:102CD000012142F0140203F8072D26200A46FFF7CF
:102CE000A1FC6B46022101223620FFF7C7FC9DF8AC
:102CF00000606B4666F07B060221012236208DF8CB
:102D00000060FFF78FFC01264FF0100E6B46282164
:102D1000022236208DF800E08DF80160FFF782FC7A
:102D2000B7E700BF10B582B004466B4636200021DD
:102D30000222FFF7A3FC0D2C11D8DFE804F02807CE
:102D400031101010103A491010565D1F9DF80120E7
:102D5000002322F001028DF801208DF800306B462F
:102D6000002101223620FFF75DFC01210A460DEB10
:102D700001033620FFF756FC02B010BD9DF800306D
:102D800023F0300343F020038DF80030E7E79DF88F
:102D9000003023F0030343F001038DF80030DEE739
:102DA0009DF8003023F0030343F002038DF8003058
:102DB000D5E79DF800209DF8013022F04C0242F04A
:102DC000480263F07F038DF800208DF80130C6E7DC
:102DD0009DF800209DF8013022F04C0203F07F03A3
:102DE0008DF800208DF80130B9E79DF8013043F0EF
:102DF00002038DF80130B2E79DF8013023F00203A1
:102E00008DF80130ABE700BF08B50020FFF78AFF5F
:102E1000BDE80840362004210022FFF793BC00BF24
:102E2000024601210A20FFF79DBC00BF70B500F0EB
:102E3000020382B0044603F0FF0213BB14F0010446
:102E400012D042F00604002101226B460D208DF8BD
:102E50000040FFF7E7FB0F200321FFF75BFC10F4B6
:102E600081601FD102B070BD42F002066B46214660
:102E700001220D208DF80060FFF7D4FB204602B040
:102E800070BD802302AD05F8083D00216B4601228C
:102E90000D20FFF7C7FB0D4B01219DF8002083F8A3
:102EA0006D10CBE76B460122002140240D208DF8E8
:102EB0000040FFF7B7FB0020FFF7F0FC034B0022B8
:102EC00083F86D204FF0FF30CCE700BF40090020B1
:102ED00008B502210F20FFF71DFC00F0100008BD0F
:102EE00070B582B04023002102AC0E2004F8083DEA
:102EF000FFF7EEFB064603F019FA002105460A46E5
:102F00000E20FFF72FFC6B46002101220D20FFF75A
:102F100089FB0021094A0F20FFF724FC00F012F87A
:102F2000324600210E20FFF71DFC284603F012FA5E
:102F3000034B002283F86D2002B070BDF8FF2724F8
:102F40004009002000B585B001226B460F20032107
:102F5000FFF794FB9DF8003023F07F0203F040035D
:102F6000B2EB430F07D0012204AB03F8082D0D206C
:102F70000321FFF757FB05B05DF804FB30B50446AD
:102F800083B000258DF80050FFF7DCFFA4B129467F
:102F90004FF440720D20FFF7D5FB6B460F20032145
:102FA0000122FFF76BFB9DF8003003F0080303F0EC
:102FB000FF0053B903B030BD21464FF480720D209D
:102FC000FFF7C0FB204603B030BDFFF789FF29465D
:102FD0000D204FF48072FFF7B5FB4FF0FF30E9E7AB
:102FE00070B582B004466B46042003210122FFF72E
:102FF00045FB94B9104C9DF80050226A6B4622F0B4
:10300000805625F0100503210122042026628DF848
:103010000050FFF707FB02B070BD2246064C0C20A3
:103020000021FFF78FFB9DF80050226A6B4642F0AB
:10303000805645F01005E6E74009002070B50D46C2
:10304000064603F073F9002104460E20FFF740FB0B
:1030500055B920EA06020E200021FFF783FB204627
:10306000BDE8704003F076B940EA0602F3E700BF1E
:1030700030B583B0022302AC054604F8083D2F208A
:103080006B4600210122FFF7CDFA45B101256B46C1
:103090002A462F2000218DF80050FFF7C3FA03B015
:1030A00030BD00BF10B582B002ACE02304F8083D8B
:1030B00003216B4601223620FFF7B4FAF0246B4659
:1030C0000321012236208DF80040FFF7ABFA02B051
:1030D00010BD00BF70B582B0002502AC04F8085DD9
:1030E000FFF792FE29462A462C20FFF72BFB6B4662
:1030F000062101222C20FFF795FAFFF7A3FB6B4670
:10310000032101223620FFF7B9FA9DF800606B46D3
:103110000321012206F00F0636208DF80060FFF72C
:1031200081FA4FF47A70FEF70FFE9DF800206B468F
:1031300062F00F040321012236208DF80040FFF7D2
:1031400071FA024B83F86D5002B070BD4009002047
:1031500010B582B00DF1070304460E2101222B2089
:10316000FFF78CFA9DF8072004F01F0422F01F02DD
:1031700014430DF107030E2101222B208DF8074087
:10318000FFF750FA02B010BD2DE9704F90469946F6
:1031900082468B4603F0CAF8164B10225A61BAF1E8
:1031A000000F0CD0144D00262B461BF80640AC81B6
:1031B0002C89E107FCD5013656459A89F5DBB8F133
:1031C000000F0ED00C4C002123460D4619F80110BB
:1031D000A1812189CA07FCD5013545459A8929462F
:1031E000F4D1044B10221A6103F0B4F80020BDE8BA
:1031F000708F00BF00080140003001402DE9704F82
:103200009146984682468B4603F090F8184B102260
:103210005A61BAF1000F0ED0164D00262A461BF84F
:103220000630AB812C89E107FCD5938901365645E0
:1032300088F80030F3DBB9F1000F10D00D4C0026F8
:1032400022463546B646A4F80CE02189CB07FCD5CA
:10325000013593894D4508F806302E46F3D1044BCD
:1032600010221A6103F076F80020BDE8708F00BFCD
:1032700000080140003001402DE97841054616461E
:10328000002935D101283BD0884621484FF4006100
:1032900000F026F91E484FF4805100F021F995B155
:1032A00000231C46F15C1B4803F04AFE194801212B
:1032B00003F082FE0028F9D00134164803F04EFED8
:1032C000AC422346EED112484FF4006100F008F9F9
:1032D0000F484FF4805100F0F5F8B8F1000F01D11C
:1032E000BDE878814FF4FA60BDE87841FEF72CBD67
:1032F00007484FF4006100F0E5F84FF00008C9E717
:1033000092F8008018F0030818BF4FF00108BCE7DE
:10331000000C01400038004080B489B000AF7860F4
:1033200039600023FB6100233B610023BB61002364
:10333000FB6000237B610023BB603B68DB7803F00C
:103340000F03FB613B68DB7803F01003002B04D014
:103350003B689B78FA691343FB613B681B88DBB2CF
:10336000002B44D07B681B687B610023BB6138E085
:10337000BB69012202FA03F3FB603B681B881A4613
:10338000FB6813403B613A69FB689A4226D1BB69EE
:103390009B00FB60FB680F2202FA03F3BB60BB6873
:1033A000DB437A6913407B61FB68FA6902FA03F335
:1033B0007A6913437B613B68DB78282B05D1BB69B5
:1033C00001229A407B685A6108E03B68DB78482B11
:1033D00004D1BB6901229A407B681A61BB69013341
:1033E000BB61BB69072BC3D97B687A691A603B68EC
:1033F0001B88FF2B46D97B685B687B610023BB6120
:103400003AE0BB690833012202FA03F3FB603B6830
:103410001B881A46FB6813403B613A69FB689A4275
:1034200027D1BB699B00FB60FB680F2202FA03F304
:10343000BB60BB68DB437A6913407B61FB68FA6958
:1034400002FA03F37A6913437B613B68DB78282B2C
:1034500005D1BB69083301229A407B685A613B68F9
:10346000DB78482B05D1BB69083301229A407B6881
:103470001A61BB690133BB61BB69072BC1D97B688A
:103480007A695A602437BD465DF8047B704700BFF7
:1034900080B485B000AF78600B467B800023FB735F
:1034A0007B689A687B881340002B02D00123FB7352
:1034B00001E00023FB73FB7B18461437BD465DF823
:1034C000047B704780B483B000AF78600B467B808C
:1034D0007A887B681A610C37BD465DF8047B7047BB
:1034E00080B483B000AF78600B467B807A887B68BD
:1034F0005A610C37BD465DF8047B704780B487B0D5
:1035000000AF78600B46FB7000233B610023FB603B
:1035100000237B610023BB607B68002B03DA2E4B0A
:10352000DB697B6102E02C4B5B687B617B6803F4A9
:1035300070231B0CBB607B689BB23B617B6803F410
:103540004013B3F5401F0AD17B6923F070637B61A0
:10355000214B214A526822F070625A6021E07B6858
:1035600003F48013002B0ED0BB68032202FA03F38E
:10357000FB60FB68DB437A6913407B617B6943F046
:1035800070637B610DE07B685B0D1B013A6902FA99
:1035900003F3DB437A6913407B617B6943F070631B
:1035A0007B61FB78002B08D07B685B0D1B013A69BF
:1035B00002FA03F37A6913437B617B68002B03DA19
:1035C000054B7A69DA6102E0034B7A695A601C376D
:1035D000BD465DF8047B70470000014090B484B0A4
:1035E00000AF02460B46FA71BB710023FB60BB794A
:1035F00003F003039B000F2202FA03F3FB60154B59
:10360000BA799208D2B21349B8798008C0B20230B0
:1036100051F82000F968C9430140023243F82210F2
:103620000C4BBA799208D2B20A49B8798008C0B274
:10363000023051F82000FC79B97901F003018900CA
:1036400004FA01F10143023243F822101037BD465B
:1036500090BC70470000014080B483B000AF0346C7
:10366000FB71084B97F907205209F97901F01F0106
:10367000012000FA01F143F822100C37BD465DF835
:10368000047B704700E100E080B483B000AF0346E4
:10369000FB71094B97F907205209F97901F01F01D5
:1036A000012000FA01F1203243F822100C37BD4608
:1036B0005DF8047B704700BF00E100E080B485B096
:1036C00000AF0346FB710023FB60FB7903F010039E
:1036D000002B01D00123FB60FB7903F02003002BBA
:1036E00002D0FB680233FB60FB7903F04003002B40
:1036F00002D0FB680433FB60FB6818461437BD46F4
:103700005DF8047B704700BF80B588B000AF03460A
:10371000FB71202003F0A6F8FDF706FAF861FA69BC
:103720005E4B9A421BD05E481021FFF7D9FE4FF442
:103730007A70FEF709FB5A481021FFF7C3FE41F6E5
:103740005830FEF701FBFDF7EFF9F861FA69534BCA
:103750009A4202D04FF0FF339BE0FFF7BBFC03F02F
:10376000D1F9FDF719F9B861BB69002B02DA4FF006
:10377000FF338EE0082003F075F8FDF7D5F9F86106
:10378000FA69464B9A4202D04FF0FF3381E0FB7951
:1037900003F00803002B06D0424B02221A600020DF
:1037A00003F060FA05E03F4B01221A60012003F0AC
:1037B00059FA3C4B1B681846FCF7E4FF394B1B6871
:1037C000184602F073F8FB791846FFF777FF0246B8
:1037D000354B1A60344B1A68344913469B00134426
:1037E0005B000B441B783B732F4B1A682F49134621
:1037F0009B0013445B000B44DB787B732A4B1A68F5
:103800002A4913469B0013445B000B445B78BB734F
:10381000254B1A68254913469B0013445B000B4453
:103820005B797B74204B1A68204913469B00134434
:103830005B000B449B79BB741B4B1A681B491346F6
:103840009B0013445B000B4408331B88BB82164B60
:103850001A68164913469B0013445B000B449B787F
:10386000FB73114B1A68114913469B0013445B000C
:103870000B441B793B7407F10C031846FDF75CF908
:103880004FF4FA704FF47A71FDF7F8FA02F050F83D
:10389000FB6918462037BD4680BD00BF3001CADE37
:1038A0000008014008000020C0090020100000208E
:1038B00080B500AF0120FEF707FA80BD80B500AFEC
:1038C000FFF776F803482021FFF7E2FD0346012BBE
:1038D000F6D080BD000C014080B586B000AF164A1E
:1038E00007F108031068516803C3127A1A700023A5
:1038F000FB71124B7B6107F10803092000211A4676
:10390000FFF7BAFC00BF7B695A1E7A61002BFAD11F
:103910000223FB71FB1D012000211A46FFF7ACFCBE
:103920000123FB71FB1D012000211A46FFF7A4FCB7
:103930001837BD4680BD00BF00C10008A086010049
:1039400080B5AEB006AF0023C7F89C300123C7F89E
:1039500098304FF000024FF00003C7E924234FF0E6
:1039600000024FF00003C7E92223042003F042F9CC
:1039700003F0B0F903F0C0F99348FEF7E5F9FFF75B
:10398000ABFF92480021642204F018FB8F48904955
:10399000102204F09DFA282001218C4AFFF76CFCCC
:1039A0008A488C49102204F093FA10200121874A9A
:1039B000FFF762FC8448FEF7C7F91720FFF764FEA3
:1039C0000023FB700223FB70FB1C012000211A4620
:1039D000FFF752FC3B1D18462021642204F0EEFA4A
:1039E0003B1D18467C490F2204F072FA3B1D0F2044
:1039F00001211A46FFF740FC042003F0FBF8774B47
:103A00001B781846FFF780FE0346B3F1FF3F2AD12B
:103A1000042003F027F902233B713B1D0120002104
:103A20001A46FFF729FC3B1D18462021642204F0AA
:103A3000C5FA3B1D18466A490C2204F049FA3B1DA1
:103A4000282001211A46FFF717FC3B1D184665493F
:103A50000C2204F03DFA3B1D282001211A46FFF7F5
:103A60000BFC0023A5E21E23C7F89C300FE0D7F81B
:103A70009C3003F00103002B03D0042003F0BAF8BC
:103A800002E0042003F0EEF85748FEF75DF9D7F89E
:103A90009C305A1EC7F89C20002BE8D10023C7F8A1
:103AA0009C30042003F0A6F80223FB70FB1C0120CD
:103AB00000211A46FFF7E0FB3B1D18462021642237
:103AC00004F07CFA454B1B7803F00803002B06D06A
:103AD000464B02221A60002003F0C4F805E0434B75
:103AE00001221A60012003F0BDF8404B1B68012B36
:103AF0001CD13B1D023318463D490C2204F0E8F965
:103B00003B1D282001211A46FFF7B6FB02F0CCF836
:103B100002460B46391D0846364904F099FA3B1D0A
:103B2000102001211A46FFF7A7FB19E03B1D0233C5
:103B3000184631490C2204F0CBF93B1D2820012105
:103B40001A46FFF799FB3B1D023318462B490C22FE
:103B500004F0BEF93B1D102001211A46FFF78CFB33
:103B60000223FB70FB1C012000211A46FFF784FB97
:103B70001720FFF771FD3B1D18462021642204F039
:103B80001DFA1F482021642204F018FAFDF796FF61
:103B90001C4B93F87336012B3FD102F077FD0246A0
:103BA000184BD3F87436D21A164B9B6C9A4234D900
:103BB000144B002283F888220C4B1B68012B23D165
:103BC0001048FDF7C9F924E040420F002011002001
:103BD00034C1000848C100085CC100080C00002086
:103BE0006CC1000878C10008400D030008000020E7
:103BF00088C1000898C10008A0C10008B0C1000831
:103C000084110020980A0020FFF76AF9B24B0622BF
:103C10005A70B14B002283F87326FCF7C3FD0346AC
:103C2000002B00F09C800023C7F88430AB4B0122AE
:103C30001A60FDF755F9C7E92401FDF779F9C7E9DD
:103C4000220102233B713B1D012000211A46FFF790
:103C500013FB3B1D18462021642204F0AFF9A04855
:103C60002021642204F0AAF93B1D013318469D4926
:103C7000D7E9242304F0ECF93B1D282001211A4642
:103C8000FFF7FAFA98489949D7E9222304F0E0F9B6
:103C900010200121924AFFF7EFFAFDF711F9C7F85A
:103CA0008400FCF795FDC7F88000FCF79DFDF867E0
:103CB000FEF732F80346BB67FEF73AF803467B6728
:103CC000D7E924014FF00002894B03F015FC0246AE
:103CD0000B461046194603F0A9FE03463B67FDF765
:103CE00013F902460B46104619464FF00002804B6E
:103CF00003F002FC02460B461046194603F096FEFE
:103D00000346FB667B4B1B68012B14D13B1D3A6FAE
:103D10000092FA6E0192D7F884200292BA6F039251
:103D20007A6F049218467449D7F88020FB6F04F02C
:103D30008FF9B86613E03B1D3A6F0092FA6E01925C
:103D4000D7F884200292BA6F03927A6F04921846D1
:103D50006A49D7F88020FB6F04F07AF9B8665F4BA8
:103D60001B68002B40F02481624B1B68022B78D02B
:103D7000FCF752FD0346002B46D002233B713B1D4E
:103D8000012000211A46FFF777FAD7F89830002B68
:103D90001BD00023C7F898303B1D18465849102205
:103DA00004F096F83B1D282001211A46FFF764FA1B
:103DB0003B1D18465349102204F08AF83B1D102081
:103DC00001211A46FFF758FA1EE00123C7F8983080
:103DD0003B1D023318464C49102204F079F83B1D74
:103DE000282001211A46FFF747FA01F05DFF02463D
:103DF0000B46391D0846454904F02AF93B1D1020A1
:103E000001211A46FFF738FAFCF7FAFC0346022BA9
:103E100040F0CE80314B01221A6002233B713B1DE2
:103E2000012000211A46FFF727FA3B1D18463849A2
:103E3000102204F04DF83B1D282001211A46FFF7FF
:103E40001BFA02F0E9F802460B46391D08463149D3
:103E500004F0FEF83B1D102001211A46FFF70CFA72
:103E600094E6FCF7CDFC0346002B78D0D7F89830C9
:103E70000233C7F89830D7F89820274B9A4240F37E
:103E8000978002233B713B1D012000211A46FFF75A
:103E9000F3F9D7F8983003F00103002B40D000234A
:103EA000C7F898303B1D18461549102204F010F849
:103EB0003B1D282001211A46FFF7DEF93B1D18465D
:103EC0001649102204F004F83B1D102001211A4667
:103ED000FFF7D2F96CE000BF980A0020C409002067
:103EE00084110020C0C1000885110020D0C1000845
:103EF00000408F4008000020E0C1000808C2000810
:103F000030C2000844C2000858C2000898C1000826
:103F10006CC2000880C20008E093040088C2000858
:103F20000123C7F898303B1D18462449102203F09E
:103F3000CFFF3B1D282001211A46FFF79DF901F014
:103F4000B3FE02460B46391D08461D4904F080F8B1
:103F50003B1D102001211A46FFF78EF916E6FCF7EB
:103F60004FFC0346022B23D102233B713B1D012052
:103F700000211A46FFF780F93B1D1846114910220F
:103F800003F0A6FF3B1D282001211A46FFF774F914
:103F900001F066FF02460B46391D0846084904F049
:103FA00057F83B1D102001211A46FFF765F9EDE592
:103FB000ECE51846A037BD4680BD00BF9CC2000896
:103FC00098C100086CC2000880B400AF184B184AB2
:103FD000126842F001021A60154A154B5968154BD8
:103FE0000B405360124A124B1B6823F0847323F476
:103FF000803313600E4B0E4A126822F480221A603E
:104000000B4B0B4A526822F4FE025A60084B084AD6
:10401000126822F0A0521A60054B4FF47F029A609A
:10402000034B0022DA62BD465DF8047B704700BF97
:10403000001002400000FFF080B483B000AF786051
:10404000134B134A126822F480321A60104B104A44
:10405000126822F480221A607B68B3F5803F03D097
:10406000B3F5802F07D00DE0094B094A126842F4DE
:1040700080321A6006E0064B054A126842F4A0221C
:104080001A6000BF0C37BD465DF8047B704700BF67
:104090000010024080B582B000AF00233B600023D7
:1040A000FB710023BB71312000F0ACFA0346BB71F9
:1040B0003B6801333B603B68B3F5A06F02D0BB792E
:1040C000002BF0D0312000F09DFA0346002B02D0E7
:1040D0000123FB7101E00023FB71FB7918460837CF
:1040E000BD4680BD80B485B000AF786039600023E4
:1040F000FB600A4B5B68FB60FB6823F47413FB6096
:104100007A683B681343FA681343FB60034BFA6811
:104110005A601437BD465DF8047B704700100240BA
:1041200080B483B000AF0346FB71044BFA791A6088
:104130000C37BD465DF8047B704700BF600042420B
:1041400080B485B000AF786039600023FB600B4B12
:10415000DB6AFB60FB6823F4803323F00F03FB6012
:104160007A683B681343FA681343FB60034BFA68B1
:10417000DA621437BD465DF8047B704700100240D8
:1041800080B485B000AF78600023FB60094BDB6A28
:10419000FB60FB6823F0F003FB60FA687B68134365
:1041A000FB60044BFA68DA621437BD465DF8047BA5
:1041B000704700BF0010024080B485B000AF786047
:1041C0000023FB60094BDB6AFB60FB6823F4706330
:1041D000FB60FA687B681343FB60044BFA68DA62A1
:1041E0001437BD465DF8047B704700BF00100240E5
:1041F00080B483B000AF0346FB71044BFA791A60B8
:104200000C37BD465DF8047B704700BF6800424232
:1042100080B485B000AF78600023FB60094B5B6819
:10422000FB60FB6823F00303FB60FA687B681343C1
:10423000FB60044BFA685A601437BD465DF8047B96
:10424000704700BF0010024080B400AF054B5B68B0
:10425000DBB203F00C03DBB21846BD465DF8047B0D
:10426000704700BF0010024080B485B000AF786096
:104270000023FB60094B5B68FB60FB6823F0F003E5
:10428000FB60FA687B681343FB60044BFA685A6072
:104290001437BD465DF8047B704700BF0010024034
:1042A00080B485B000AF78600023FB60094B5B6889
:1042B000FB60FB6823F4E063FB60FA687B681343F0
:1042C000FB60044BFA685A601437BD465DF8047B06
:1042D000704700BF0010024080B485B000AF786026
:1042E0000023FB60094B5B68FB60FB6823F46053B1
:1042F000FB607B68DB00FA681343FB60034BFA68E2
:104300005A601437BD465DF8047B704700100240C8
:1043100080B485B000AF78600023FB60094B5B6818
:10432000FB60FB6823F44043FB60FA687B6813433F
:10433000FB60044BFA685A601437BD465DF8047B95
:10434000704700BF0010024080B48BB000AF7860AF
:1043500000233B6200237B620023FB610023BB61DF
:1043600000237B6100233B610023FB600023BB60D3
:10437000624B5B6803F00C033B623B6A042B07D083
:10438000082B09D0002B5ED17B685D4A1A605EE085
:104390007B685C4A1A605AE0584B5B6803F4701300
:1043A0007B62564B5B6803F48033FB617B6A9B0C3A
:1043B0007B627B6A0D2B03D07B6A02337B6201E058
:1043C00006237B62FB69002B06D17B6A4E4A02FB07
:1043D00003F27B681A6035E0484BDB6A03F48033F4
:1043E0007B61464BDB6A03F00F0301333B617B6962
:1043F000002B09D1434A3B69B2FBF3F37A6A02FB13
:1044000003F27B681A601DE03C4BDB6A03F0F003AB
:104410001B090133FB60394BDB6A03F470631B0A31
:104420000233BB60374AFB68B2FBF3F3BA6802FBA6
:1044300003F23B69B2FBF3F37A6A02FB03F27B6897
:104440001A6004E003E07B682D4A1A6000BF2B4B22
:104450005B6803F0F0033B623B6A1B093B622B4A3B
:104460003B6A13441B78DBB2BB617B681A68BB698B
:10447000DA407B685A60214B5B6803F4E0633B627F
:104480003B6A1B0A3B62214A3B6A13441B78DBB23E
:10449000BB617B685A68BB69DA407B689A60174BDE
:1044A0005B6803F460533B623B6ADB0A3B62174A7A
:1044B0003B6A13441B78DBB2BB617B685A68BB69FB
:1044C000DA407B68DA600D4B5B6803F440433B6283
:1044D0003B6A9B0B3B620E4A3B6A13441B78DBB280
:1044E000BB617B68DA68BB69B2FBF3F27B681A6177
:1044F0002C37BD465DF8047B704700BF00100240BA
:1045000000127A0040787D0100093D006000002023
:104510007000002080B483B000AF78600B46FB7061
:10452000FB78002B06D0094B084A91697A680A4348
:104530009A6106E0054B054A91697A68D2430A40C0
:104540009A610C37BD465DF8047B7047001002404D
:1045500080B483B000AF78600B46FB70FB78002B13
:1045600006D0094B084AD1697A680A43DA6106E045
:10457000054B054AD1697A68D2430A40DA610C37A3
:10458000BD465DF8047B70470010024080B483B0E4
:1045900000AF78600B46FB70FB78002B06D0094B10
:1045A000084AD1687A680A43DA6006E0054B054A92
:1045B000D1687A68D2430A40DA600C37BD465DF8AC
:1045C000047B70470010024080B483B000AF786075
:1045D0000B46FB70FB78002B06D0094B084A11698B
:1045E0007A680A431A6106E0054B054A11697A6840
:1045F000D2430A401A610C37BD465DF8047B704710
:104600000010024080B487B000AF0346FB71002366
:10461000FB6000237B610023FB74FB795B09DBB249
:10462000FB60FB68012B03D1124B1B687B6109E027
:10463000FB68022B03D10F4B1B6A7B6102E00D4B21
:104640005B6A7B61FB7903F01F03FB60FB687A699F
:1046500022FA03F303F00103002B02D00123FB74C1
:1046600001E00023FB74FB7C18461C37BD465DF857
:10467000047B704700100240002100F004B80D4B8D
:104680005B58435004310C480C4B42189A42FFF4DB
:10469000F6AF0B4A00F003B8002342F8043B094B85
:1046A0009A42FFF4F9AFFDF775FB03F0B5FBFFF796
:1046B00047F970473CC7000800000020FC080020B4
:1046C00000090020F8110020FFF7FEBF80B483B07E
:1046D00000AF78607B68B3F85432DAB27B6883F855
:1046E000EE207B68B3F854321B0A9BB2DAB27B68C7
:1046F00083F8EF207B68412283F8EB207B68CC2293
:1047000083F8EC200C37BD465DF8047B704700BF92
:1047100080B582B000AF786039603B68DAB27B6800
:1047200083F800217868FFF7D1FF0837BD4680BDC8
:10473000B0B586B000AFF860B960C7E90023BB68C8
:10474000002B0AD0D7E90023140A44EA03641D0AA7
:1047500023467B617869FEF763FBFB68D3F8C042B0
:10476000B868FEF70BFC0346E21AFB68C3F8C022E8
:104770001837BD46B0BD00BF80B584B000AF0B4652
:104780003A600246FA807B710023FB60FB88184682
:104790000021FDF723FF7B7903F00103002B02D0FA
:1047A0003868FEF73DFB7B791846FEF73FFB034672
:1047B000002B01D00123FB60FB6818461037BD4673
:1047C00080BD00BF2DE9B043ACB000AF7860396068
:1047D0007B685B780A2B01F2618001A151F823F01C
:1047E0000D4800086B4A0008374D0008DD4D0008F1
:1047F000C74D0008914E0008BF4F00080150000847
:104800006D490008F54A0008A94B00087B681B7831
:10481000012B05D0022B5FD0002B00F09480A3E089
:104820000023C7F8AC30B04B01221A701820FDF7F6
:10483000B1FF7B68012283F821207B68B3F85432F2
:104840001846FDF7C7FF7B6803F245231846FDF7BE
:10485000C7FF7B6803F1F8027B6803F2452310462B
:104860001946082203F034FB7B6803221A707B6828
:1048700009225A707B6803F25D127B6803F24523BC
:1048800010461946082203F023FB40F64113C7F8EF
:10489000AC30FDF763FC0346002B05D0D7F8AC30F5
:1048A00043F48053C7F8AC307B689B7A042B05D166
:1048B000D7F8AC3043F08003C7F8AC307B6893F88E
:1048C0002230002B07D0D7F8AC309BB21846072116
:1048D000FDF7D2FF48E047E00020FDF75BFF7B6873
:1048E000002283F821207B6803F245231846FDF758
:1048F00077FF7B68B3F854321846FDF76BFF7B688F
:1049000003F1F8027B6803F245231046194608229A
:1049100003F0DEFA7B6803F189027B6803F245232A
:1049200010461946082203F0D3FA0020FEF728F8B3
:104930007B6806225A700020FEF752FB7B6801223A
:1049400083F86C2310E00020FDF724FF7B68002231
:1049500083F821200020FEF713F87B6806225A70A6
:104960000020FEF73DFB00BF00F099BF0A20FCF7D6
:1049700033FFC7F89400D7F894301B78042B04D089
:104980007B6801225A6000F08ABF7B6800225A606F
:104990007B68002283F889227B689A787B685A704A
:1049A0007B6800229A7001F071FE02467B68C3F8B2
:1049B0008C227B68D3F88C227B68C3F890227B68BA
:1049C00093F82230002B4CD00023C7F8A8300320E6
:1049D00002F048F945481021FEF782FD444B0022C1
:1049E000C3F87826012002F0B3F84FF4FA60FDF71F
:1049F000ABF904E0D7F8A8300133C7F8A8303C4B36
:104A0000D3F87836002BF5D0002002F0A1F8374813
:104A10001021FEF757FDFDF7B9FBC7F8A800FDF719
:104A2000B5FBC7F8A800FDF7B1FBC7F8A800FDF774
:104A3000ADFBC7F8A800FDF7A9FBC7F8A800032045
:104A400002F0D8F80120FEF70BF97B689B8B184623
:104A5000FDF78AFD0020FDF721FF80200121FEF7F0
:104A6000EDFAFDF741F900F01ABF7B689B78022B45
:104A700003D07B689B78092B2BD17B6893F8893214
:104A8000002B26D07B6802225A607B6808225A706D
:104A90007B681B78032B03D17B68012283F86C238E
:104AA0007B6893F82230002B01D0FDF7E3FE7B6892
:104AB00003F52873D3E90023012A73F1000107DB12
:104AC0007868FBF761FC7B680122C3F8582309E092
:104AD00008E07B689A787B685A707B6800229A703D
:104AE00000F0DDBE00F0DBBE000000200008014049
:104AF000980A00200D23C7F890307B68C52283F800
:104B00005A217B6893F852325A1CD1B27A6882F8E3
:104B100052127A6882F85B31AF4B1A787B6883F85F
:104B20005C21AD4B1B780133DAB2AB4B1A70AA4B48
:104B30001B78042B02D9A84B01221A70D7F89030A9
:104B40009AB27B6803F5AD73104619460022FDF753
:104B500035FDD7F890309BB218460021FDF73EFD99
:104B60007B68022283F888227B68DB6D9BB2184643
:104B7000FEF736FA7B685B6D1846FDF701FF7B6830
:104B800093F888321846FEF751F97B68012283F8C2
:104B900089227B6805225A707B680922DA707B685B
:104BA00001225A6000F07BBE7B680722A3F85022E6
:104BB0007B68202283F891207B68B3F84E32DAB20A
:104BC0007B6883F892207B68B3F84E321B0A9BB255
:104BD000DAB27B6883F893207B681B6F9BB29633B5
:104BE000A7F88E30B7F88E30C3F30E03A7F88C30D9
:104BF000B7F88C30DAB27B6883F89420B7F88C3041
:104C00001B0A9BB2DAB27B6883F895207B685B6FE6
:104C10009BB203F5FA73A7F88E30B7F88E30C3F362
:104C20000E03A7F88C30B7F88C30DAB27B6883F8C3
:104C30009620B7F88C301B0A9BB2DAB27B6883F8F7
:104C400097207B68412283F87C207B68CC2283F804
:104C50007D207B68B3F8503217339AB27B68A3F893
:104C600050227B68B3F85432DAB27B6883F87F2035
:104C70007B68B3F854321B0A9BB2DAB27B6883F8C4
:104C800080207B6893F852325A1CD1B27A6882F83D
:104C900052127A6882F87E307B68022283F888227A
:104CA0007B6805225A707B680A22DA707B68B3F849
:104CB00050227B687C33104619460022FDF77EFCAB
:104CC0007B68B3F850227B681B6E104603211A469E
:104CD000FFF752FD0346002B12D00020FDF750FED7
:104CE0007B6806225A707B68002283F888227B68E2
:104CF000D3F8BC325A1C7B68C3F8BC2200F0CFBD8D
:104D00007B6805225A707B680A22DA707B68012270
:104D10005A607B68022283F801217B68002283F8B5
:104D200002217B68002283F8032178681021FFF7B5
:104D3000EFFC00F0B4BD7B68012283F889227B6818
:104D400093F852325A1CD1B27A6882F852127A68B9
:104D500082F8ED3078682121FFF7DAFC7B681822B1
:104D6000A3F850227B681B6D1846FDF709FE7B688F
:104D70009B6D9BB21846FEF733F97B68B3F850225F
:104D80007B68EB33104619460022FDF717FC7B6861
:104D9000022283F888227B68B3F85032184600213B
:104DA000FDF71CFC7B6893F888321846FEF73EF846
:104DB0007B6805225A707B680222DA707B680122C8
:104DC0005A6000F06CBD7B6805225A707B68042233
:104DD000DA7000F064BD00BF000000207B6803F5BE
:104DE00083727B6803F51A7310461946052203F097
:104DF0006FF878682921FFF78BFC7B682722A3F8DE
:104E000050227B68B3F850227B68EB33104619467A
:104E10000022FDF7D3FB7B68B3F850227B681B6E42
:104E2000104601211A46FFF7A7FC0346002B1AD0B3
:104E30007B6801225A707B6802229A707B6893F823
:104E40002230002B02D00020FDF728FD7B680022D5
:104E500083F888227B68D3F8BC325A1C7B68C3F87D
:104E6000BC2200F01CBD7B6805225A707B680322BF
:104E7000DA707B6801225A6001F008FC02467B6808
:104E8000C3F874267B68012283F8732600F007BDFF
:104E90000B20FCF7A1FCC7F88800D7F888301B78F6
:104EA000012B0DD0D7F888301B78042B03D17B68F9
:104EB000012283F894227B6801225A6000F0EFBC43
:104EC0007B6800225A607B68DB78032B07D17B6804
:104ED00001225A707B6802229A7000F0E0BC7B6865
:104EE00093F89432002B0CD07868FCF735F87B6887
:104EF000002283F894227B68002283F8882200F045
:104F0000CEBCD7F88830D3E90223796801F518714F
:104F1000C1E900237B68DB78022B4BD17B6803F56A
:104F20001873D3E900017B68D3E90E23801841EBA5
:104F30000301B74A4FF0FF0302EA000203EA01034C
:104F4000C7E90C23D7E90C234FEA122848EA036883
:104F50004FEA132942467B681A667B689B8B98B29E
:104F60004FF00001D7E90C23121843EB0103C7E906
:104F70000C23D7E90C014FF0FF324FF0FF0302EA98
:104F8000000203EA0103C7E90C237B6803F20B125A
:104F900007F1300310461946052202F099FF7B689D
:104FA00003F201127B6803F51873104619460522B7
:104FB00002F08EFF7B6806225A7000233B607B68FC
:104FC00093F88832002B08D1786800214FF0000256
:104FD0004FF00003FFF7ACFB03E07B68002283F88F
:104FE00088227B681B78002B02D07B6801225A60E4
:104FF0007B6807225A703B68002B01D100F04FBC40
:105000003B68042B00F03784072B04D0022B00F000
:10501000878000F039BC0C20FCF7DEFBC7F8840069
:105020007B681B78002B03D07B681B78022B70D128
:105030007B68012283F86C23D7F884301B337868AF
:105040001946FBF7FDFAD7F884309A7E714B1B782E
:105050009A420ED07B6806225A700020FDF7C0FFEE
:105060007B6800225A607B68012283F86C2300F081
:1050700014BC7B6893F86D33002B4AD17B6893F89E
:105080006D336E33DB007A681A44D7F884301B33F3
:1050900010461946082202F0E7FE0346002B38D1DD
:1050A000FDF768F803469BB2DBB29AB27B68A3F8BF
:1050B0004E227B68B3F84E321B029AB2D7F8843086
:1050C000DB7E13449AB27B68A3F84E22D7F8843073
:1050D000D3E902017B68D3E90C23121843EB0103E7
:1050E000140A44EA03641D0A22467B681A667B6838
:1050F00003F18102D7F884301B3310461946082289
:1051000002F0E6FE7B6801225A707B680A229A70E0
:10511000C3E37B6806225A707B6800225A60BCE3B6
:105120000F20FCF759FBC7F88000002387F82830D0
:10513000002387F82930002387F82A30002387F8D6
:105140002B30002387F82C30002387F82D300023E4
:1051500087F82E30002387F82F300023C7F8A430BB
:105160000023C7F8A0307B68002283F88A22D7F892
:1051700080305B7E8C2B34D08C2B02DC882B4BD088
:1051800060E0C82B17D0CC2B5CD1D7F8803025330A
:1051900007F1280210461946082202F099FED7F8B6
:1051A000803093F82D30C7F8A030D7F880302D33F9
:1051B000C7F89C3046E0D7F880301F3307F128024B
:1051C00010461946082202F083FED7F8803093F883
:1051D0002730C7F8A030D7F880302733C7F89C3085
:1051E00030E0D7F88030253307F128021046194601
:1051F000022202F06DFED7F8803093F82730C7F80E
:10520000A030D7F880302733C7F89C301AE000BFB1
:1052100000FEFFFF00000020D7F880301F3307F1A9
:10522000280210461946022202F052FED7F88030BA
:1052300093F82130C7F8A030D7F880302133C7F871
:105240009C3000BF7B681B78022B15D17B6893F8DC
:105250006D336E33DB007A681A4407F12803104679
:105260001946082202F000FE0346002B08D1D7F8A9
:10527000A030C7F8A43003E0D7F8A030C7F8A430B6
:10528000D7F8A430103B192B00F2D38201A252F8B8
:1052900023F000BF095500083358000833580008B0
:1052A00033580008335800083358000833580008B2
:1052B00033580008335800083358000833580008A2
:1052C0003358000833580008335800083358000892
:1052D00033580008FD520008A9540008335800084C
:1052E0003358000833580008335800083358000872
:1052F0003358000833580008A55500087B681B7810
:10530000032B40F0D0807B6801225A707B68022218
:105310009A70D7F89C3001331B781A46D7F89C3026
:1053200002331B781B029BB213449AB27B68A3F82A
:105330004E22D7F89C3003331B781A46D7F89C309E
:1053400004331B781B0213443B62D7F89C300533AF
:105350001B781A46D7F89C3006331B781B0213447F
:105360007B620023C7F8983037E0D7F898309B006D
:1053700007F1B0010B4453F8903C03F40043DB0BFE
:10538000012B25D1D7F898309B0007F1B0021344C8
:1053900053F8903C23F40042D7F898309B0007F173
:1053A000B0010B4443F8902CD7F898309B0007F1DC
:1053B000B002134453F8903C4FF47A7202FB03F2AC
:1053C000D7F898309B0007F1B0010B4443F8902CBC
:1053D000D7F898300133C7F89830D7F89830012BB8
:1053E000C3DD3A6A7B681B6FD31A42F2107202FB6C
:1053F00003F2854BA3FB02131B09A3F110027B6888
:105400001A653A6A7B6A1344FB67F86F01F0FEFF86
:1054100002460B4610461946FAF75EFF02460B4657
:105420007968C1E90E23FB6F03F2E732774BA3FBE8
:1054300002139B091A467B689A643A6A46F2A713DC
:105440009A4204D87A6A46F2A7139A4203D97B6833
:10545000002283F822207B6803F1F00207F1280381
:1054600010461946082202F033FD7B6803F25622EB
:1054700007F1280310461946082202F029FD7B682F
:1054800001221A707B68002283F8892201F0FEF85D
:1054900002467B68C3F88C227B68D3F88C227B6839
:1054A000C3F89022CCE1CBE17B681B78002B03D1C1
:1054B0007B6806225A70C3E17B6893F82130002B89
:1054C00006D11820FDF766F97B68012283F82120B8
:1054D0007B68DB78042B03D17B680322C3F85C2351
:1054E000D7F880309B780C2B0AD17B68002283F898
:1054F0006C237B6805225A707B680422DA709FE176
:105500007B6806225A709BE17B681B78002B03D1D5
:105510007B6806225A7093E1D7F88030D3E90223E2
:10552000796801F51A71C1E900237B6803225A707A
:1055300010200221FDF7EEF803461B099BB21A4624
:105540007B68C3F868237B68022283F86C237B683E
:1055500003F528714FF000024FF00003C1E900236A
:105560007B6803F52872D7F89C300433104619463F
:10557000052202F0ADFC97F828301A4697F829303A
:105580001B021A447B68C3F860237B6893F845329A
:105590001A467B6893F846321B021A447B68C3F8AC
:1055A00064234DE14FF000024FF00003C7E90623EA
:1055B0004FF000024FF00003C7E91C234FF0000238
:1055C0004FF00003C7E904234FF000024FF000033F
:1055D000C7E902234FF000024FF00003C7E91A2386
:1055E0004FF000024FF00003C7E918234FF000020C
:1055F0004FF00003C7E916237B681B78002B07D107
:105600007B6806225A701BE1813D6600D34D621013
:10561000D7F88030D3E90223C7E91C237B68002236
:105620001A66D7F89C30013307F11002104619466C
:10563000052202F04DFCD7F89C30063307F1080232
:1056400010461946052202F043FCD7F89C300B3374
:1056500007F1180210461946052202F039FCD7E975
:105660000201D7E90423821A61EB030310461946AD
:105670004FF0FF324FF0FF0302EA000203EA01039A
:10568000C7E914237B6803F51873D3E900017B682D
:1056900003F51C73D3E90023821A61EB0303104660
:1056A00019464FF0FF324FF0FF0302EA000203EA0F
:1056B0000103C7E912237B6803F51873D3E90023BC
:1056C000D7E91C01821A61EB0303104619464FF01B
:1056D000FF324FF0FF0302EA000203EA0103C7E9C9
:1056E0001023D7E90601D7E90223821A61EB0303ED
:1056F000104619464FF0FF324FF0FF0302EA000256
:1057000003EA0103C7E90E23D7E9140101F0C6FE3D
:1057100004460D46D7E9100101F0C0FE02460B46D3
:105720002046294601F0E8FE02460B4614461D4677
:10573000D7E90E0101F0B2FE80468946D7E9120191
:1057400001F0ACFE02460B464046494601F0D4FE4D
:1057500002460B462046294601F01AFD02460B463A
:10576000C7E91A23D7E9100101F098FE04460D4657
:10577000D7E9120101F092FE02460B462046294667
:1057800001F008FD02460B46C7E91823D7E91401CA
:1057900001F084FE04460D46D7E90E0101F07EFEBD
:1057A00002460B462046294601F0F4FC02460B4611
:1057B000C7E91623D7E91801D7E9162301F0EAFC57
:1057C00002460B46D7E91A0101F0C0FF02460B461C
:1057D0001046194602F0D0FA02460B46796801F5E8
:1057E0002871C1E900237868FAF7CEFD7B680122B1
:1057F000C3F8582397F828301A4697F829301B0227
:105800001A447B68C3F864237B6893F845321A46D0
:105810007B6893F846321B021A447B68C3F8602306
:105820007B6806225A700020FDF7AAF8FCF75CFAA4
:1058300006E07B6806225A700020FDF7A1F800BF41
:10584000D7F880301B7E03F02003002B02D01020FD
:10585000FBF7C2FF7B6893F88932002B0AD17B6883
:105860001B78002B06D17B6806225A700020FDF7BA
:1058700087F812E011E01120FBF7AEFF7868FBF724
:105880006BFB00233B6008E07B685B68002B03D167
:105890007B6801225A60FFE700BF00E000BF7B6821
:1058A0005B681846B037BD46BDE8B08380B584B0AC
:1058B00000AF78600023FB607B68DAB21749FB68B1
:1058C0004FF4D06000FB03F30B441A70134AFB68DB
:1058D0004FF4D06101FB03F3134400225A701048C7
:1058E0000121FDF7ABFB0320FDF7BAF90D480E4986
:1058F000FDF758F80D48FCF7CFF8084AFB684FF45D
:10590000D06101FB03F3134403F55A730022DA71EB
:10591000002318461037BD4680BD00BF980A0020FE
:1059200080D00324CD0F00084D110008C5470008A2
:1059300080B586B000AF804BFB600A23BB60FB687C
:10594000DB7B7E4AD35C7B60FB689B7A043B302B1D
:1059500000F2848001A050F823F000BF575A0008DD
:105960005D5A00085D5A00085D5A0008395A00085F
:105970005D5A00085D5A00085D5A0008215A000867
:105980005D5A00085D5A00085D5A00085D5A00081B
:105990005D5A00085D5A00085D5A0008515A000817
:1059A0005D5A00085D5A00085D5A0008315A000827
:1059B0005D5A00085D5A00085D5A00085D5A0008EB
:1059C0005D5A00085D5A00085D5A00085D5A0008DB
:1059D0005D5A00085D5A00085D5A0008495A0008DF
:1059E0005D5A00085D5A00085D5A0008295A0008EF
:1059F0005D5A00085D5A00085D5A00085D5A0008AB
:105A00005D5A00085D5A00085D5A00085D5A00089A
:105A10005D5A00085D5A00085D5A0008415A0008A6
:105A20004FF480537B6119E04FF400637B6115E014
:105A30004FF4C0637B6111E04FF480637B610DE044
:105A40004FF400737B6109E04FF480737B6105E0E4
:105A500080237B6102E040237B6100BF7B687A6921
:105A600013447B61FB685B7A012B05D17B69344A67
:105A700002FB03F37B6104E07B69324A02FB03F320
:105A80007B6100233B61A6E02F4B3A6953F822105B
:105A90002D4B3A6953F8223003F249132B4A82FB0B
:105AA0000302D211DB17D21A13465B0013445B00CA
:105AB0000B44DB001946FB683A691A3243F822109E
:105AC000FB68DB7B002B19D1FB683A691A3253F86B
:105AD00022301F4A02FB03F1FB683A691A3243F88D
